Component: ARM Compiler 5.06 update 6 (build 750) Tool: armlink [4d35ed]

==============================================================================

Section Cross References

    system_m1130.o(i.SystemInit) refers to system_m1130.o(i.delay) for delay
    startup_m1130.o(RESET) refers to startup_m1130.o(STACK) for __initial_sp
    startup_m1130.o(RESET) refers to startup_m1130.o(.text) for Reset_Handler
    startup_m1130.o(RESET) refers to m1130_it.o(i.NMI_Handler) for NMI_Handler
    startup_m1130.o(RESET) refers to m1130_it.o(i.HardFault_Handler) for HardFault_Handler
    startup_m1130.o(RESET) refers to m1130_it.o(i.SVC_Handler) for SVC_Handler
    startup_m1130.o(RESET) refers to m1130_it.o(i.PendSV_Handler) for PendSV_Handler
    startup_m1130.o(RESET) refers to m1130_it.o(i.SysTick_Handler) for SysTick_Handler
    startup_m1130.o(.text) refers to system_m1130.o(i.SystemInit) for SystemInit
    startup_m1130.o(.text) refers to entry.o(.ARM.Collect$$$$00000000) for __main
    m1130_gpio.o(i.GPIO_DataMask) refers to main.o(i.assert_failed) for assert_failed
    m1130_gpio.o(i.GPIO_DataUnmask) refers to main.o(i.assert_failed) for assert_failed
    m1130_gpio.o(i.GPIO_EdgeITClear) refers to main.o(i.assert_failed) for assert_failed
    m1130_gpio.o(i.GPIO_EdgeITEnable) refers to main.o(i.assert_failed) for assert_failed
    m1130_gpio.o(i.GPIO_GetMaskITStatus) refers to main.o(i.assert_failed) for assert_failed
    m1130_gpio.o(i.GPIO_GetOriginalITStatus) refers to main.o(i.assert_failed) for assert_failed
    m1130_gpio.o(i.GPIO_Init) refers to main.o(i.assert_failed) for assert_failed
    m1130_gpio.o(i.GPIO_LevelITEnable) refers to main.o(i.assert_failed) for assert_failed
==============================================================================

Removing Unused input sections from the image.

    Removing system_m1130.o(.rev16_text), (4 bytes).
    Removing system_m1130.o(.revsh_text), (4 bytes).
    Removing startup_m1130.o(HEAP), (128 bytes).
    Removing m1130_gpio.o(.rev16_text), (4 bytes).
    Removing m1130_gpio.o(.revsh_text), (4 bytes).
    Removing m1130_gpio.o(i.GPIO_DataMask), (148 bytes).
    Removing m1130_gpio.o(i.GPIO_DataUnmask), (148 bytes).
    Removing m1130_gpio.o(i.GPIO_EdgeITClear), (124 bytes).
    Removing m1130_gpio.o(i.GPIO_EdgeITEnable), (176 bytes).
    Removing m1130_gpio.o(i.GPIO_GetMaskITStatus), (308 bytes).
    Removing m1130_gpio.o(i.GPIO_GetOriginalITStatus), (308 bytes).
    Removing m1130_gpio.o(i.GPIO_Init), (380 bytes).
    Removing m1130_gpio.o(i.GPIO_LevelITEnable), (164 bytes).
    Removing m1130_gpio.o(i.GPIO_MaskIT), (124 bytes).
    Removing m1130_gpio.o(i.GPIO_PinLockConfig), (148 bytes).
    Removing m1130_gpio.o(i.GPIO_ReadInputData), (104 bytes).
    Removing m1130_gpio.o(i.GPIO_ReadInputDataBit), (308 bytes).
    Removing m1130_gpio.o(i.GPIO_ReadOutputData), (104 bytes).
==============================================================================

Image Symbol Table

    Local Symbols

    Symbol Name                              Value     Ov Type        Size  Object(Section)

    RESET                                    0x00000000   Section      172  startup_m1130.o(RESET)
    ../clib/microlib/division.c              0x00000000   Number         0  uidiv.o ABSOLUTE
    ../clib/microlib/division.c              0x00000000   Number         0  idiv.o ABSOLUTE
    ../clib/microlib/division.c              0x00000000   Number         0  uldiv.o ABSOLUTE
    ../clib/microlib/init/entry.s            0x00000000   Number         0  entry9a.o ABSOLUTE
    ../clib/microlib/init/entry.s            0x00000000   Number         0  entry.o ABSOLUTE
    ../clib/microlib/init/entry.s            0x00000000   Number         0  entry2.o ABSOLUTE
    ../clib/microlib/init/entry.s            0x00000000   Number         0  entry5.o ABSOLUTE
    ../clib/microlib/init/entry.s            0x00000000   Number         0  entry7a.o ABSOLUTE
    ../clib/microlib/init/entry.s            0x00000000   Number         0  entry9b.o ABSOLUTE
    ../clib/microlib/init/entry.s            0x00000000   Number         0  entry11b.o ABSOLUTE
    ../clib/microlib/init/entry.s            0x00000000   Number         0  entry7b.o ABSOLUTE
    ../clib/microlib/init/entry.s            0x00000000   Number         0  entry11a.o ABSOLUTE
    ../clib/microlib/init/entry.s            0x00000000   Number         0  entry10b.o ABSOLUTE
    ../clib/microlib/init/entry.s            0x00000000   Number         0  entry8a.o ABSOLUTE
    ../clib/microlib/init/entry.s            0x00000000   Number         0  entry10a.o ABSOLUTE
    ../clib/microlib/init/entry.s            0x00000000   Number         0  entry8b.o ABSOLUTE
    ../clib/microlib/longlong.c              0x00000000   Number         0  llsshr.o ABSOLUTE
    ../clib/microlib/longlong.c              0x00000000   Number         0  llushr.o ABSOLUTE
    ../clib/microlib/longlong.c              0x00000000   Number         0  llshl.o ABSOLUTE
    ../clib/microlib/printf/printf.c         0x00000000   Number         0  printf4.o ABSOLUTE
    ../clib/microlib/printf/printf.c         0x00000000   Number         0  printf3.o ABSOLUTE
    ../clib/microlib/printf/printf.c         0x00000000   Number         0  printf2.o ABSOLUTE
    ../clib/microlib/printf/printf.c         0x00000000   Number         0  printf0.o ABSOLUTE
    ../clib/microlib/printf/printf.c         0x00000000   Number         0  printfb.o ABSOLUTE
    ../clib/microlib/printf/printf.c         0x00000000   Number         0  printf1.o ABSOLUTE
    ../clib/microlib/printf/printf.c         0x00000000   Number         0  printfa.o ABSOLUTE
    ../clib/microlib/printf/printf.c         0x00000000   Number         0  printf8.o ABSOLUTE
    ../clib/microlib/printf/printf.c         0x00000000   Number         0  printf7.o ABSOLUTE
    ../clib/microlib/printf/printf.c         0x00000000   Number         0  printf6.o ABSOLUTE
    ../clib/microlib/printf/printf.c         0x00000000   Number         0  printf5.o ABSOLUTE
    ../clib/microlib/printf/stubs.s          0x00000000   Number         0  stubs.o ABSOLUTE
    ../clib/microlib/stdio/streams.c         0x00000000   Number         0  stdout.o ABSOLUTE
    ../clib/microlib/stubs.s                 0x00000000   Number         0  iusefp.o ABSOLUTE
    ../fplib/microlib/fpadd.c                0x00000000   Number         0  dadd.o ABSOLUTE
    ../fplib/microlib/fpdiv.c                0x00000000   Number         0  ddiv.o ABSOLUTE
    ../fplib/microlib/fpepilogue.c           0x00000000   Number         0  depilogue.o ABSOLUTE
    ../fplib/microlib/fpfix.c                0x00000000   Number         0  dfixul.o ABSOLUTE
    ../fplib/microlib/fpmul.c                0x00000000   Number         0  dmul.o ABSOLUTE
    ..\..\..\Libraries\CMSIS\Device\ALPOS\M1130\Source\Templates\arm\startup_m1130.s 0x00000000   Number         0  startup_m1130.o ABSOLUTE
    ..\..\..\Libraries\CMSIS\Device\ALPOS\M1130\Source\Templates\system_m1130.c 0x00000000   Number         0  system_m1130.o ABSOLUTE
    ..\..\..\Libraries\M1130_StdPeriph_Driver\src\m1130_eval_qspi.c 0x00000000   Number         0  m1130_eval_qspi.o ABSOLUTE
    ..\..\..\Libraries\M1130_StdPeriph_Driver\src\m1130_gpio.c 0x00000000   Number         0  m1130_gpio.o ABSOLUTE
    ..\..\..\Libraries\M1130_StdPeriph_Driver\src\m1130_otp.c 0x00000000   Number         0  m1130_otp.o ABSOLUTE
    ..\..\..\Libraries\M1130_StdPeriph_Driver\src\m1130_qspi.c 0x00000000   Number         0  m1130_qspi.o ABSOLUTE
    ..\..\..\Libraries\M1130_StdPeriph_Driver\src\m1130_rcc.c 0x00000000   Number         0  m1130_rcc.o ABSOLUTE
    ..\..\..\Libraries\M1130_StdPeriph_Driver\src\m1130_usart.c 0x00000000   Number         0  m1130_usart.o ABSOLUTE
    ..\..\..\Libraries\M1130_StdPeriph_Driver\src\misc.c 0x00000000   Number         0  misc.o ABSOLUTE
    ..\\..\\..\\Libraries\\CMSIS\\Device\\ALPOS\\M1130\\Source\\Templates\\system_m1130.c 0x00000000   Number         0  system_m1130.o ABSOLUTE
    ..\\..\\..\\Libraries\\M1130_StdPeriph_Driver\\src\\m1130_eval_qspi.c 0x00000000   Number         0  m1130_eval_qspi.o ABSOLUTE
    ..\\..\\..\\Libraries\\M1130_StdPeriph_Driver\\src\\m1130_gpio.c 0x00000000   Number         0  m1130_gpio.o ABSOLUTE
    ..\\..\\..\\Libraries\\M1130_StdPeriph_Driver\\src\\m1130_otp.c 0x00000000   Number         0  m1130_otp.o ABSOLUTE
    ..\\..\\..\\Libraries\\M1130_StdPeriph_Driver\\src\\m1130_qspi.c 0x00000000   Number         0  m1130_qspi.o ABSOLUTE
    ..\\..\\..\\Libraries\\M1130_StdPeriph_Driver\\src\\m1130_rcc.c 0x00000000   Number         0  m1130_rcc.o ABSOLUTE
    ..\\..\\..\\Libraries\\M1130_StdPeriph_Driver\\src\\m1130_usart.c 0x00000000   Number         0  m1130_usart.o ABSOLUTE
    ..\\..\\..\\Libraries\\M1130_StdPeriph_Driver\\src\\misc.c 0x00000000   Number         0  misc.o ABSOLUTE
    ..\\src\\m1130_it.c                      0x00000000   Number         0  m1130_it.o ABSOLUTE
    ..\\src\\main.c                          0x00000000   Number         0  main.o ABSOLUTE
    ..\src\m1130_it.c                        0x00000000   Number         0  m1130_it.o ABSOLUTE
    ..\src\main.c                            0x00000000   Number         0  main.o ABSOLUTE
    cdrcmple.s                               0x00000000   Number         0  cdrcmple.o ABSOLUTE
    dc.s                                     0x00000000   Number         0  dc.o ABSOLUTE
    handlers.s                               0x00000000   Number         0  handlers.o ABSOLUTE
    init.s                                   0x00000000   Number         0  init.o ABSOLUTE
    .ARM.Collect$$$$00000000                 0x000000ac   Section        0  entry.o(.ARM.Collect$$$$00000000)
    .ARM.Collect$$$$00000001                 0x000000ac   Section        4  entry2.o(.ARM.Collect$$$$00000001)
    .ARM.Collect$$$$00000004                 0x000000b0   Section        4  entry5.o(.ARM.Collect$$$$00000004)
    .ARM.Collect$$$$00000008                 0x000000b4   Section        0  entry7b.o(.ARM.Collect$$$$00000008)
    .ARM.Collect$$$$0000000A                 0x000000b4   Section        0  entry8b.o(.ARM.Collect$$$$0000000A)
    .ARM.Collect$$$$0000000B                 0x000000b4   Section        8  entry9a.o(.ARM.Collect$$$$0000000B)
    .ARM.Collect$$$$0000000D                 0x000000bc   Section        0  entry10a.o(.ARM.Collect$$$$0000000D)
    .ARM.Collect$$$$0000000F                 0x000000bc   Section        0  entry11a.o(.ARM.Collect$$$$0000000F)
    .ARM.Collect$$$$00002712                 0x000000bc   Section        4  entry2.o(.ARM.Collect$$$$00002712)
    __lit__00000000                          0x000000bc   Data           4  entry2.o(.ARM.Collect$$$$00002712)
    .text                                    0x000000c0   Section       28  startup_m1130.o(.text)
    .text                                    0x000000dc   Section        0  uidiv.o(.text)
    .text                                    0x00000108   Section       36  init.o(.text)
    i.GPIO_SetBits                           0x0000012c   Section        0  m1130_gpio.o(i.GPIO_SetBits)
    i.GPIO_SetPinDir                         0x000001ac   Section        0  m1130_gpio.o(i.GPIO_SetPinDir)
    i.GPIO_SetPinMux                         0x00000268   Section        0  m1130_gpio.o(i.GPIO_SetPinMux)
    i.HardFault_Handler                      0x00000374   Section        0  m1130_it.o(i.HardFault_Handler)
    i.NMI_Handler                            0x00000378   Section        0  m1130_it.o(i.NMI_Handler)
    i.OTP_ReadADJ                            0x0000037c   Section        0  m1130_otp.o(i.OTP_ReadADJ)
    OTP_ReadADJ                              0x0000037d   Thumb Code    32  m1130_otp.o(i.OTP_ReadADJ)
    i.OTP_ReadADJ_10K                        0x000003a4   Section        0  m1130_otp.o(i.OTP_ReadADJ_10K)
    i.OTP_ReadADJ_12M                        0x000003b2   Section        0  m1130_otp.o(i.OTP_ReadADJ_12M)
    i.OTP_ReadADJ_LDO                        0x000003be   Section        0  m1130_otp.o(i.OTP_ReadADJ_LDO)
    i.OTP_ReadADJ_RTC_CAP                    0x000003cc   Section        0  m1130_otp.o(i.OTP_ReadADJ_RTC_CAP)
    i.OTP_Reset                              0x000003da   Section        0  m1130_otp.o(i.OTP_Reset)
    i.PendSV_Handler                         0x000003e6   Section        0  m1130_it.o(i.PendSV_Handler)
    i.QSPI_CS_High                           0x000003e8   Section        0  m1130_qspi.o(i.QSPI_CS_High)
    i.QSPI_CS_Low                            0x000003f4   Section        0  m1130_qspi.o(i.QSPI_CS_Low)
    i.QSPI_DMACmd                            0x00000400   Section        0  m1130_qspi.o(i.QSPI_DMACmd)
    i.QSPI_DataConfig                        0x00000412   Section        0  m1130_qspi.o(i.QSPI_DataConfig)
    i.QSPI_GetFlagStatus                     0x0000044a   Section        0  m1130_qspi.o(i.QSPI_GetFlagStatus)
    i.QSPI_HwInit                            0x00000460   Section        0  m1130_qspi.o(i.QSPI_HwInit)
    i.QSPI_ModeSet                           0x000004b8   Section        0  m1130_qspi.o(i.QSPI_ModeSet)
    i.QSPI_SetPowerState                     0x000004e4   Section        0  m1130_qspi.o(i.QSPI_SetPowerState)
    i.RCC_ResetAHBCLK                        0x00000538   Section        0  m1130_rcc.o(i.RCC_ResetAHBCLK)
    i.RCC_SetAHBCLK                          0x00000556   Section        0  m1130_rcc.o(i.RCC_SetAHBCLK)
    i.RCC_SetPRESETCTRL                      0x0000056a   Section        0  m1130_rcc.o(i.RCC_SetPRESETCTRL)
    i.SVC_Handler                            0x0000057e   Section        0  m1130_it.o(i.SVC_Handler)
    i.SysTick_Handler                        0x00000580   Section        0  m1130_it.o(i.SysTick_Handler)
    i.SystemADJInit                          0x00000584   Section        0  main.o(i.SystemADJInit)
    i.SystemInit                             0x00000600   Section        0  system_m1130.o(i.SystemInit)
    i.UART_GetFlagStatus                     0x0000066c   Section        0  m1130_usart.o(i.UART_GetFlagStatus)
    i.UART_SendData                          0x00000750   Section        0  m1130_usart.o(i.UART_SendData)
    i.__0printf$3                            0x000007b8   Section        0  printf3.o(i.__0printf$3)
    i.__scatterload_copy                     0x000007d8   Section       14  handlers.o(i.__scatterload_copy)
    i.__scatterload_null                     0x000007e6   Section        2  handlers.o(i.__scatterload_null)
    i.__scatterload_zeroinit                 0x000007e8   Section       14  handlers.o(i.__scatterload_zeroinit)
    i._printf_core                           0x000007f8   Section        0  printf3.o(i._printf_core)
    _printf_core                             0x000007f9   Thumb Code   456  printf3.o(i._printf_core)
    i.assert_failed                          0x000009c4   Section        0  main.o(i.assert_failed)
    i.checkCapDly                            0x00000a08   Section        0  main.o(i.checkCapDly)
    i.delay                                  0x00000a70   Section        0  system_m1130.o(i.delay)
    i.fputc                                  0x00000a80   Section        0  main.o(i.fputc)
    i.main                                   0x00000aa8   Section        0  main.o(i.main)
    i.qspi_delay                             0x00000aec   Section        0  m1130_eval_qspi.o(i.qspi_delay)
    qspi_delay                               0x00000aed   Thumb Code    18  m1130_eval_qspi.o(i.qspi_delay)
    i.qspi_flash_enableQE                    0x00000b00   Section        0  m1130_eval_qspi.o(i.qspi_flash_enableQE)
    i.qspi_flash_read                        0x00000b78   Section        0  m1130_eval_qspi.o(i.qspi_flash_read)
    i.qspi_flash_read_buf                    0x00000bb2   Section        0  m1130_eval_qspi.o(i.qspi_flash_read_buf)
    qspi_flash_read_buf                      0x00000bb3   Thumb Code    68  m1130_eval_qspi.o(i.qspi_flash_read_buf)
    i.qspi_flash_read_page                   0x00000bf8   Section        0  m1130_eval_qspi.o(i.qspi_flash_read_page)
    i.qspi_flash_read_status1                0x00000c44   Section        0  m1130_eval_qspi.o(i.qspi_flash_read_status1)
    i.qspi_flash_read_status2                0x00000c74   Section        0  m1130_eval_qspi.o(i.qspi_flash_read_status2)
    i.qspi_flash_send_addr                   0x00000ca4   Section        0  m1130_eval_qspi.o(i.qspi_flash_send_addr)
    qspi_flash_send_addr                     0x00000ca5   Thumb Code    70  m1130_eval_qspi.o(i.qspi_flash_send_addr)
    i.qspi_flash_send_cmd                    0x00000cf4   Section        0  m1130_eval_qspi.o(i.qspi_flash_send_cmd)
    qspi_flash_send_cmd                      0x00000cf5   Thumb Code    22  m1130_eval_qspi.o(i.qspi_flash_send_cmd)
    i.qspi_flash_write_buf                   0x00000d10   Section        0  m1130_eval_qspi.o(i.qspi_flash_write_buf)
    qspi_flash_write_buf                     0x00000d11   Thumb Code    68  m1130_eval_qspi.o(i.qspi_flash_write_buf)
    i.qspi_flash_write_enable                0x00000d54   Section        0  m1130_eval_qspi.o(i.qspi_flash_write_enable)
    i.quad_spi_flash_init                    0x00000d7c   Section        0  m1130_eval_qspi.o(i.quad_spi_flash_init)
    i.readReg                                0x00000e9c   Section        0  m1130_otp.o(i.readReg)
    i.startXIP                               0x00000ea2   Section        0  main.o(i.startXIP)
    i.start_quad_spi_dma_rx                  0x00000eb4   Section        0  m1130_eval_qspi.o(i.start_quad_spi_dma_rx)
    start_quad_spi_dma_rx                    0x00000eb5   Thumb Code   230  m1130_eval_qspi.o(i.start_quad_spi_dma_rx)
    i.start_quad_spi_dma_tx                  0x00000fb0   Section        0  m1130_eval_qspi.o(i.start_quad_spi_dma_tx)
    start_quad_spi_dma_tx                    0x00000fb1   Thumb Code   168  m1130_eval_qspi.o(i.start_quad_spi_dma_tx)
    i.switchQuad                             0x0000106c   Section        0  main.o(i.switchQuad)
    .data                                    0x00007800   Section       16  m1130_eval_qspi.o(.data)
    qspi_cmd                                 0x00007804   Data           4  m1130_eval_qspi.o(.data)
    qspi_addr                                0x00007808   Data           4  m1130_eval_qspi.o(.data)
    qspi_flash_status                        0x0000780c   Data           4  m1130_eval_qspi.o(.data)
    .data                                    0x00007810   Section        4  stdout.o(.data)
    STACK                                    0x00007818   Section      768  startup_m1130.o(STACK)

    Global Symbols

    Symbol Name                              Value     Ov Type        Size  Object(Section)

    BuildAttributes$$THM_ISAv3M$S$PE$A:L22$X:L11$S22$IEEE1$IW$USESV6$~STKCKD$USESV7$~SHL$OSPACE$ROPI$EBA8$MICROLIB$REQ8$PRES8$EABIv2 0x00000000   Number         0  anon$$obj.o ABSOLUTE
    __ARM_use_no_argv                        0x00000000   Number         0  main.o ABSOLUTE
    __Vectors                                0x00000000   Data           4  startup_m1130.o(RESET)
    _printf_a                                0x00000000   Number         0  stubs.o ABSOLUTE
    _printf_c                                0x00000000   Number         0  stubs.o ABSOLUTE
    _printf_charcount                        0x00000000   Number         0  stubs.o ABSOLUTE
    _printf_d                                0x00000000   Number         0  stubs.o ABSOLUTE
    _printf_e                                0x00000000   Number         0  stubs.o ABSOLUTE
    _printf_f                                0x00000000   Number         0  stubs.o ABSOLUTE
    _printf_flags                            0x00000000   Number         0  stubs.o ABSOLUTE
    _printf_fp_dec                           0x00000000   Number         0  stubs.o ABSOLUTE
    _printf_fp_hex                           0x00000000   Number         0  stubs.o ABSOLUTE
    _printf_g                                0x00000000   Number         0  stubs.o ABSOLUTE
    _printf_i                                0x00000000   Number         0  stubs.o ABSOLUTE
    _printf_int_dec                          0x00000000   Number         0  stubs.o ABSOLUTE
    _printf_l                                0x00000000   Number         0  stubs.o ABSOLUTE
    _printf_lc                               0x00000000   Number         0  stubs.o ABSOLUTE
    _printf_ll                               0x00000000   Number         0  stubs.o ABSOLUTE
    _printf_lld                              0x00000000   Number         0  stubs.o ABSOLUTE
    _printf_lli                              0x00000000   Number         0  stubs.o ABSOLUTE
    _printf_llo                              0x00000000   Number         0  stubs.o ABSOLUTE
    _printf_llu                              0x00000000   Number         0  stubs.o ABSOLUTE
    _printf_llx                              0x00000000   Number         0  stubs.o ABSOLUTE
    _printf_longlong_dec                     0x00000000   Number         0  stubs.o ABSOLUTE
    _printf_longlong_hex                     0x00000000   Number         0  stubs.o ABSOLUTE
    _printf_longlong_oct                     0x00000000   Number         0  stubs.o ABSOLUTE
    _printf_ls                               0x00000000   Number         0  stubs.o ABSOLUTE
    _printf_mbtowc                           0x00000000   Number         0  stubs.o ABSOLUTE
    _printf_n                                0x00000000   Number         0  stubs.o ABSOLUTE
    _printf_o                                0x00000000   Number         0  stubs.o ABSOLUTE
    _printf_p                                0x00000000   Number         0  stubs.o ABSOLUTE
    _printf_percent                          0x00000000   Number         0  stubs.o ABSOLUTE
    _printf_pre_padding                      0x00000000   Number         0  stubs.o ABSOLUTE
    _printf_return_value                     0x00000000   Number         0  stubs.o ABSOLUTE
    _printf_s                                0x00000000   Number         0  stubs.o ABSOLUTE
    _printf_sizespec                         0x00000000   Number         0  stubs.o ABSOLUTE
    _printf_str                              0x00000000   Number         0  stubs.o ABSOLUTE
    _printf_truncate_signed                  0x00000000   Number         0  stubs.o ABSOLUTE
    _printf_truncate_unsigned                0x00000000   Number         0  stubs.o ABSOLUTE
    _printf_u                                0x00000000   Number         0  stubs.o ABSOLUTE
    _printf_wc                               0x00000000   Number         0  stubs.o ABSOLUTE
    _printf_wctomb                           0x00000000   Number         0  stubs.o ABSOLUTE
    _printf_widthprec                        0x00000000   Number         0  stubs.o ABSOLUTE
    _printf_x                                0x00000000   Number         0  stubs.o ABSOLUTE
    __cpp_initialize__aeabi_                  - Undefined Weak Reference
    __cxa_finalize                            - Undefined Weak Reference
    __decompress                              - Undefined Weak Reference
    _clock_init                               - Undefined Weak Reference
    _microlib_exit                            - Undefined Weak Reference
    __Vectors_End                            0x000000ac   Data           0  startup_m1130.o(RESET)
    __Vectors_Size                           0x000000ac   Number         0  startup_m1130.o ABSOLUTE
    __main                                   0x000000ad   Thumb Code     0  entry.o(.ARM.Collect$$$$00000000)
    _main_stk                                0x000000ad   Thumb Code     0  entry2.o(.ARM.Collect$$$$00000001)
    _main_scatterload                        0x000000b1   Thumb Code     0  entry5.o(.ARM.Collect$$$$00000004)
    __main_after_scatterload                 0x000000b5   Thumb Code     0  entry5.o(.ARM.Collect$$$$00000004)
    _main_clock                              0x000000b5   Thumb Code     0  entry7b.o(.ARM.Collect$$$$00000008)
    _main_cpp_init                           0x000000b5   Thumb Code     0  entry8b.o(.ARM.Collect$$$$0000000A)
    _main_init                               0x000000b5   Thumb Code     0  entry9a.o(.ARM.Collect$$$$0000000B)
    __rt_final_cpp                           0x000000bd   Thumb Code     0  entry10a.o(.ARM.Collect$$$$0000000D)
    __rt_final_exit                          0x000000bd   Thumb Code     0  entry11a.o(.ARM.Collect$$$$0000000F)
    Reset_Handler                            0x000000c1   Thumb Code     8  startup_m1130.o(.text)
    ADC0_IRQHandler                          0x000000d3   Thumb Code     0  startup_m1130.o(.text)
    BOD_IRQHandler                           0x000000d3   Thumb Code     0  startup_m1130.o(.text)
    BOR_IRQHandler                           0x000000d3   Thumb Code     0  startup_m1130.o(.text)
    DMA_IRQHandler                           0x000000d3   Thumb Code     0  startup_m1130.o(.text)
    GPIO0_IRQHandler                         0x000000d3   Thumb Code     0  startup_m1130.o(.text)
    GPIO1_IRQHandler                         0x000000d3   Thumb Code     0  startup_m1130.o(.text)
    I2C0_IRQHandler                          0x000000d3   Thumb Code     0  startup_m1130.o(.text)
    LED_IRQHandler                           0x000000d3   Thumb Code     0  startup_m1130.o(.text)
    QSPI0_IRQHandler                         0x000000d3   Thumb Code     0  startup_m1130.o(.text)
    QSPI1_IRQHandler                         0x000000d3   Thumb Code     0  startup_m1130.o(.text)
    RTC_IRQHandler                           0x000000d3   Thumb Code     0  startup_m1130.o(.text)
    TIM15_IRQHandler                         0x000000d3   Thumb Code     0  startup_m1130.o(.text)
    TIM16_IRQHandler                         0x000000d3   Thumb Code     0  startup_m1130.o(.text)
    TIM17_IRQHandler                         0x000000d3   Thumb Code     0  startup_m1130.o(.text)
    TIM1_IRQHandler                          0x000000d3   Thumb Code     0  startup_m1130.o(.text)
    TIM4_IRQHandler                          0x000000d3   Thumb Code     0  startup_m1130.o(.text)
    UART0_IRQHandler                         0x000000d3   Thumb Code     0  startup_m1130.o(.text)
    UART1_IRQHandler                         0x000000d3   Thumb Code     0  startup_m1130.o(.text)
    USB0_DMA_IRQHandler                      0x000000d3   Thumb Code     0  startup_m1130.o(.text)
    USB0_IRQHandler                          0x000000d3   Thumb Code     0  startup_m1130.o(.text)
    WKT_IRQHandler                           0x000000d3   Thumb Code     0  startup_m1130.o(.text)
    __aeabi_uidiv                            0x000000dd   Thumb Code     0  uidiv.o(.text)
    __aeabi_uidivmod                         0x000000dd   Thumb Code    44  uidiv.o(.text)
    __scatterload                            0x00000109   Thumb Code    28  init.o(.text)
    __scatterload_rt2                        0x00000109   Thumb Code     0  init.o(.text)
    GPIO_SetBits                             0x0000012d   Thumb Code    54  m1130_gpio.o(i.GPIO_SetBits)
    GPIO_SetPinDir                           0x000001ad   Thumb Code   112  m1130_gpio.o(i.GPIO_SetPinDir)
    GPIO_SetPinMux                           0x00000269   Thumb Code   196  m1130_gpio.o(i.GPIO_SetPinMux)
    HardFault_Handler                        0x00000375   Thumb Code     4  m1130_it.o(i.HardFault_Handler)
    NMI_Handler                              0x00000379   Thumb Code     2  m1130_it.o(i.NMI_Handler)
    OTP_ReadADJ_10K                          0x000003a5   Thumb Code    14  m1130_otp.o(i.OTP_ReadADJ_10K)
    OTP_ReadADJ_12M                          0x000003b3   Thumb Code    12  m1130_otp.o(i.OTP_ReadADJ_12M)
    OTP_ReadADJ_LDO                          0x000003bf   Thumb Code    14  m1130_otp.o(i.OTP_ReadADJ_LDO)
    OTP_ReadADJ_RTC_CAP                      0x000003cd   Thumb Code    14  m1130_otp.o(i.OTP_ReadADJ_RTC_CAP)
    OTP_Reset                                0x000003db   Thumb Code    12  m1130_otp.o(i.OTP_Reset)
    PendSV_Handler                           0x000003e7   Thumb Code     2  m1130_it.o(i.PendSV_Handler)
    QSPI_CS_High                             0x000003e9   Thumb Code    12  m1130_qspi.o(i.QSPI_CS_High)
    QSPI_CS_Low                              0x000003f5   Thumb Code    12  m1130_qspi.o(i.QSPI_CS_Low)
    QSPI_DMACmd                              0x00000401   Thumb Code    18  m1130_qspi.o(i.QSPI_DMACmd)
    QSPI_DataConfig                          0x00000413   Thumb Code    56  m1130_qspi.o(i.QSPI_DataConfig)
    QSPI_GetFlagStatus                       0x0000044b   Thumb Code    20  m1130_qspi.o(i.QSPI_GetFlagStatus)
    QSPI_HwInit                              0x00000461   Thumb Code    82  m1130_qspi.o(i.QSPI_HwInit)
    QSPI_ModeSet                             0x000004b9   Thumb Code    42  m1130_qspi.o(i.QSPI_ModeSet)
    QSPI_SetPowerState                       0x000004e5   Thumb Code    74  m1130_qspi.o(i.QSPI_SetPowerState)
    RCC_ResetAHBCLK                          0x00000539   Thumb Code    30  m1130_rcc.o(i.RCC_ResetAHBCLK)
    RCC_SetAHBCLK                            0x00000557   Thumb Code    20  m1130_rcc.o(i.RCC_SetAHBCLK)
    RCC_SetPRESETCTRL                        0x0000056b   Thumb Code    20  m1130_rcc.o(i.RCC_SetPRESETCTRL)
    SVC_Handler                              0x0000057f   Thumb Code     2  m1130_it.o(i.SVC_Handler)
    SysTick_Handler                          0x00000581   Thumb Code     2  m1130_it.o(i.SysTick_Handler)
    SystemADJInit                            0x00000585   Thumb Code   120  main.o(i.SystemADJInit)
    SystemInit                               0x00000601   Thumb Code    90  system_m1130.o(i.SystemInit)
    UART_GetFlagStatus                       0x0000066d   Thumb Code   154  m1130_usart.o(i.UART_GetFlagStatus)
    UART_SendData                            0x00000751   Thumb Code    34  m1130_usart.o(i.UART_SendData)
    __0printf$3                              0x000007b9   Thumb Code    24  printf3.o(i.__0printf$3)
    __1printf$3                              0x000007b9   Thumb Code     0  printf3.o(i.__0printf$3)
    __2printf                                0x000007b9   Thumb Code     0  printf3.o(i.__0printf$3)
    __scatterload_copy                       0x000007d9   Thumb Code    14  handlers.o(i.__scatterload_copy)
    __scatterload_null                       0x000007e7   Thumb Code     2  handlers.o(i.__scatterload_null)
    __scatterload_zeroinit                   0x000007e9   Thumb Code    14  handlers.o(i.__scatterload_zeroinit)
    assert_failed                            0x000009c5   Thumb Code    18  main.o(i.assert_failed)
    checkCapDly                              0x00000a09   Thumb Code    94  main.o(i.checkCapDly)
    delay                                    0x00000a71   Thumb Code    14  system_m1130.o(i.delay)
    fputc                                    0x00000a81   Thumb Code    34  main.o(i.fputc)
    main                                     0x00000aa9   Thumb Code    58  main.o(i.main)
    qspi_flash_enableQE                      0x00000b01   Thumb Code   116  m1130_eval_qspi.o(i.qspi_flash_enableQE)
    qspi_flash_read                          0x00000b79   Thumb Code    58  m1130_eval_qspi.o(i.qspi_flash_read)
    qspi_flash_read_page                     0x00000bf9   Thumb Code    70  m1130_eval_qspi.o(i.qspi_flash_read_page)
    qspi_flash_read_status1                  0x00000c45   Thumb Code    44  m1130_eval_qspi.o(i.qspi_flash_read_status1)
    qspi_flash_read_status2                  0x00000c75   Thumb Code    44  m1130_eval_qspi.o(i.qspi_flash_read_status2)
    qspi_flash_write_enable                  0x00000d55   Thumb Code    40  m1130_eval_qspi.o(i.qspi_flash_write_enable)
    quad_spi_flash_init                      0x00000d7d   Thumb Code   268  m1130_eval_qspi.o(i.quad_spi_flash_init)
    readReg                                  0x00000e9d   Thumb Code     6  m1130_otp.o(i.readReg)
    startXIP                                 0x00000ea3   Thumb Code    16  main.o(i.startXIP)
    switchQuad                               0x0000106d   Thumb Code    94  main.o(i.switchQuad)
    Region$$Table$$Base                      0x000010d4   Number         0  anon$$obj.o(Region$$Table)
    Region$$Table$$Limit                     0x000010f4   Number         0  anon$$obj.o(Region$$Table)
    _4ByteAddrMode                           0x00007800   Data           1  m1130_eval_qspi.o(.data)
    __stdout                                 0x00007810   Data           4  stdout.o(.data)
    __initial_sp                             0x00007b18   Data           0  startup_m1130.o(STACK)



==============================================================================

Memory Map of the image

  Image Entry point : 0x000000ad

  Load Region LR_IROM1 (Base: 0x00000000, Size: 0x00001108, Max: 0x00007800, ABSOLUTE)

    Execution Region ER_IROM1 (Exec base: 0x00000000, Load base: 0x00000000, Size: 0x000010f4, Max: 0x00007800, ABSOLUTE)

    Exec Addr    Load Addr    Size         Type   Attr      Idx    E Section Name        Object

    0x00000000   0x00000000   0x000000ac   Data   RO           66    RESET               startup_m1130.o
    0x000000ac   0x000000ac   0x00000000   Code   RO         1001  * .ARM.Collect$$$$00000000  mc_p.l(entry.o)
    0x000000ac   0x000000ac   0x00000004   Code   RO         1269    .ARM.Collect$$$$00000001  mc_p.l(entry2.o)
    0x000000b0   0x000000b0   0x00000004   Code   RO         1272    .ARM.Collect$$$$00000004  mc_p.l(entry5.o)
    0x000000b4   0x000000b4   0x00000000   Code   RO         1274    .ARM.Collect$$$$00000008  mc_p.l(entry7b.o)
    0x000000b4   0x000000b4   0x00000000   Code   RO         1276    .ARM.Collect$$$$0000000A  mc_p.l(entry8b.o)
    0x000000b4   0x000000b4   0x00000008   Code   RO         1277    .ARM.Collect$$$$0000000B  mc_p.l(entry9a.o)
    0x000000bc   0x000000bc   0x00000000   Code   RO         1279    .ARM.Collect$$$$0000000D  mc_p.l(entry10a.o)
    0x000000bc   0x000000bc   0x00000000   Code   RO         1281    .ARM.Collect$$$$0000000F  mc_p.l(entry11a.o)
    0x000000bc   0x000000bc   0x00000004   Code   RO         1270    .ARM.Collect$$$$00002712  mc_p.l(entry2.o)
    0x000000c0   0x000000c0   0x0000001c   Code   RO           67    .text               startup_m1130.o
    0x000000dc   0x000000dc   0x0000002c   Code   RO         1004    .text               mc_p.l(uidiv.o)
    0x00000108   0x00000108   0x00000024   Code   RO         1297    .text               mc_p.l(init.o)
    0x0000012c   0x0000012c   0x00000080   Code   RO           89    i.GPIO_SetBits      m1130_gpio.o
    0x000001ac   0x000001ac   0x000000bc   Code   RO           90    i.GPIO_SetPinDir    m1130_gpio.o
    0x00000268   0x00000268   0x0000010c   Code   RO           91    i.GPIO_SetPinMux    m1130_gpio.o
    0x00000374   0x00000374   0x00000004   Code   RO          856    i.HardFault_Handler  m1130_it.o
    0x00000378   0x00000378   0x00000002   Code   RO          858    i.NMI_Handler       m1130_it.o
    0x0000037a   0x0000037a   0x00000002   PAD
    0x0000037c   0x0000037c   0x00000028   Code   RO          784    i.OTP_ReadADJ       m1130_otp.o
    0x000003a4   0x000003a4   0x0000000e   Code   RO          785    i.OTP_ReadADJ_10K   m1130_otp.o
    0x000003b2   0x000003b2   0x0000000c   Code   RO          786    i.OTP_ReadADJ_12M   m1130_otp.o
    0x000003be   0x000003be   0x0000000e   Code   RO          787    i.OTP_ReadADJ_LDO   m1130_otp.o
    0x000003cc   0x000003cc   0x0000000e   Code   RO          788    i.OTP_ReadADJ_RTC_CAP  m1130_otp.o
    0x000003da   0x000003da   0x0000000c   Code   RO          790    i.OTP_Reset         m1130_otp.o
    0x000003e6   0x000003e6   0x00000002   Code   RO          859    i.PendSV_Handler    m1130_it.o
    0x000003e8   0x000003e8   0x0000000c   Code   RO          576    i.QSPI_CS_High      m1130_qspi.o
    0x000003f4   0x000003f4   0x0000000c   Code   RO          577    i.QSPI_CS_Low       m1130_qspi.o
    0x00000400   0x00000400   0x00000012   Code   RO          578    i.QSPI_DMACmd       m1130_qspi.o
    0x00000412   0x00000412   0x00000038   Code   RO          579    i.QSPI_DataConfig   m1130_qspi.o
    0x0000044a   0x0000044a   0x00000014   Code   RO          580    i.QSPI_GetFlagStatus  m1130_qspi.o
    0x0000045e   0x0000045e   0x00000002   PAD
    0x00000460   0x00000460   0x00000058   Code   RO          581    i.QSPI_HwInit       m1130_qspi.o
    0x000004b8   0x000004b8   0x0000002a   Code   RO          582    i.QSPI_ModeSet      m1130_qspi.o
    0x000004e2   0x000004e2   0x00000002   PAD
    0x000004e4   0x000004e4   0x00000054   Code   RO          584    i.QSPI_SetPowerState  m1130_qspi.o
    0x00000538   0x00000538   0x0000001e   Code   RO          245    i.RCC_ResetAHBCLK   m1130_rcc.o
    0x00000556   0x00000556   0x00000014   Code   RO          248    i.RCC_SetAHBCLK     m1130_rcc.o
    0x0000056a   0x0000056a   0x00000014   Code   RO          249    i.RCC_SetPRESETCTRL  m1130_rcc.o
    0x0000057e   0x0000057e   0x00000002   Code   RO          860    i.SVC_Handler       m1130_it.o
    0x00000580   0x00000580   0x00000002   Code   RO          861    i.SysTick_Handler   m1130_it.o
    0x00000582   0x00000582   0x00000002   PAD
    0x00000584   0x00000584   0x0000007c   Code   RO          925    i.SystemADJInit     main.o
    0x00000600   0x00000600   0x0000006c   Code   RO            3    i.SystemInit        system_m1130.o
    0x0000066c   0x0000066c   0x000000e4   Code   RO          399    i.UART_GetFlagStatus  m1130_usart.o
    0x00000750   0x00000750   0x00000068   Code   RO          412    i.UART_SendData     m1130_usart.o
    0x000007b8   0x000007b8   0x00000020   Code   RO         1097    i.__0printf$3       mc_p.l(printf3.o)
    0x000007d8   0x000007d8   0x0000000e   Code   RO         1311    i.__scatterload_copy  mc_p.l(handlers.o)
    0x000007e6   0x000007e6   0x00000002   Code   RO         1312    i.__scatterload_null  mc_p.l(handlers.o)
    0x000007e8   0x000007e8   0x0000000e   Code   RO         1313    i.__scatterload_zeroinit  mc_p.l(handlers.o)
    0x000007f6   0x000007f6   0x00000002   PAD
    0x000007f8   0x000007f8   0x000001cc   Code   RO         1104    i._printf_core      mc_p.l(printf3.o)
    0x000009c4   0x000009c4   0x00000044   Code   RO          926    i.assert_failed     main.o
    0x00000a08   0x00000a08   0x00000068   Code   RO          927    i.checkCapDly       main.o
    0x00000a70   0x00000a70   0x0000000e   Code   RO            4    i.delay             system_m1130.o
    0x00000a7e   0x00000a7e   0x00000002   PAD
    0x00000a80   0x00000a80   0x00000028   Code   RO          929    i.fputc             main.o
    0x00000aa8   0x00000aa8   0x00000044   Code   RO          930    i.main              main.o
    0x00000aec   0x00000aec   0x00000012   Code   RO          651    i.qspi_delay        m1130_eval_qspi.o
    0x00000afe   0x00000afe   0x00000002   PAD
    0x00000b00   0x00000b00   0x00000078   Code   RO          653    i.qspi_flash_enableQE  m1130_eval_qspi.o
    0x00000b78   0x00000b78   0x0000003a   Code   RO          656    i.qspi_flash_read   m1130_eval_qspi.o
    0x00000bb2   0x00000bb2   0x00000044   Code   RO          658    i.qspi_flash_read_buf  m1130_eval_qspi.o
    0x00000bf6   0x00000bf6   0x00000002   PAD
    0x00000bf8   0x00000bf8   0x0000004c   Code   RO          659    i.qspi_flash_read_page  m1130_eval_qspi.o
    0x00000c44   0x00000c44   0x00000030   Code   RO          660    i.qspi_flash_read_status1  m1130_eval_qspi.o
    0x00000c74   0x00000c74   0x00000030   Code   RO          661    i.qspi_flash_read_status2  m1130_eval_qspi.o
    0x00000ca4   0x00000ca4   0x00000050   Code   RO          662    i.qspi_flash_send_addr  m1130_eval_qspi.o
    0x00000cf4   0x00000cf4   0x0000001c   Code   RO          663    i.qspi_flash_send_cmd  m1130_eval_qspi.o
    0x00000d10   0x00000d10   0x00000044   Code   RO          665    i.qspi_flash_write_buf  m1130_eval_qspi.o
    0x00000d54   0x00000d54   0x00000028   Code   RO          666    i.qspi_flash_write_enable  m1130_eval_qspi.o
    0x00000d7c   0x00000d7c   0x00000120   Code   RO          668    i.quad_spi_flash_init  m1130_eval_qspi.o
    0x00000e9c   0x00000e9c   0x00000006   Code   RO          791    i.readReg           m1130_otp.o
    0x00000ea2   0x00000ea2   0x00000010   Code   RO          932    i.startXIP          main.o
    0x00000eb2   0x00000eb2   0x00000002   PAD
    0x00000eb4   0x00000eb4   0x000000fc   Code   RO          669    i.start_quad_spi_dma_rx  m1130_eval_qspi.o
    0x00000fb0   0x00000fb0   0x000000bc   Code   RO          670    i.start_quad_spi_dma_tx  m1130_eval_qspi.o
    0x0000106c   0x0000106c   0x00000068   Code   RO          933    i.switchQuad        main.o
    0x000010d4   0x000010d4   0x00000020   Data   RO         1309    Region$$Table       anon$$obj.o


    Execution Region RW_IRAM1 (Exec base: 0x00007800, Load base: 0x000010f4, Size: 0x00000318, Max: 0x00000800, ABSOLUTE)

    Exec Addr    Load Addr    Size         Type   Attr      Idx    E Section Name        Object

    0x00007800   0x000010f4   0x00000010   Data   RW          671    .data               m1130_eval_qspi.o
    0x00007810   0x00001104   0x00000004   Data   RW         1283    .data               mc_p.l(stdout.o)
    0x00007814   0x00001108   0x00000004   PAD
    0x00007818        -       0x00000300   Zero   RW           64    STACK               startup_m1130.o


==============================================================================

Image component sizes


      Code (inc. data)   RO Data    RW Data    ZI Data      Debug   Object Name

      1380         96          0         16          0      12528   m1130_eval_qspi.o
       584        222          0          0          0       3073   m1130_gpio.o
        12          0          0          0          0       2287   m1130_it.o
       112          8          0          0          0       4258   m1130_otp.o
       332         16          0          0          0       9936   m1130_qspi.o
        70          0          0          0          0       1898   m1130_rcc.o
       332        144          0          0          0       2489   m1130_usart.o
       524         90          0          0          0       4696   main.o
        28          8        172          0        768        760   startup_m1130.o
       122         18          0          0          0      77105   system_m1130.o

    ----------------------------------------------------------------------
      3512        602        204         16        768     119030   Object Totals
         0          0         32          0          0          0   (incl. Generated)
        16          0          0          0          0          0   (incl. Padding)

    ----------------------------------------------------------------------

      Code (inc. data)   RO Data    RW Data    ZI Data      Debug   Library Member Name

         0          0          0          0          0          0   entry.o
         0          0          0          0          0          0   entry10a.o
         0          0          0          0          0          0   entry11a.o
         8          4          0          0          0          0   entry2.o
         4          0          0          0          0          0   entry5.o
         0          0          0          0          0          0   entry7b.o
         0          0          0          0          0          0   entry8b.o
         8          4          0          0          0          0   entry9a.o
        30          0          0          0          0          0   handlers.o
        36          8          0          0          0         68   init.o
       492         12          0          0          0        168   printf3.o
         0          0          0          4          0          0   stdout.o
        44          0          0          0          0         72   uidiv.o

    ----------------------------------------------------------------------
       624         28          0          4          4        308   Library Totals
         2          0          0          0          4          0   (incl. Padding)

    ----------------------------------------------------------------------

      Code (inc. data)   RO Data    RW Data    ZI Data      Debug   Library Name

       622         28          0          4          0        308   mc_p.l

    ----------------------------------------------------------------------
       624         28          0          4          4        308   Library Totals

    ----------------------------------------------------------------------

==============================================================================


      Code (inc. data)   RO Data    RW Data    ZI Data      Debug   

      4136        630        204         20        772     117334   Grand Totals
      4136        630        204         20        772     117334   ELF Image Totals
      4136        630        204         20          0          0   ROM Totals

==============================================================================

    Total RO  Size (Code + RO Data)                 4340 (   4.24kB)
    Total RW  Size (RW Data + ZI Data)               792 (   0.77kB)
    Total ROM Size (Code + RO Data + RW Data)       4360 (   4.26kB)

==============================================================================

