:020000040000FA
:10000000A0080020B1000000B9000000CD000000F1
:1000100000000000000000000000000000000000E0
:10002000000000000000000000000000D1000000FF
:100030000000000000000000CF000000D30000001E
:10004000C3000000C3000000C3000000C3000000A4
:10005000C3000000C3000000C3000000C300000094
:10006000C3000000A90F0000BD0F00003108000010
:10007000D10F0000C3000000C3000000C300000057
:100080008D010000E1020000C3000000C300000079
:1000900000000000C3000000C3000000C300000017
:1000A0000000000000000000C3000000C3000000CA
:1000B0000448804704480047FEE7FEE7FEE7FEE706
:1000C000FEE7FEE74D0F0000E9000000FEE7704785
:1000D0007047704701B502E00098401E00900098FC
:1000E0000028F9D108BD00000348854600F006F855
:1000F00000480047A11A0000A0080020064C012576
:10010000064E05E0E36807CC2B430C3C98471034BF
:10011000B442F7D3FFF7ECFF40010000600100009C
:1001200002E008C8121F08C1002AFAD170477047C0
:10013000002001E001C1121F002AFBD1704700001E
:100140006C1B0000000000206C000000200100007B
:10015000D81B00006C0000203408000030010000B3
:1001600030B50B46014600202022012409E00D464F
:10017000D5409D4205D31D469540491B25469540D7
:1001800040191546521E002DF1DC30BD10B501217D
:10019000002000F069F8194C002806D020680028DB
:1001A00000D08047002000F02BF80121084600F025
:1001B0005BF8002806D06068002800D08047012046
:1001C00000F01EF80121022000F04EF8002806D0B1
:1001D000A068002800D08047022000F011F801211B
:1001E000032000F041F8002806D0E068002800D085
:1001F0008047032000F004F810BD00006C000020D0
:1002000010B50446002C0AD0012C08D0022C06D0D0
:10021000032C04D0FF21A43103A001F0DFFB012057
:100220001049A040886310BD2E2E5C2E2E5C2E2E11
:100230005C4C69627261726965735C4D3131333057
:100240005F5374645065726970685F447269766563
:10025000725C7372635C6D313133305F646D612E3B
:10026000630000000003054070B504460D46002CF5
:100270000AD0012C08D0022C06D0032C04D0FF2178
:100280008A3107A001F0AAFB01221448A240002DE8
:1002900002D0806A104070BD0068104070BD000040
:1002A0002E2E5C2E2E5C2E2E5C4C69627261726961
:1002B00065735C4D313133305F53746450657269DE
:1002C00070685F4472697665725C7372635C6D31ED
:1002D0003133305F646D612E63000000C002054061
:1002E00010B51049086A104A10600B695360086322
:1002F00000BF00BF01210D4CC905204600F0F0F8F9
:10030000E100002806D0204600F082F908A001F0A4
:1003100061FA10BD204600F017F808A001F05AFA63
:1003200010BD00004080024000000020000002409C
:100330004C4544204F4E0D0A000000004C4544201F
:100340004F46460D0A00000070B504460D460948A8
:10035000844206D00848844203D0084908A001F02E
:100360003DFB002D04D1054905A0491C01F036FBD9
:10037000A56070BD00000240000003403102000093
:100380002E2E5C2E2E5C2E2E5C4C69627261726980
:1003900065735C4D313133305F53746450657269FD
:1003A00070685F4472697665725C7372635C6D310C
:1003B0003133305F6770696F2E63000070B5164B84
:1003C0001824984213D10020144D0B46C340DB077C
:1003D000DB0F002B07D083005B191E68A6431E604D
:1003E0001E6816431E60401C2028EED370BD0020FE
:1003F0000A4D80350B46C340DB07DB0F002B07D0CF
:1004000083005B191E68A6431E601E6816431E60AB
:10041000401C2028EED370BD0000024000100040B8
:1004200070B504460E4615461548844206D0154858
:10043000844203D0144915A001F0D0FA002E04D153
:100440004F21C90011A001F0C9FA002D08D0012DDB
:1004500006D0022D04D00C490CA0891C01F0BEFA74
:10046000A661002D04D0012D04D0022D04D004E09B
:10047000A66302E0666300E06662666470BD000029
:100480000080024000800340770200002E2E5C2E88
:100490002E5C2E2E5C4C69627261726965735C4DD4
:1004A000313133305F5374645065726970685F44F2
:1004B00072697665725C7372635C6D313133305F83
:1004C0006770696F2E63000008B5112069460870D7
:1004D0000120887000204870684600F07DFB08BD50
:1004E00070B505460C4600263748854206D0374889
:1004F000854203D0364937A001F070FA012C5DD057
:10050000022C5BD0042C59D0082C57D0102C55D07D
:10051000202C53D0402C51D0802C4FD0E01FF938E4
:100520004CD0FF38013849D001208002844245D0A8
:100530004000844242D0400084423FD04000844288
:100540003CD04000844239D04000844236D0400044
:10055000844233D04000844230D0400084422DD0C9
:10056000400084422AD04000844227D04000844288
:1005700024D04000844221D0400084421ED040005C
:1005800084421BD04000844218D04000844215D0E1
:100590004000844212D0400084420FD04000844288
:1005A0000CD04000844209D04000844206D0601C38
:1005B00004D0074907A0491C01F010FA286820421E
:1005C00000D00126304670BD00000240000003400C
:1005D000090200002E2E5C2E2E5C2E2E5C4C6962D1
:1005E0007261726965735C4D313133305F5374648D
:1005F0005065726970685F4472697665725C737287
:10060000635C6D313133305F6770696F2E6300005A
:1006100070B504460D460948844206D00848844215
:1006200003D0084908A001F0D9F9002D04D10549EB
:1006300005A0491C01F0D2F9656070BD00000240C0
:1006400000000340210200002E2E5C2E2E5C2E2E78
:100650005C4C69627261726965735C4D3131333033
:100660005F5374645065726970685F44726976653F
:10067000725C7372635C6D313133305F6770696FC8
:100680002E630000F8B505460C461646184FBD42CD
:1006900007D01848854204D0FF21AB3116A001F0E5
:1006A0009DF9002C04D1FF21AC3113A001F096F983
:1006B000012E06D0002E04D0FF21AD310EA001F096
:1006C0008DF900222146284600F038F819481A49C9
:1006D000012E05D0002E02D1BD4207D18460F8BDA5
:1006E000BD4201D14460F8BD4C60F8BD8C60F8BDDE
:1006F00000000240000003402E2E5C2E2E5C2E2EA9
:100700005C4C69627261726965735C4D3131333082
:100710005F5374645065726970685F44726976658E
:10072000725C7372635C6D313133305F6770696F17
:100730002E6300000080024000800340F8B50646AA
:100740000D461446284FBE4206D02848864203D0A4
:10075000BE2127A001F042F9002D03D1BF2124A022
:1007600001F03CF9002C11D0012C0FD0022C0DD03F
:10077000032C0BD0042C09D0052C07D0062C05D057
:10078000072C03D0C0211AA001F028F9BE4214D1D1
:100790000020264A2946C140C907C90F002908D0B0
:1007A000810089180B68DB08DB000B600B682343B2
:1007B0000B60401C2028EDD3F8BD00201B4A80327E
:1007C0002946C140C907C90F002908D081008918EE
:1007D0000B68DB08DB000B600B6823430B60401CDD
:1007E0002028EDD3F8BD00000000024000000340C7
:1007F0002E2E5C2E2E5C2E2E5C4C6962726172690C
:1008000065735C4D313133305F5374645065726988
:1008100070685F4472697665725C7372635C6D3197
:100820003133305F6770696F2E6300000010004045
:10083000F8B52E4F384600F013F9002400284BD0AD
:100840005421084005462A4E3078012803D002285A
:1008500001D0052838D1680604D58021384600F03B
:100860007DF90446384600F047F8680613D520465F
:1008700001F0E6F8E00704D0200702D4062030702B
:1008800017E0200701D5E00702D0082030701BE0F8
:10089000072030700DE0680702D501F0D9F808E0B4
:1008A000E80606D5384600F0D7F8400701D5042001
:1008B00030703078032810D004280ED006280CD0D1
:1008C00007280AD0022807D0384600F015F8002281
:1008D0000849384600F0F2F8F8BD384600F00CF848
:1008E00000220449384600F0E9F8F8BD0040004015
:1008F00008000020FF0F000038B5044600200090DB
:100900000648844203D0064906A001F067F8206C2F
:1009100000900098401C009038BD0000004000404E
:10092000430200002E2E5C2E2E5C2E2E5C4C696243
:100930007261726965735C4D313133305F53746439
:100940005065726970685F4472697665725C737233
:10095000635C6D313133305F6932632E63000000B8
:10096000F8B505460C46002000902948854203D082
:10097000284929A001F032F801267602B700012C9F
:100980002BD0022C29D0042C27D0082C25D0102CB9
:1009900023D0202C21D0402C1FD0802C1DD0E01F34
:1009A000F9381AD0B44218D07000844215D0BC4235
:1009B00013D08000844210D0400084420DD040000B
:1009C00084420AD04000844207D02248844204D0A6
:1009D000104911A0491C01F001F8A00511D52846C5
:1009E0008030016800910099B1430160286800904F
:1009F0000098202108432860686800900098B84358
:100A00006860686D00900098401C0090F8BD000080
:100A1000004000409D0200002E2E5C2E2E5C2E2EEB
:100A20005C4C69627261726965735C4D313133305F
:100A30005F5374645065726970685F44726976656B
:100A4000725C7372635C6D313133305F6932632E77
:100A500063000000FFFF0000006F4006400E70477B
:100A600010B504460548844204D0FF21F83104A0A3
:100A700000F0B4FFE06A0005000D10BD004000402A
:100A80002E2E5C2E2E5C2E2E5C4C69627261726979
:100A900065735C4D313133305F53746450657269F6
:100AA00070685F4472697665725C7372635C6D3105
:100AB0003133305F6932632E6300000070B5044645
:100AC0000D4616461448844204D0FF21A43113A0D9
:100AD00000F084FF002E06D0012E04D0FF21A531A6
:100AE0000EA000F07BFF280B01D1002D07D11A4882
:100AF000854204D0FF21A63108A000F06FFF002E30
:100B000003D0206B2843206370BD206BE94389B27A
:100B10000840206370BD0000004000402E2E5C2E77
:100B20002E5C2E2E5C4C69627261726965735C4D3D
:100B3000313133305F5374645065726970685F445B
:100B400072697665725C7372635C6D313133305FEC
:100B50006932632E63000000FF0F000038B50546C0
:100B60000C46002000900C48854204D0FF218831BB
:100B70000AA000F033FFA00701D19C2C04D9FF216B
:100B8000893106A000F02AFF009500980019009016
:100B90000098006838BD0000004000402E2E5C2EFA
:100BA0002E5C2E2E5C4C69627261726965735C4DBD
:100BB000313133305F5374645065726970685F44DB
:100BC00072697665725C7372635C6D313133305F6C
:100BD0006932632E6300000070B50446A0780028D7
:100BE00005D0012803D0882113A000F0F7FEA078DB
:100BF0000123002817D021781D488A089200101878
:100C000002688907C90EFF258D40AA436578AD07A4
:100C10002D0E8D40154305602078C006C00E834020
:100C20001448036070BD2078C006C00E8340114890
:100C30008030036070BD00002E2E5C2E2E5C2E2EA8
:100C40005C4C69627261726965735C4D313133303D
:100C50005F5374645065726970685F447269766549
:100C6000725C7372635C6D6973632E6300000000D5
:100C700000E400E000E100E0F8B5044662490869DC
:100C8000C0B28A69D5B2896ACFB201218907096BDE
:100C90005E4AC906C90E0A3151430091002806D0A8
:100CA000012806D0022806D0032806D006E0574EB9
:100CB00004E0009E02E0554E00E0554E52484030A0
:100CC00001683046FFF74CFA802C1CD001208007C9
:100CD0002018902C0AD0942C08D0982C06D0B42C34
:100CE0002BD0B82C4AD0A02C74D0FEE70178002974
:100CF00008D0002D08D0012D0CD0022D10D0032DCE
:100D000014D018E00020F8BD01784048FFF728FA19
:100D1000044610E001780098FFF722FA04460AE042
:100D200001783A48FFF71CFA044604E00178384895
:100D3000FFF716FA04462046F8BD33484030416BB1
:100D4000002906D0002F06D0012F0AD0022F0ED086
:100D500012E00020F8BD416B2C48FFF701FA044671
:100D60000AE0416B0098FFF7FBF9044604E0416B91
:100D70002648FFF7F5F904462046F8BD22484030E2
:100D8000816B00290CD021000CD0012C10D0022C3A
:100D900014D0032C18D0042C1DD0052C22D026E012
:100DA0000020F8BD816B1948FFF7DAF904461EE010
:100DB000816B3046FFF7D4F9044618E0816B144884
:100DC000FFF7CEF9044612E0816B1048FFF7C8F92F
:100DD00004460CE00DE0816B7D200002FFF7C0F9B6
:100DE000044604E0816B0B48FFF7BAF9044620463D
:100DF000F8BD0178002904D001783046FFF7B0F93A
:100E0000F8BD0020F8BD000040000040001BB70006
:100E100010270000006CDC0200B5034601211846D3
:100E200000F04EF80021184600F052F80121184653
:100E300000F04EF800BD000070B504460D46802C51
:100E40001BD0902C19D0942C17D0982C15D0A02CF6
:100E500013D0A42C11D0A82C0FD0AC2C0DD0B42CB6
:100E60000BD0B82C09D0BC2C07D0C02C05D0D02C6E
:100E700003D0E92103A000F0B1FD01208007201874
:100E8000057070BD2E2E5C2E2E5C2E2E5C4C696281
:100E90007261726965735C4D313133305F537464D4
:100EA0005065726970685F4472697665725C7372CE
:100EB000635C6D313133305F7263632E6300000019
:100EC00001229207002901D050617047906170475C
:100ED00001229207002901D050607047906070474E
:100EE00010B50446002C09D0012C07D0022C05D0E7
:100EF000032C03D0A72105A000F070FD12488461E7
:100F00000021C1610121C16110BD00002E2E5C2EA7
:100F10002E5C2E2E5C4C69627261726965735C4D49
:100F2000313133305F5374645065726970685F4467
:100F300072697665725C7372635C6D313133305FF8
:100F40007263632E630000004000004010B5002073
:100F50000121114A89074A61104B04221A60104A84
:100F60009368FF241234A34393600E4A0A63CA13A2
:100F700003E00346401C934202D24B6B012BF8D195
:100F80007D20C000FFF7A6F8044801214038016128
:100F900000224261416110BD18080000800000403D
:100FA000000200401600008010B50249024800F01F
:100FB000DDF910BD7C0000200020004010B5024982
:100FC000024800F0D3F910BD880100200030004035
:100FD00010B50249024800F0C9F910BD9402002082
:100FE0000060004070B504460D460E48844209D0AA
:100FF0000D48844206D00D48844203D0DF210CA066
:1010000000F0ECFC002D05D0012D03D0E02108A05C
:1010100000F0E4FC0120002D01D0606270BDA062F0
:1010200070BD000000200040003000400060004023
:101030002E2E5C2E2E5C2E2E5C4C696272617269C3
:1010400065735C4D313133305F5374645065726940
:1010500070685F4472697665725C7372635C6D314F
:101060003133305F75736172742E6300F0B58BB0ED
:1010700004460E4615460120FFF732FF4E488442D3
:101080000AD12020FFF7C8FE04219020FFF7D4FEEC
:101090000920694608701BE0484884420AD1402074
:1010A000FFF7BAFE04219420FFF7C6FE0A20694626
:1010B00008700DE0424884420AD10120C006FFF7C3
:1010C000ABFE04219820FFF7B7FE0C20694608709C
:1010D0002A463C4F3C48BD00130000F08BFB060441
:1010E000111C27323D470121032209043846FFF72E
:1010F00025FB0121032249043846FFF71FFB35E099
:101100000222D1050746FFF719FB022211063846D5
:10111000FFF714FB2AE0022204213846FFF70EFBFA
:10112000022208213846FFF709FB1FE00222510482
:101130003846FFF703FB022229463846FFF7FEFA3E
:1011400014E0032201213846FFF7F8FA03220221B6
:101150003846FFF7F3FA09E0022251060746FFF787
:10116000EDFA022291063846FFF7E8FA01206946B7
:101170008870022048706846FFF72EFD204600F078
:1011800089FA01A800F014FB049601208005029062
:1011900001A9204600F06EF9FF200004A060656000
:1011A000052101220905204600F012F901212046FF
:1011B000FFF718FF0BB0F0BD0020004000300040EA
:1011C000006000400000024000000340F8B5054602
:1011D0000C460026234FBD4209D02348854206D045
:1011E0002248854203D0224922A000F0F7FB0120CB
:1011F000000484421FD0400084421CD0400084423E
:1012000019D04000844216D04001844213D04000DF
:10121000844210D0400084420DD0400084420AD065
:101220004000844207D04000844204D04D21C900D0
:1012300010A000F0D3FB0120000784420CD1BD4276
:101240000AD00948854207D00848854204D09B212E
:10125000890008A000F0C2FB286E204200D00126C1
:101260003046F8BD002000400030004000600040E3
:10127000670200002E2E5C2E2E5C2E2E5C4C6962C6
:101280007261726965735C4D313133305F537464E0
:101290005065726970685F4472697665725C7372DA
:1012A000635C6D313133305F75736172742E63002E
:1012B00070B505460C4600261948854209D01948E4
:1012C000854206D01848854203D0184918A000F07E
:1012D00085FB102C1DD0202C1BD0402C19D0802C2D
:1012E00017D0E01FF93814D0FF38013811D0012091
:1012F000800284420DD0400084420AD040008442E3
:1013000007D04000844204D05521C90008A000F055
:1013100065FB286C204200D00126304670BD0000DD
:10132000002000400030004000600040A7020000A4
:101330002E2E5C2E2E5C2E2E5C4C696272617269C0
:1013400065735C4D313133305F537464506572693D
:1013500070685F4472697665725C7372635C6D314C
:101360003133305F75736172742E6300F8B50646D1
:101370000D4610213046FFF79BFF0127EC1D3F066D
:10138000F934002805D10AE0316DA068421CA26042
:10139000295439463046FFF719FF0028F4D0402180
:1013A0003046FFF785FF002805D1F8BD316DA068F4
:1013B000421CA260295439463046FFF707FF002837
:1013C000F4D0A0682060012060600020A060F8BD1B
:1013D00070B504460D461646134884420AD0134899
:1013E000844207D01248844204D0FF213D3111A02D
:1013F00000F0F4FAA800800D02D01D48054204D088
:10140000FF213E310BA000F0E9FA002E06D0012E9C
:1014100004D0FF213F3107A000F0E0FA002E01D0F8
:10142000656470BDA56470BD0020004000300040C0
:10143000006000402E2E5C2E2E5C2E2E5C4C6962CD
:101440007261726965735C4D313133305F5374641E
:101450005065726970685F4472697665725C737218
:10146000635C6D313133305F75736172742E63006C
:10147000FFFF0FC0FEB505460C4600200090714EE0
:10148000714FB54208D0BD4206D07048854203D0A6
:101490008F216FA000F0A2FA2069002809D020282F
:1014A00007D0402805D0602803D0912168A000F023
:1014B00095FA6069002805D0082803D0922164A01D
:1014C00000F08CFAA06900280BD0062809D0022869
:1014D00007D0822805D0862803D093215CA000F095
:1014E0007DFAE069C11FF9390AD0FF39013907D007
:1014F00003210902884203D0942155A000F06EFA1E
:10150000206A00280ED00121890388420AD04900B0
:10151000884207D003218903884203D095214CA03B
:1015200000F05CFA606A002807D00121C9028842F5
:1015300003D0962146A000F051FA2068002812D06E
:101540000121090488420ED0490088420BD00321B2
:101550000904884207D001218904884203D09721D9
:101560003BA000F03BFA6068002812D00121090579
:1015700088420ED0490088420BD0032109058842D9
:1015800007D001218905884203D0982130A000F0BE
:1015900025FAA068102805D0002803D099212CA096
:1015A00000F01CFA206A00280AD0B54208D0BD42DB
:1015B00006D02648854203D09E2125A000F00EFAD1
:1015C00003208007A860286B304908400190B5428D
:1015D00004D19020FFF750FB00900DE0BD4204D1F4
:1015E0009420FFF749FB009006E01848854203D19C
:1015F0009820FFF741FB00900098E1688000FEF71B
:10160000AFFD8106890C800980018002636922692F
:1016100008431A430243A0690243A06802430198A9
:1016200002432A63286A1A49084062682168236ACB
:101630001143E2691A431143626A1143014329626B
:10164000FEBD00000020004000300040006000406F
:101650002E2E5C2E2E5C2E2E5C4C6962726172699D
:1016600065735C4D313133305F537464506572691A
:1016700070685F4472697665725C7372635C6D3129
:101680003133305F75736172742E630001C00000E6
:10169000FF3488FFF8B50446174D184E184FAC427A
:1016A00007D0B44205D0BC4203D06E2115A000F093
:1016B00095F9AC4208D100212020FFF709FC012157
:1016C0002020FFF705FCF8BDB44208D100214020DE
:1016D000FFF7FEFB01214020FFF7FAFBF8BDBC42FB
:1016E000FCD10124E40600212046FFF7F1FB012193
:1016F0002046FFF7EDFBF8BD002000400030004021
:10170000006000402E2E5C2E2E5C2E2E5C4C6962FA
:101710007261726965735C4D313133305F5374644B
:101720005065726970685F4472697665725C737245
:10173000635C6D313133305F75736172742E630099
:1017400070B504460D46084884420AD007488442D2
:1017500007D00748844204D0FF21833105A000F060
:101760003DF9256570BD00000020004000300040BC
:10177000006000402E2E5C2E2E5C2E2E5C4C69628A
:101780007261726965735C4D313133305F537464DB
:101790005065726970685F4472697665725C7372D5
:1017A000635C6D313133305F75736172742E630029
:1017B00000210160416010228260E1225202C26079
:1017C0006022026141618161D200C26101624162B5
:1017D000704700000FB410B503A9044B044A0298E7
:1017E00000F016F810BC08BC04B01847191A000025
:1017F0006800002030B47446641E2578641CAB4237
:1018000000D21D46635D5B00E31830BC1847000042
:10181000FFB58DB00F460546002606E025280AD004
:10182000109A0F9990476D1C761C28780028F5D1E6
:10183000304611B0F0BD00240121674A009400E059
:1018400004436D1C2B780846203B98401042F7D18A
:1018500028782E2815D10420044368786D1C2A2886
:101860000AD101CF6D1C00900BE000990A22514370
:10187000303940186D1C009028780146303909290C
:10188000F3D92878692843D006DC0028D0D0632813
:101890000BD0642804D13BE073280FD075284CD0BE
:1018A000109A0F999047761C94E038786946087230
:1018B0000020487202A80190012003E038680190DE
:1018C0000020C0433F1D61070CD5002400E0641CCC
:1018D00000998C420FDA8442F9DB0199095D0029F5
:1018E000F5D108E0002400E0641C8442FCDB01998F
:1018F000095D0029F8D1361907E0019801990078AF
:10190000491C0191109A0F999047641EF5D261E02D
:101910000A20019001CF002802DA40422D2102E086
:10192000210504D52B216A461172012103E0E1074C
:1019300001D02021F7E70C9104E00A20019001CFAB
:1019400000210C910BA90B9108E00199FEF708FC0E
:101950000A460B993032491E0B910A700028F4D1C7
:101960000B9803A9081A20300190600701D5009850
:1019700001E0012000900199884203DD01460198B1
:10198000081A00E000200024009006E002A8109A47
:10199000005D0F999047641C761C0C988442F5DB1F
:1019A00004E0109A30200F999047761C0099481E49
:1019B00000900029F5DC08E00B980B990078491C91
:1019C0000B91109A0F999047761C0199481E01902F
:1019D0000029F1DC6D1C28E7092801000A460146B0
:1019E00001A0FFF7F7FEFEE757726F6E6720706188
:1019F00072616D65746572732076616C75653A20ED
:101A000066696C65202573206F6E206C696E652099
:101A100025640D0A0000000070B50446074DE1B2D0
:101A20002846FFF78DFE0126F60631462846FFF7C9
:101A3000CDFB0028F9D0204670BD000000300040EA
:101A400010B501460148FEF78BFF10BD0040004075
:101A500070B5114E78213046FFF780F80407240F47
:101A60000E4D0BE010213046FFF778F82969087019
:101A7000491C29616869401E6861641E6869002804
:101A800001DD002CEEDC6869002802DD02202870F0
:101A900070BD0320287070BD004000400800002089
:101AA000E121032249021948FFF7E0FA18A0FFF7E5
:101AB00091FE26A0FFF78EFE01252A4CED0500229F
:101AC00029462046FEF73AFE002229462046FEF728
:101AD000D9FD082229462046FEF770FC022229463D
:101AE0002148FEF79DFCE500002229462046FEF72E
:101AF00025FE012229462046FEF7C4FD2946204640
:101B0000FEF722FCFEF7E0FCFEE70000003000409C
:101B10000D0A2D2D2D2D2D2D2D2D2D2D2D2D2D2D38
:101B20002D2D2D7C2D204C4544264B657920746548
:101B30007374202D7C2D2D2D2D2D2D2D2D2D2D2D06
:101B40002D2D2D2D2D2D0D0A0000000050726573D6
:101B500073204B65793A204C4544206973204F4EE1
:101B60000D0A00000000024000800240000000005A
:101B70000000000000000000020000000000000063
:101B8000000000000000000000000000323463305C
:101B90003200000000000000000000000000000013
:101BA00050080832346330380000000000000000A4
:101BB00000000000000000500A1032346332353655
:101BC0000000000000000000000000000000500FB6
:081BD0004000000000000000CD
:04000005000000E90E
:00000001FF
