:020000040000FA
:1000000030050020B1000000B9000000CD00000064
:1000100000000000000000000000000000000000E0
:10002000000000000000000000000000D1000000FF
:100030000000000000000000CF000000D30000001E
:10004000C3000000C3000000C3000000C3000000A4
:10005000C3000000C3000000C3000000C300000094
:10006000C3000000C300000091080000C3000000AE
:10007000C3000000C3000000C3000000C300000074
:10008000C3000000C3000000C3000000C300000064
:1000900000000000C3000000C3000000C300000017
:1000A0000000000000000000C3000000C3000000CA
:1000B0000448804704480047FEE7FEE7FEE7FEE706
:1000C000FEE7FEE735080000E9000000FEE77047A4
:1000D0007047704701B502E00098401E00900098FC
:1000E0000028F9D108BD00000348854600F006F855
:1000F000004800475D0F000030050020064C012538
:10010000064E05E0E36807CC2B430C3C98471034BF
:10011000B442F7D3FFF7ECFF40010000600100009C
:1001200002E008C8121F08C1002AFAD170477047C0
:10013000002001E001C1121F002AFBD1704700001E
:10014000DC0F000000000020100000002001000073
:10015000EC0F00001000002020050000300100001E
:1001600030B50B46014600202022012409E00D464F
:10017000D5409D4205D31D469540491B25469540D7
:1001800040191546521E002DF1DC30BD10B5C307D5
:100190008021104A002B00D01162830700D55162E4
:1001A000430700D59162030700D5D1620A4BC4060C
:1001B00000D51963840600D55963440600D59963B8
:1001C000040600D5D963C30500D55160800500D56C
:1001D000916010BDC010004080100040CA0701D0DF
:1001E000012282618A0701D5022282614A0701D574
:1001F000042282610A0701D508228261CA0601D55C
:10020000102282618A0601D5202282614A0601D528
:10021000402282610A0601D580228261CA0502D588
:10022000FF2201328261890502D5012149028161E3
:1002300070470246012902D1106D8003800B02290C
:1002400002D1106E8003800B042902D1106F80034D
:10025000800B13468033082902D118688003800B75
:10026000102902D118698003800B202902D1186A55
:100270008003800B402902D1186B8003800B8029FA
:1002800002D1186C8003800BCB1FF93B04D1FF20F7
:10029000713080588003800BCB1FFF3BFA3B04D1A9
:1002A000FF32813210688003800B704770B50546BD
:1002B0000C46217E284600F01BF8286B6169084334
:1002C0002863217C607CE26801436068104301433D
:1002D000A0680143E81DF930026E114301662188D0
:1002E0000122284600F022F82088FFF74FFF70BD5A
:1002F00010B50C46074A90420BD10021042000F0B3
:100300005DFA0120400200F067FA2146C02000F0AB
:1003100072FA10BD008000400122FF30D207013088
:10032000012901D04266704782667047F0B501230B
:100330000224042508261027012A25D0CA0700D048
:1003400083608A0700D584604A0700D585600A0764
:1003500000D58660CA0600D587608A0601D52022AE
:1003600082604A0601D5402282600A0601D58022B9
:100370008260CA0502D5FF2201328260890502D55A
:10038000012149028160F0BDCA0700D043608A079D
:1003900000D544604A0700D545600A0700D546608D
:1003A000CA0600D547608A0601D5202242604A0667
:1003B00001D5402242600A0601D580224260CA056A
:1003C00002D5FF22013242608905DCD501214902B4
:1003D0004160F0BD01218907FF300130416670475F
:1003E00070B500241A4D082000F0B4F8610068527E
:1003F000641C082CF7DB002460002A5A214615A053
:1004000000F0C4FB641C082CF6DB1BA000F0BEFB54
:100410000024042000F09EF861006852641C082C3F
:10042000F7DB002460002A5A214614A000F0AEFB3E
:10043000641C082CF6DB10A000F0A8FB7D246401EE
:10044000204600F069FD204600F066FD70BD00000A
:100450001001002041646376616C206F6620636840
:10046000616E6E656C332061646275665B25645DE8
:1004700020697320253034640D0A000041646376DE
:10048000616C206F66206368616E6E656C322061FE
:10049000646275665B25645D206973202530346471
:1004A0000D0A00004160704770B505460C461646BF
:1004B00000222146284600F019F8094809490A4A4D
:1004C000012E05D0002E02D1854207D18C6070BD6F
:1004D000854201D14C6070BD546070BD946070BDA8
:1004E00000000240008002400080034030B5174BFE
:1004F000984214D10020164C0B46C340DB07DB0F9B
:10050000002B08D083001B191D68ED08ED001D604D
:100510001D6815431D60401C2028EDD330BD002010
:100520000B4C80340B46C340DB07DB0F002B08D09D
:1005300083001B191D68ED08ED001D601D68154343
:100540001D60401C2028EDD330BD0000000002409B
:100550000010004070B50446104E3460104D2888DD
:1005600084420AD03046FFF735FF298830460369B8
:100570000A469A43FBD1FFF731FE3046FFF72AFFC8
:10058000316920468843FBD121463046FFF726FEDD
:1005900021463046FFF74DFE2C8070BD00800040A4
:1005A0000800002010B5084C002204212046FFF767
:1005B0009DFF012204212046FFF776FF04212046FB
:1005C000FFF770FF10BD00000000024030B58278D8
:1005D00001240178002A16D08B080E4A9B009A1835
:1005E00013688907C90EFF258D40AB434578AD07D9
:1005F0002D0E8D401D4315600078C006C00E84404E
:100600000548046030BDC806C00E844002488030F2
:10061000046030BD00E400E000E100E0F8B504460D
:1006200062490869C0B28A69D5B2896ACFB201212C
:100630008907096B5E4AC906C90E0A315143009108
:10064000002806D0012806D0022806D0032806D0AC
:1006500006E0574E04E0009E02E0554E00E0554E85
:100660005248403001683046FFF77AFD802C1CD09C
:10067000012080072018902C0AD0942C08D0982CA8
:1006800006D0B42C2BD0B82C4AD0A02C74D0FEE7C6
:100690000178002908D0002D08D0012D0CD0022DA2
:1006A00010D0032D14D018E00020F8BD0178404888
:1006B000FFF756FD044610E001780098FFF750FD63
:1006C00004460AE001783A48FFF74AFD044604E090
:1006D00001783848FFF744FD04462046F8BD33480A
:1006E0004030416B002906D0002F06D0012F0AD0E0
:1006F000022F0ED012E00020F8BD416B2C48FFF70E
:100700002FFD04460AE0416B0098FFF729FD0446DF
:1007100004E0416B2648FFF723FD04462046F8BD60
:1007200022484030816B00290CD021000CD0012CD4
:1007300010D0022C14D0032C18D0042C1DD0052C62
:1007400022D026E00020F8BD816B1948FFF708FD94
:1007500004461EE0816B3046FFF702FD044618E0B8
:10076000816B1448FFF7FCFC044612E0816B1048D3
:10077000FFF7F6FC04460CE00DE0816B7D200002E3
:10078000FFF7EEFC044604E0816B0B48FFF7E8FC42
:1007900004462046F8BD0178002904D0017830468F
:1007A000FFF7DEFCF8BD0020F8BD0000400000406F
:1007B000001BB70010270000006CDC02054A01296D
:1007C00003D09168814391607047916801439160C3
:1007D000704700000002004000B5034601211846A2
:1007E00000F00EF80021184600F012F8012118461A
:1007F00000F00EF800BD01229207801801707047CA
:1008000001229207002901D0506170479061704722
:1008100001229207002901D0506070479060704714
:10082000034988610020C8610120C8617047000049
:100830004000004010B500200121114A89074A619B
:10084000104B04221A60104A9368FF241234A34309
:1008500093600E4A0A63CA1303E00346401C9342A6
:1008600002D24B6B012BF8D17D20C000FFF732FC88
:10087000044801214038016100224261416110BDFC
:1008800018080000800000400002004016000080B0
:10089000F8B5174C2068174D174EC0060DD500202F
:1008A0002369E9884A1CEA807354401C0D28F7DB51
:1008B0002878401C28701020A0602068400616D5BB
:1008C00001273F0604E02169E888421CEA80315490
:1008D00007483946403800F0C3F80028F3D0E888CC
:1008E00068800120A8800020E8804020A060F8BD3A
:1008F00040300040000000201000002001220029AC
:1009000001D042627047826270470000F0B58BB040
:1009100004460E4615460120FFF782FF4B488442ED
:100920000AD12020FFF758FF04219020FFF763FF32
:100930000920694608701BE0454884420AD14020DE
:10094000FFF74AFF04219420FFF755FF0A2069466C
:1009500008700DE03F4884420AD10120C006FFF72D
:100960003BFF04219820FFF746FF0C2069460870E2
:100970002A46394F3948BD00130000F017F9060424
:10098000111C27323D470121032209043846FFF795
:10099000ADFD0121032249043846FFF7A7FD35E0EC
:1009A0000222D1050746FFF7A1FD022211063846B3
:1009B000FFF79CFD2AE0022210213846FFF796FD42
:1009C000022208213846FFF791FD1FE00222510460
:1009D0003846FFF78BFD022229463846FFF786FD91
:1009E00014E0032201213846FFF780FD0322022193
:1009F0003846FFF77BFD09E0022251060746FFF764
:100A000075FD022291063846FFF770FD0120694608
:100A10008870022048706846FFF7D8FD204600F035
:100A200073F801A800F0A0F8049601208005029058
:100A300001A9204600F01CF8FF200004A0606560BA
:100A400001212046FFF75AFF0BB0F0BD0020004007
:100A50000030004000600040000002400000034001
:100A600002460020126E0A4200D0012070470000AA
:100A700070B505460C46002003218907A9602E6B3E
:100A80001C490E401C498D4203D19020FFF7C6FD42
:100A90000CE01A498D4203D19420FFF7BFFD05E019
:100AA00017498D4202D19820FFF7B8FD8000E16818
:100AB000FFF756FB81068A0C800980018102636979
:100AC0002069114318430843A1690843A1680843FA
:100AD00030432863296A0B48014062682068236A12
:100AE0001043E2691A431043626A104308432862C4
:100AF00070BD000001C00000002000400030004038
:100B000000600040FF3488FF10B51349884208D1C7
:100B100000212020FFF77CFE01212020FFF778FE36
:100B200010BD0E49884208D100214020FFF770FE19
:100B300001214020FFF76CFE10BD09498842FBD11E
:100B40000124E40600212046FFF762FE0121204631
:100B5000FFF75EFE10BD00000020004000300040A6
:100B60000060004001657047002101604160102273
:100B70008260E1225202C2606022026141618161B1
:100B8000D200C26101624162704700000FB410B52B
:100B900003A9044B044A029800F016F810BC08BCE4
:100BA00004B01847350F00000C00002030B4744624
:100BB000641E2578641CAB4200D21D46635D5B0059
:100BC000E31830BC18470000FFB58FB0054600267B
:100BD00006E025280AD0129A119990476D1C761CC0
:100BE00028780028F5D1304613B0F0BD00240294D7
:100BF0000121B54A009400E004436D1C2B7808469F
:100C0000203B98401042F7D128782A280ED00222A3
:100C1000287801463039092916D802990A23594300
:100C20003039401814436D1C0290F1E7109802C847
:100C300002911090002904DA012040030443484245
:100C40000290022004436D1C28782E2817D104201E
:100C5000044368786D1C2A280CD110986D1C02C8BA
:100C6000009110900BE000990A225143303940184E
:100C70006D1C00902878014630390929F3D928786D
:100C80006C2810D006DC4C281AD068280ED06A28B0
:100C900017D104E0742813D07A2812D110E0012073
:100CA000400504430CE00121090501E00321090589
:100CB0000C436978814203D10120000524186D1C82
:100CC0006D1C2878692874D006DC00288BD0632836
:100CD00027D0642806D16CE06E2808D073282CD069
:100CE000752878D0129A11999047761C5FE06002BF
:100CF000400F022809D003280DD00428109801685D
:100D00000DD00E60001D109051E01098F217016890
:100D10000E604A60F6E7109801680E80F2E70E70E8
:100D2000F0E710986A4601781173001D10900020BA
:100D3000507303A80190012005E0109802C80191AA
:100D400010900020C04361070CD5002700E07F1CF5
:100D500000998F420FDA8742F9DB0199C95D0029BA
:100D6000F5D108E0002700E07F1C8742FCDB0199F9
:100D7000C95D0029F8D102982146C01B0290129B40
:100D8000119A00F0B3F88019C61907E0019801998B
:100D90000078491C0191129A119990477F1EF5D253
:100DA0002146129B119A029800F090F886196D1C4A
:100DB00016E70A200190109901C910916102490FAC
:100DC000032900D100B2042900D140B2002803DA7F
:100DD00040422D2103E00DE0210504D52B216A4678
:100DE0001173012103E0E10711D02021F7E70CAFD7
:100DF0000C9114E00A200190109901C91091610230
:100E0000490F032900D180B2042900D1C0B20021CA
:100E1000EDE70199FFF7A4F930317F1E3970002802
:100E2000F7D104A8C01B20300190600704D5012031
:100E300000048443009801E0012000900199884259
:100E400001DD401A00E00020411800900C980918BC
:100E50000298401A0290E00306D42146129B119A90
:100E6000029800F043F8861900200D9008E003A9CD
:100E7000085C129A119990470D98401C761C0D90B1
:100E80000C998842F3DBE0030CD52146129B119AA2
:100E9000029800F02BF8861904E0129A302011997C
:100EA0009047761C0099481E00900029F5DC05E06B
:100EB0003878129A7F1C11999047761C0199481E28
:100EC00001900029F4DC6BE709280100F8B504461D
:100ED00000251E461746880404D405E03946202024
:100EE000B0476D1C641EF9D52846F8BDFFB5044611
:100EF000002581B01E46C80301D5302700E0202719
:100F0000880404D505E038460399B0476D1C641E7B
:100F1000F9D5284605B0F0BD7D22520106E000213A
:100F2000491C89B29142FBD3401E80B20028F6D101
:100F30007047000070B50446074DE1B22846FFF740
:100F400011FE0126F60631462846FFF789FD0028E6
:100F5000F9D0204670BD000000300040FFF722FBB2
:100F6000E121032249020648FFF7D0FC05A0FFF764
:100F70000DFE0C4800F018F8FFF732FAFCE700000D
:100F8000003000400D0A444733304630333043438D
:100F9000BFAAB7A2B0E520414443CAB5D1E90D0AC2
:100FA000000000000080004010B588B00C216A46A7
:100FB0009180002002900390049010755075069067
:100FC0001177054C01A92046FFF770F90121204651
:100FD000FFF7A2F908B010BD00800040000000003B
:0C0FE00000000000000000000000000005
:04000005000000E90E
:00000001FF
