Component: ARM Compiler 5.06 update 2 (build 183) Tool: armlink [4d35b7]

==============================================================================

Section Cross References

    system_m1130.o(i.SystemInit) refers to m1130_it.o(i.commonDelay) for commonDelay
    startup_m1130.o(RESET) refers to startup_m1130.o(STACK) for __initial_sp
    startup_m1130.o(RESET) refers to startup_m1130.o(.text) for Reset_Handler
    startup_m1130.o(RESET) refers to m1130_it.o(i.HardFault_Handler) for HardFault_Handler
    startup_m1130.o(RESET) refers to m1130_it.o(i.SVC_Handler) for SVC_Handler
    startup_m1130.o(RESET) refers to m1130_it.o(i.PendSV_Handler) for PendSV_Handler
    startup_m1130.o(RESET) refers to m1130_it.o(i.SysTick_Handler) for SysTick_Handler
    startup_m1130.o(RESET) refers to main.o(i.UART1_IRQHandler) for UART1_IRQHandler
    startup_m1130.o(.text) refers to system_m1130.o(i.SystemInit) for SystemInit
    startup_m1130.o(.text) refers to entry.o(.ARM.Collect$$$$00000000) for __main
    m1130_gpio.o(i.GPIO_Reset) refers to m1130_rcc.o(i.RCC_SetPRESETCTRL) for RCC_SetPRESETCTRL
    m1130_gpio.o(i.GPIO_SetPinDir) refers to m1130_gpio.o(i.GPIO_SetPinMux) for GPIO_SetPinMux
    m1130_rcc.o(i.RCC_GetClocksFreq) refers to uidiv.o(.text) for __aeabi_uidivmod
    m1130_rcc.o(i.RCC_ResetAHBCLK) refers to m1130_rcc.o(i.RCC_SetAHBCLK) for RCC_SetAHBCLK
    m1130_rcc.o(i.RCC_ResetAHBCLK) refers to m1130_rcc.o(i.RCC_SetPRESETCTRL) for RCC_SetPRESETCTRL
    m1130_rcc.o(i.goSleep) refers to m1130_it.o(i.commonDelay) for commonDelay
    m1130_usart.o(i.UART_Init) refers to m1130_rcc.o(i.RCC_GetClocksFreq) for RCC_GetClocksFreq
    m1130_usart.o(i.UART_Init) refers to uidiv.o(.text) for __aeabi_uidivmod
==============================================================================

Removing Unused input sections from the image.

    Removing system_m1130.o(.rev16_text), (4 bytes).
    Removing system_m1130.o(.revsh_text), (4 bytes).
    Removing startup_m1130.o(HEAP), (512 bytes).
    Removing m1130_gpio.o(.rev16_text), (4 bytes).
    Removing m1130_gpio.o(.revsh_text), (4 bytes).
    Removing m1130_gpio.o(i.GPIO_ConfigAna), (112 bytes).
    Removing m1130_gpio.o(i.GPIO_ConfigDriver), (100 bytes).
    Removing m1130_gpio.o(i.GPIO_ConfigPull), (100 bytes).
    Removing m1130_gpio.o(i.GPIO_ConfigSlewRate), (100 bytes).
    Removing m1130_gpio.o(i.GPIO_EdgeITClear), (4 bytes).
    Removing m1130_gpio.o(i.GPIO_EdgeITEnable), (30 bytes).
    Removing m1130_gpio.o(i.GPIO_GetMaskITStatus), (14 bytes).
    Removing m1130_gpio.o(i.GPIO_GetOriginalITStatus), (14 bytes).
    Removing m1130_gpio.o(i.GPIO_Init), (164 bytes).
    Removing m1130_gpio.o(i.GPIO_LevelITEnable), (22 bytes).
    Removing m1130_gpio.o(i.GPIO_MaskIT), (4 bytes).
    Removing m1130_gpio.o(i.GPIO_PinMask), (32 bytes).
    Removing m1130_gpio.o(i.GPIO_PinUnmask), (32 bytes).
==============================================================================

Image Symbol Table

    Local Symbols

    Symbol Name                              Value     Ov Type        Size  Object(Section)

    RESET                                    0x00000000   Section      176  startup_m1130.o(RESET)
    ../clib/microlib/division.c              0x00000000   Number         0  uldiv.o ABSOLUTE
    ../clib/microlib/division.c              0x00000000   Number         0  uidiv.o ABSOLUTE
    ../clib/microlib/init/entry.s            0x00000000   Number         0  entry8b.o ABSOLUTE
    ../clib/microlib/init/entry.s            0x00000000   Number         0  entry7a.o ABSOLUTE
    ../clib/microlib/init/entry.s            0x00000000   Number         0  entry11b.o ABSOLUTE
    ../clib/microlib/init/entry.s            0x00000000   Number         0  entry7b.o ABSOLUTE
    ../clib/microlib/init/entry.s            0x00000000   Number         0  entry11a.o ABSOLUTE
    ../clib/microlib/init/entry.s            0x00000000   Number         0  entry8a.o ABSOLUTE
    ../clib/microlib/init/entry.s            0x00000000   Number         0  entry2.o ABSOLUTE
    ../clib/microlib/init/entry.s            0x00000000   Number         0  entry10b.o ABSOLUTE
    ../clib/microlib/init/entry.s            0x00000000   Number         0  entry10a.o ABSOLUTE
    ../clib/microlib/init/entry.s            0x00000000   Number         0  entry9b.o ABSOLUTE
    ../clib/microlib/init/entry.s            0x00000000   Number         0  entry.o ABSOLUTE
    ../clib/microlib/init/entry.s            0x00000000   Number         0  entry5.o ABSOLUTE
    ../clib/microlib/init/entry.s            0x00000000   Number         0  entry9a.o ABSOLUTE
    ../clib/microlib/longlong.c              0x00000000   Number         0  llushr.o ABSOLUTE
    ../clib/microlib/longlong.c              0x00000000   Number         0  llsshr.o ABSOLUTE
    ../clib/microlib/longlong.c              0x00000000   Number         0  llshl.o ABSOLUTE
    ../clib/microlib/printf/printf.c         0x00000000   Number         0  printf3.o ABSOLUTE
    ../clib/microlib/printf/printf.c         0x00000000   Number         0  printf2.o ABSOLUTE
    ../clib/microlib/printf/printf.c         0x00000000   Number         0  printf8.o ABSOLUTE
    ../clib/microlib/printf/printf.c         0x00000000   Number         0  printf4.o ABSOLUTE
    ../clib/microlib/printf/printf.c         0x00000000   Number         0  printf5.o ABSOLUTE
    ../clib/microlib/printf/printf.c         0x00000000   Number         0  printfa.o ABSOLUTE
    ../clib/microlib/printf/printf.c         0x00000000   Number         0  printf6.o ABSOLUTE
    ../clib/microlib/printf/printf.c         0x00000000   Number         0  printf7.o ABSOLUTE
    ../clib/microlib/printf/printf.c         0x00000000   Number         0  printfb.o ABSOLUTE
    ../clib/microlib/printf/printf.c         0x00000000   Number         0  printf0.o ABSOLUTE
    ../clib/microlib/printf/printf.c         0x00000000   Number         0  printf1.o ABSOLUTE
    ../clib/microlib/printf/stubs.s          0x00000000   Number         0  stubs.o ABSOLUTE
    ../clib/microlib/stdio/streams.c         0x00000000   Number         0  stdout.o ABSOLUTE
    ../clib/microlib/stubs.s                 0x00000000   Number         0  iusefp.o ABSOLUTE
    ../fplib/microlib/fpadd.c                0x00000000   Number         0  dadd.o ABSOLUTE
    ../fplib/microlib/fpdiv.c                0x00000000   Number         0  ddiv.o ABSOLUTE
    ../fplib/microlib/fpepilogue.c           0x00000000   Number         0  depilogue.o ABSOLUTE
    ../fplib/microlib/fpfix.c                0x00000000   Number         0  dfixul.o ABSOLUTE
    ../fplib/microlib/fpmul.c                0x00000000   Number         0  dmul.o ABSOLUTE
    ..\..\..\Libraries\CMSIS\Device\ALPOS\M1130\Source\Templates\arm\startup_m1130.s 0x00000000   Number         0  startup_m1130.o ABSOLUTE
    ..\..\..\Libraries\CMSIS\Device\ALPOS\M1130\Source\Templates\system_m1130.c 0x00000000   Number         0  system_m1130.o ABSOLUTE
    ..\..\..\Libraries\M1130_StdPeriph_Driver\src\m1130_gpio.c 0x00000000   Number         0  m1130_gpio.o ABSOLUTE
    ..\..\..\Libraries\M1130_StdPeriph_Driver\src\m1130_rcc.c 0x00000000   Number         0  m1130_rcc.o ABSOLUTE
    ..\..\..\Libraries\M1130_StdPeriph_Driver\src\m1130_usart.c 0x00000000   Number         0  m1130_usart.o ABSOLUTE
    ..\..\..\Libraries\M1130_StdPeriph_Driver\src\misc.c 0x00000000   Number         0  misc.o ABSOLUTE
    ..\\..\\..\\Libraries\\CMSIS\\Device\\ALPOS\\M1130\\Source\\Templates\\system_m1130.c 0x00000000   Number         0  system_m1130.o ABSOLUTE
    ..\\..\\..\\Libraries\\M1130_StdPeriph_Driver\\src\\m1130_gpio.c 0x00000000   Number         0  m1130_gpio.o ABSOLUTE
    ..\\..\\..\\Libraries\\M1130_StdPeriph_Driver\\src\\m1130_rcc.c 0x00000000   Number         0  m1130_rcc.o ABSOLUTE
    ..\\..\\..\\Libraries\\M1130_StdPeriph_Driver\\src\\m1130_usart.c 0x00000000   Number         0  m1130_usart.o ABSOLUTE
    ..\\..\\..\\Libraries\\M1130_StdPeriph_Driver\\src\\misc.c 0x00000000   Number         0  misc.o ABSOLUTE
    ..\\src\\m1130_it.c                      0x00000000   Number         0  m1130_it.o ABSOLUTE
    ..\\src\\main.c                          0x00000000   Number         0  main.o ABSOLUTE
    ..\src\m1130_it.c                        0x00000000   Number         0  m1130_it.o ABSOLUTE
    ..\src\main.c                            0x00000000   Number         0  main.o ABSOLUTE
    cdrcmple.s                               0x00000000   Number         0  cdrcmple.o ABSOLUTE
    dc.s                                     0x00000000   Number         0  dc.o ABSOLUTE
    handlers.s                               0x00000000   Number         0  handlers.o ABSOLUTE
    init.s                                   0x00000000   Number         0  init.o ABSOLUTE
    .text                                    0x000000b0   Section       28  startup_m1130.o(.text)
    i.HardFault_Handler                      0x000000cc   Section        0  m1130_it.o(i.HardFault_Handler)
    i.PendSV_Handler                         0x000000ce   Section        0  m1130_it.o(i.PendSV_Handler)
    i.SVC_Handler                            0x000000d0   Section        0  m1130_it.o(i.SVC_Handler)
    i.SysTick_Handler                        0x000000d2   Section        0  m1130_it.o(i.SysTick_Handler)
    i.commonDelay                            0x000000d4   Section        0  m1130_it.o(i.commonDelay)
    .ARM.Collect$$$$00000000                 0x000000e8   Section        0  entry.o(.ARM.Collect$$$$00000000)
    .ARM.Collect$$$$00000001                 0x000000e8   Section        4  entry2.o(.ARM.Collect$$$$00000001)
    .ARM.Collect$$$$00000004                 0x000000ec   Section        4  entry5.o(.ARM.Collect$$$$00000004)
    .ARM.Collect$$$$00000008                 0x000000f0   Section        0  entry7b.o(.ARM.Collect$$$$00000008)
    .ARM.Collect$$$$0000000A                 0x000000f0   Section        0  entry8b.o(.ARM.Collect$$$$0000000A)
    .ARM.Collect$$$$0000000B                 0x000000f0   Section        8  entry9a.o(.ARM.Collect$$$$0000000B)
    .ARM.Collect$$$$0000000D                 0x000000f8   Section        0  entry10a.o(.ARM.Collect$$$$0000000D)
    .ARM.Collect$$$$0000000F                 0x000000f8   Section        0  entry11a.o(.ARM.Collect$$$$0000000F)
    .ARM.Collect$$$$00002712                 0x000000f8   Section        4  entry2.o(.ARM.Collect$$$$00002712)
    __lit__00000000                          0x000000f8   Data           4  entry2.o(.ARM.Collect$$$$00002712)
    .text                                    0x000000fc   Section       36  init.o(.text)
    i.__scatterload_copy                     0x00000120   Section       14  handlers.o(i.__scatterload_copy)
    i.__scatterload_null                     0x0000012e   Section        2  handlers.o(i.__scatterload_null)
    i.__scatterload_zeroinit                 0x00000130   Section       14  handlers.o(i.__scatterload_zeroinit)
    .text                                    0x00000160   Section        0  uidiv.o(.text)
    i.GPIO_ClearPin                          0x0000018c   Section        0  m1130_gpio.o(i.GPIO_ClearPin)
    i.GPIO_SetPinDir                         0x00000190   Section        0  m1130_gpio.o(i.GPIO_SetPinDir)
    i.GPIO_SetPinMux                         0x000001d4   Section        0  m1130_gpio.o(i.GPIO_SetPinMux)
    i.IOtest                                 0x0000023c   Section        0  main.o(i.IOtest)
    i.LED_Init                               0x0000024c   Section        0  main.o(i.LED_Init)
    i.NVIC_Init                              0x00000278   Section        0  misc.o(i.NVIC_Init)
    i.RCC_GetClocksFreq                      0x000002c8   Section        0  m1130_rcc.o(i.RCC_GetClocksFreq)
    i.RCC_ResetAHBCLK                        0x00000468   Section        0  m1130_rcc.o(i.RCC_ResetAHBCLK)
    i.RCC_SETCLKDivider                      0x00000486   Section        0  m1130_rcc.o(i.RCC_SETCLKDivider)
    i.RCC_SetAHBCLK                          0x00000490   Section        0  m1130_rcc.o(i.RCC_SetAHBCLK)
    i.RCC_SetPRESETCTRL                      0x000004a0   Section        0  m1130_rcc.o(i.RCC_SetPRESETCTRL)
    i.RCC_UARTCLKSel                         0x000004b0   Section        0  m1130_rcc.o(i.RCC_UARTCLKSel)
    i.SystemInit                             0x000004c4   Section        0  system_m1130.o(i.SystemInit)
    i.UART1_IRQHandler                       0x00000520   Section        0  main.o(i.UART1_IRQHandler)
    i.UART_Cmd                               0x00000598   Section        0  m1130_usart.o(i.UART_Cmd)
    i.UART_Configuration                     0x000005a8   Section        0  main.o(i.UART_Configuration)
    i.UART_GetFlagStatus                     0x00000708   Section        0  m1130_usart.o(i.UART_GetFlagStatus)
    i.UART_ITConfig                          0x00000716   Section        0  m1130_usart.o(i.UART_ITConfig)
    i.UART_Init                              0x00000724   Section        0  m1130_usart.o(i.UART_Init)
    i.UART_Reset                             0x000007bc   Section        0  m1130_usart.o(i.UART_Reset)
    i.UART_SendData                          0x00000818   Section        0  m1130_usart.o(i.UART_SendData)
    i.UART_StructInit                        0x0000081c   Section        0  m1130_usart.o(i.UART_StructInit)
    i.__0printf$1                            0x00000840   Section        0  printf1.o(i.__0printf$1)
    i.__ARM_common_switch8                   0x00000860   Section        0  main.o(i.__ARM_common_switch8)
    i._printf_core                           0x0000087c   Section        0  printf1.o(i._printf_core)
    _printf_core                             0x0000087d   Thumb Code   332  printf1.o(i._printf_core)
    i.delay_ms                               0x000009cc   Section        0  main.o(i.delay_ms)
    i.fputc                                  0x000009e8   Section        0  main.o(i.fputc)
    i.main                                   0x00000a10   Section        0  main.o(i.main)
    .data                                    0x20000000   Section        8  main.o(.data)
    .data                                    0x20000008   Section        4  stdout.o(.data)
    .bss                                     0x2000000c   Section      256  main.o(.bss)
    STACK                                    0x20000110   Section     1024  startup_m1130.o(STACK)

    Global Symbols

    Symbol Name                              Value     Ov Type        Size  Object(Section)

    BuildAttributes$$THM_ISAv3M$S$PE$A:L22$X:L11$S22$IEEE1$IW$USESV6$~STKCKD$USESV7$~SHL$OSPACE$ROPI$EBA8$MICROLIB$REQ8$PRES8$EABIv2 0x00000000   Number         0  anon$$obj.o ABSOLUTE
    __ARM_use_no_argv                        0x00000000   Number         0  main.o ABSOLUTE
    __Vectors                                0x00000000   Data           4  startup_m1130.o(RESET)
    _printf_a                                0x00000000   Number         0  stubs.o ABSOLUTE
    _printf_c                                0x00000000   Number         0  stubs.o ABSOLUTE
    _printf_charcount                        0x00000000   Number         0  stubs.o ABSOLUTE
    _printf_d                                0x00000000   Number         0  stubs.o ABSOLUTE
    _printf_e                                0x00000000   Number         0  stubs.o ABSOLUTE
    _printf_f                                0x00000000   Number         0  stubs.o ABSOLUTE
    _printf_flags                            0x00000000   Number         0  stubs.o ABSOLUTE
    _printf_fp_dec                           0x00000000   Number         0  stubs.o ABSOLUTE
    _printf_fp_hex                           0x00000000   Number         0  stubs.o ABSOLUTE
    _printf_g                                0x00000000   Number         0  stubs.o ABSOLUTE
    _printf_i                                0x00000000   Number         0  stubs.o ABSOLUTE
    _printf_int_dec                          0x00000000   Number         0  stubs.o ABSOLUTE
    _printf_l                                0x00000000   Number         0  stubs.o ABSOLUTE
    _printf_lc                               0x00000000   Number         0  stubs.o ABSOLUTE
    _printf_ll                               0x00000000   Number         0  stubs.o ABSOLUTE
    _printf_lld                              0x00000000   Number         0  stubs.o ABSOLUTE
    _printf_lli                              0x00000000   Number         0  stubs.o ABSOLUTE
    _printf_llo                              0x00000000   Number         0  stubs.o ABSOLUTE
    _printf_llu                              0x00000000   Number         0  stubs.o ABSOLUTE
    _printf_llx                              0x00000000   Number         0  stubs.o ABSOLUTE
    _printf_longlong_dec                     0x00000000   Number         0  stubs.o ABSOLUTE
    _printf_longlong_hex                     0x00000000   Number         0  stubs.o ABSOLUTE
    _printf_longlong_oct                     0x00000000   Number         0  stubs.o ABSOLUTE
    _printf_ls                               0x00000000   Number         0  stubs.o ABSOLUTE
    _printf_mbtowc                           0x00000000   Number         0  stubs.o ABSOLUTE
    _printf_n                                0x00000000   Number         0  stubs.o ABSOLUTE
    _printf_o                                0x00000000   Number         0  stubs.o ABSOLUTE
    _printf_p                                0x00000000   Number         0  stubs.o ABSOLUTE
    _printf_percent                          0x00000000   Number         0  stubs.o ABSOLUTE
    _printf_pre_padding                      0x00000000   Number         0  stubs.o ABSOLUTE
    _printf_return_value                     0x00000000   Number         0  stubs.o ABSOLUTE
    _printf_s                                0x00000000   Number         0  stubs.o ABSOLUTE
    _printf_sizespec                         0x00000000   Number         0  stubs.o ABSOLUTE
    _printf_str                              0x00000000   Number         0  stubs.o ABSOLUTE
    _printf_truncate_signed                  0x00000000   Number         0  stubs.o ABSOLUTE
    _printf_truncate_unsigned                0x00000000   Number         0  stubs.o ABSOLUTE
    _printf_u                                0x00000000   Number         0  stubs.o ABSOLUTE
    _printf_wc                               0x00000000   Number         0  stubs.o ABSOLUTE
    _printf_wctomb                           0x00000000   Number         0  stubs.o ABSOLUTE
    _printf_widthprec                        0x00000000   Number         0  stubs.o ABSOLUTE
    _printf_x                                0x00000000   Number         0  stubs.o ABSOLUTE
    __cpp_initialize__aeabi_                  - Undefined Weak Reference
    __cxa_finalize                            - Undefined Weak Reference
    __decompress                              - Undefined Weak Reference
    _clock_init                               - Undefined Weak Reference
    _microlib_exit                            - Undefined Weak Reference
    Reset_Handler                            0x000000b1   Thumb Code     8  startup_m1130.o(.text)
    __Vectors_End                            0x000000b0   Data           0  startup_m1130.o(RESET)
    __Vectors_Size                           0x000000b0   Number         0  startup_m1130.o ABSOLUTE
    NMI_Handler                              0x000000b9   Thumb Code     2  startup_m1130.o(.text)
    ADC0_IRQHandler                          0x000000c3   Thumb Code     0  startup_m1130.o(.text)
    BITCOPY_IRQHandler                       0x000000c3   Thumb Code     0  startup_m1130.o(.text)
    BOD_IRQHandler                           0x000000c3   Thumb Code     0  startup_m1130.o(.text)
    BOR_IRQHandler                           0x000000c3   Thumb Code     0  startup_m1130.o(.text)
    CMP_IRQHandler                           0x000000c3   Thumb Code     0  startup_m1130.o(.text)
    DMA_IRQHandler                           0x000000c3   Thumb Code     0  startup_m1130.o(.text)
    GPIO0_IRQHandler                         0x000000c3   Thumb Code     0  startup_m1130.o(.text)
    GPIO1_IRQHandler                         0x000000c3   Thumb Code     0  startup_m1130.o(.text)
    I2C0_IRQHandler                          0x000000c3   Thumb Code     0  startup_m1130.o(.text)
    LED_IRQHandler                           0x000000c3   Thumb Code     0  startup_m1130.o(.text)
    QSPI0_IRQHandler                         0x000000c3   Thumb Code     0  startup_m1130.o(.text)
    QSPI1_IRQHandler                         0x000000c3   Thumb Code     0  startup_m1130.o(.text)
    QSPI2_IRQHandler                         0x000000c3   Thumb Code     0  startup_m1130.o(.text)
    RTC_IRQHandler                           0x000000c3   Thumb Code     0  startup_m1130.o(.text)
    TIM15_IRQHandler                         0x000000c3   Thumb Code     0  startup_m1130.o(.text)
    TIM16_IRQHandler                         0x000000c3   Thumb Code     0  startup_m1130.o(.text)
    TIM17_IRQHandler                         0x000000c3   Thumb Code     0  startup_m1130.o(.text)
    TIM1_IRQHandler                          0x000000c3   Thumb Code     0  startup_m1130.o(.text)
    TIM4_IRQHandler                          0x000000c3   Thumb Code     0  startup_m1130.o(.text)
    UART0_IRQHandler                         0x000000c3   Thumb Code     0  startup_m1130.o(.text)
    UART2_IRQHandler                         0x000000c3   Thumb Code     0  startup_m1130.o(.text)
    USB0_DMA_IRQHandler                      0x000000c3   Thumb Code     0  startup_m1130.o(.text)
    USB0_IRQHandler                          0x000000c3   Thumb Code     0  startup_m1130.o(.text)
    WKT_IRQHandler                           0x000000c3   Thumb Code     0  startup_m1130.o(.text)
    HardFault_Handler                        0x000000cd   Thumb Code     2  m1130_it.o(i.HardFault_Handler)
    PendSV_Handler                           0x000000cf   Thumb Code     2  m1130_it.o(i.PendSV_Handler)
    SVC_Handler                              0x000000d1   Thumb Code     2  m1130_it.o(i.SVC_Handler)
    SysTick_Handler                          0x000000d3   Thumb Code     2  m1130_it.o(i.SysTick_Handler)
    commonDelay                              0x000000d5   Thumb Code    18  m1130_it.o(i.commonDelay)
    __main                                   0x000000e9   Thumb Code     0  entry.o(.ARM.Collect$$$$00000000)
    _main_stk                                0x000000e9   Thumb Code     0  entry2.o(.ARM.Collect$$$$00000001)
    _main_scatterload                        0x000000ed   Thumb Code     0  entry5.o(.ARM.Collect$$$$00000004)
    __main_after_scatterload                 0x000000f1   Thumb Code     0  entry5.o(.ARM.Collect$$$$00000004)
    _main_clock                              0x000000f1   Thumb Code     0  entry7b.o(.ARM.Collect$$$$00000008)
    _main_cpp_init                           0x000000f1   Thumb Code     0  entry8b.o(.ARM.Collect$$$$0000000A)
    _main_init                               0x000000f1   Thumb Code     0  entry9a.o(.ARM.Collect$$$$0000000B)
    __rt_final_cpp                           0x000000f9   Thumb Code     0  entry10a.o(.ARM.Collect$$$$0000000D)
    __rt_final_exit                          0x000000f9   Thumb Code     0  entry11a.o(.ARM.Collect$$$$0000000F)
    __scatterload                            0x000000fd   Thumb Code    28  init.o(.text)
    __scatterload_rt2                        0x000000fd   Thumb Code     0  init.o(.text)
    __scatterload_copy                       0x00000121   Thumb Code    14  handlers.o(i.__scatterload_copy)
    __scatterload_null                       0x0000012f   Thumb Code     2  handlers.o(i.__scatterload_null)
    __scatterload_zeroinit                   0x00000131   Thumb Code    14  handlers.o(i.__scatterload_zeroinit)
    Region$$Table$$Base                      0x00000140   Number         0  anon$$obj.o(Region$$Table)
    Region$$Table$$Limit                     0x00000160   Number         0  anon$$obj.o(Region$$Table)
    __aeabi_uidiv                            0x00000161   Thumb Code     0  uidiv.o(.text)
    __aeabi_uidivmod                         0x00000161   Thumb Code    44  uidiv.o(.text)
    GPIO_ClearPin                            0x0000018d   Thumb Code     4  m1130_gpio.o(i.GPIO_ClearPin)
    GPIO_SetPinDir                           0x00000191   Thumb Code    56  m1130_gpio.o(i.GPIO_SetPinDir)
    GPIO_SetPinMux                           0x000001d5   Thumb Code    94  m1130_gpio.o(i.GPIO_SetPinMux)
    IOtest                                   0x0000023d   Thumb Code    10  main.o(i.IOtest)
    LED_Init                                 0x0000024d   Thumb Code    38  main.o(i.LED_Init)
    NVIC_Init                                0x00000279   Thumb Code    72  misc.o(i.NVIC_Init)
    RCC_GetClocksFreq                        0x000002c9   Thumb Code   398  m1130_rcc.o(i.RCC_GetClocksFreq)
    RCC_ResetAHBCLK                          0x00000469   Thumb Code    30  m1130_rcc.o(i.RCC_ResetAHBCLK)
    RCC_SETCLKDivider                        0x00000487   Thumb Code    10  m1130_rcc.o(i.RCC_SETCLKDivider)
    RCC_SetAHBCLK                            0x00000491   Thumb Code    16  m1130_rcc.o(i.RCC_SetAHBCLK)
    RCC_SetPRESETCTRL                        0x000004a1   Thumb Code    16  m1130_rcc.o(i.RCC_SetPRESETCTRL)
    RCC_UARTCLKSel                           0x000004b1   Thumb Code    14  m1130_rcc.o(i.RCC_UARTCLKSel)
    SystemInit                               0x000004c5   Thumb Code    76  system_m1130.o(i.SystemInit)
    UART1_IRQHandler                         0x00000521   Thumb Code   108  main.o(i.UART1_IRQHandler)
    UART_Cmd                                 0x00000599   Thumb Code    14  m1130_usart.o(i.UART_Cmd)
    UART_Configuration                       0x000005a9   Thumb Code   332  main.o(i.UART_Configuration)
    UART_GetFlagStatus                       0x00000709   Thumb Code    14  m1130_usart.o(i.UART_GetFlagStatus)
    UART_ITConfig                            0x00000717   Thumb Code    12  m1130_usart.o(i.UART_ITConfig)
    UART_Init                                0x00000725   Thumb Code   130  m1130_usart.o(i.UART_Init)
    UART_Reset                               0x000007bd   Thumb Code    78  m1130_usart.o(i.UART_Reset)
    UART_SendData                            0x00000819   Thumb Code     4  m1130_usart.o(i.UART_SendData)
    UART_StructInit                          0x0000081d   Thumb Code    34  m1130_usart.o(i.UART_StructInit)
    __0printf$1                              0x00000841   Thumb Code    24  printf1.o(i.__0printf$1)
    __1printf$1                              0x00000841   Thumb Code     0  printf1.o(i.__0printf$1)
    __2printf                                0x00000841   Thumb Code     0  printf1.o(i.__0printf$1)
    __ARM_common_switch8                     0x00000861   Thumb Code    26  main.o(i.__ARM_common_switch8)
    delay_ms                                 0x000009cd   Thumb Code    26  main.o(i.delay_ms)
    fputc                                    0x000009e9   Thumb Code    34  main.o(i.fputc)
    main                                     0x00000a11   Thumb Code   170  main.o(i.main)
    TIMES                                    0x20000000   Data           1  main.o(.data)
    rxlen                                    0x20000002   Data           2  main.o(.data)
    rx_flag                                  0x20000004   Data           2  main.o(.data)
    rx_ptr                                   0x20000006   Data           2  main.o(.data)
    __stdout                                 0x20000008   Data           4  stdout.o(.data)
    rx_buf                                   0x2000000c   Data         256  main.o(.bss)
    __initial_sp                             0x20000510   Data           0  startup_m1130.o(STACK)



==============================================================================

Memory Map of the image

  Image Entry point : 0x000000e9

  Load Region LR_IROM1 (Base: 0x00000000, Size: 0x00000b44, Max: 0x00040000, ABSOLUTE)

    Execution Region ER_RESET (Base: 0x00000000, Size: 0x000000b0, Max: 0xffffffff, ABSOLUTE)

    Base Addr    Size         Type   Attr      Idx    E Section Name        Object

    0x00000000   0x000000b0   Data   RO           57    RESET               startup_m1130.o


    Execution Region ER_INT (Base: 0x000000b0, Size: 0x00000038, Max: 0xffffffff, ABSOLUTE)

    Base Addr    Size         Type   Attr      Idx    E Section Name        Object

    0x000000b0   0x0000001c   Code   RO           58    .text               startup_m1130.o
    0x000000cc   0x00000002   Code   RO          609    i.HardFault_Handler  m1130_it.o
    0x000000ce   0x00000002   Code   RO          611    i.PendSV_Handler    m1130_it.o
    0x000000d0   0x00000002   Code   RO          612    i.SVC_Handler       m1130_it.o
    0x000000d2   0x00000002   Code   RO          613    i.SysTick_Handler   m1130_it.o
    0x000000d4   0x00000012   Code   RO          615    i.commonDelay       m1130_it.o


    Execution Region ER_LIB (Base: 0x000000e8, Size: 0x00000078, Max: 0xffffffff, ABSOLUTE)

    Base Addr    Size         Type   Attr      Idx    E Section Name        Object

    0x000000e8   0x00000000   Code   RO          741  * .ARM.Collect$$$$00000000  mc_p.l(entry.o)
    0x000000e8   0x00000004   Code   RO         1007    .ARM.Collect$$$$00000001  mc_p.l(entry2.o)
    0x000000ec   0x00000004   Code   RO         1010    .ARM.Collect$$$$00000004  mc_p.l(entry5.o)
    0x000000f0   0x00000000   Code   RO         1012    .ARM.Collect$$$$00000008  mc_p.l(entry7b.o)
    0x000000f0   0x00000000   Code   RO         1014    .ARM.Collect$$$$0000000A  mc_p.l(entry8b.o)
    0x000000f0   0x00000008   Code   RO         1015    .ARM.Collect$$$$0000000B  mc_p.l(entry9a.o)
    0x000000f8   0x00000000   Code   RO         1017    .ARM.Collect$$$$0000000D  mc_p.l(entry10a.o)
    0x000000f8   0x00000000   Code   RO         1019    .ARM.Collect$$$$0000000F  mc_p.l(entry11a.o)
    0x000000f8   0x00000004   Code   RO         1008    .ARM.Collect$$$$00002712  mc_p.l(entry2.o)
    0x000000fc   0x00000024   Code   RO         1035    .text               mc_p.l(init.o)
    0x00000120   0x0000000e   Code   RO         1049    i.__scatterload_copy  mc_p.l(handlers.o)
    0x0000012e   0x00000002   Code   RO         1050    i.__scatterload_null  mc_p.l(handlers.o)
    0x00000130   0x0000000e   Code   RO         1051    i.__scatterload_zeroinit  mc_p.l(handlers.o)
    0x0000013e   0x00000002   PAD
    0x00000140   0x00000020   Data   RO         1047    Region$$Table       anon$$obj.o


    Execution Region ER_ANY (Base: 0x00000160, Size: 0x000009d8, Max: 0xffffffff, ABSOLUTE)

    Base Addr    Size         Type   Attr      Idx    E Section Name        Object

    0x00000160   0x0000002c   Code   RO          744    .text               mc_p.l(uidiv.o)
    0x0000018c   0x00000004   Code   RO           64    i.GPIO_ClearPin     m1130_gpio.o
    0x00000190   0x00000044   Code   RO           82    i.GPIO_SetPinDir    m1130_gpio.o
    0x000001d4   0x00000068   Code   RO           83    i.GPIO_SetPinMux    m1130_gpio.o
    0x0000023c   0x00000010   Code   RO          678    i.IOtest            main.o
    0x0000024c   0x0000002c   Code   RO          679    i.LED_Init          main.o
    0x00000278   0x00000050   Code   RO          575    i.NVIC_Init         misc.o
    0x000002c8   0x000001a0   Code   RO          233    i.RCC_GetClocksFreq  m1130_rcc.o
    0x00000468   0x0000001e   Code   RO          244    i.RCC_ResetAHBCLK   m1130_rcc.o
    0x00000486   0x0000000a   Code   RO          245    i.RCC_SETCLKDivider  m1130_rcc.o
    0x00000490   0x00000010   Code   RO          247    i.RCC_SetAHBCLK     m1130_rcc.o
    0x000004a0   0x00000010   Code   RO          248    i.RCC_SetPRESETCTRL  m1130_rcc.o
    0x000004b0   0x00000014   Code   RO          250    i.RCC_UARTCLKSel    m1130_rcc.o
    0x000004c4   0x0000005c   Code   RO            3    i.SystemInit        system_m1130.o
    0x00000520   0x00000078   Code   RO          680    i.UART1_IRQHandler  main.o
    0x00000598   0x0000000e   Code   RO          412    i.UART_Cmd          m1130_usart.o
    0x000005a6   0x00000002   PAD
    0x000005a8   0x00000160   Code   RO          681    i.UART_Configuration  main.o
    0x00000708   0x0000000e   Code   RO          414    i.UART_GetFlagStatus  m1130_usart.o
    0x00000716   0x0000000c   Code   RO          416    i.UART_ITConfig     m1130_usart.o
    0x00000722   0x00000002   PAD
    0x00000724   0x00000098   Code   RO          417    i.UART_Init         m1130_usart.o
    0x000007bc   0x0000005c   Code   RO          426    i.UART_Reset        m1130_usart.o
    0x00000818   0x00000004   Code   RO          427    i.UART_SendData     m1130_usart.o
    0x0000081c   0x00000022   Code   RO          429    i.UART_StructInit   m1130_usart.o
    0x0000083e   0x00000002   PAD
    0x00000840   0x00000020   Code   RO          791    i.__0printf$1       mc_p.l(printf1.o)
    0x00000860   0x0000001a   Code   RO          733    i.__ARM_common_switch8  main.o
    0x0000087a   0x00000002   PAD
    0x0000087c   0x00000150   Code   RO          798    i._printf_core      mc_p.l(printf1.o)
    0x000009cc   0x0000001a   Code   RO          682    i.delay_ms          main.o
    0x000009e6   0x00000002   PAD
    0x000009e8   0x00000028   Code   RO          683    i.fputc             main.o
    0x00000a10   0x00000128   Code   RO          684    i.main              main.o


    Execution Region RW_IRAM1 (Base: 0x20000000, Size: 0x00000510, Max: 0x00008000, ABSOLUTE)

    Base Addr    Size         Type   Attr      Idx    E Section Name        Object

    0x20000000   0x00000008   Data   RW          686    .data               main.o
    0x20000008   0x00000004   Data   RW         1021    .data               mc_p.l(stdout.o)
    0x2000000c   0x00000100   Zero   RW          685    .bss                main.o
    0x2000010c   0x00000004   PAD
    0x20000110   0x00000400   Zero   RW           55    STACK               startup_m1130.o


==============================================================================

Image component sizes


      Code (inc. data)   RO Data    RW Data    ZI Data      Debug   Object Name

       176         22          0          0          0       7166   m1130_gpio.o
        26          0          0          0          0       2323   m1130_it.o
       508         24          0          0          0       4803   m1130_rcc.o
       322         36          0          0          0      15899   m1130_usart.o
       920        184          0          8        256       5482   main.o
        80          8          0          0          0       1176   misc.o
        28          8        176          0       1024        744   startup_m1130.o
        92         16          0          0          0      67549   system_m1130.o

    ----------------------------------------------------------------------
      2164        298        208          8       1284     105142   Object Totals
         0          0         32          0          0          0   (incl. Generated)
        12          0          0          0          4          0   (incl. Padding)

    ----------------------------------------------------------------------

      Code (inc. data)   RO Data    RW Data    ZI Data      Debug   Library Member Name

         0          0          0          0          0          0   entry.o
         0          0          0          0          0          0   entry10a.o
         0          0          0          0          0          0   entry11a.o
         8          4          0          0          0          0   entry2.o
         4          0          0          0          0          0   entry5.o
         0          0          0          0          0          0   entry7b.o
         0          0          0          0          0          0   entry8b.o
         8          4          0          0          0          0   entry9a.o
        30          0          0          0          0          0   handlers.o
        36          8          0          0          0         68   init.o
       368         12          0          0          0        168   printf1.o
         0          0          0          4          0          0   stdout.o
        44          0          0          0          0         72   uidiv.o

    ----------------------------------------------------------------------
       500         28          0          4          0        308   Library Totals
         2          0          0          0          0          0   (incl. Padding)

    ----------------------------------------------------------------------

      Code (inc. data)   RO Data    RW Data    ZI Data      Debug   Library Name

       498         28          0          4          0        308   mc_p.l

    ----------------------------------------------------------------------
       500         28          0          4          0        308   Library Totals

    ----------------------------------------------------------------------

==============================================================================


      Code (inc. data)   RO Data    RW Data    ZI Data      Debug   

      2664        326        208         12       1284     104370   Grand Totals
      2664        326        208         12       1284     104370   ELF Image Totals
      2664        326        208         12          0          0   ROM Totals

==============================================================================

    Total RO  Size (Code + RO Data)                 2872 (   2.80kB)
    Total RW  Size (RW Data + ZI Data)              1296 (   1.27kB)
    Total ROM Size (Code + RO Data + RW Data)       2884 (   2.82kB)

==============================================================================

