:020000040000FA
:10000000B8080020B1000000B9000000CD000000D9
:1000100000000000000000000000000000000000E0
:10002000000000000000000000000000D1000000FF
:100030000000000000000000CF000000D30000001E
:10004000C3000000C3000000C3000000C3000000A4
:10005000C3000000C3000000C3000000C300000094
:10006000C3000000290F00003D0F0000DD04000068
:10007000510F0000C3000000C3000000C3000000D7
:1000800031020000C3000000C3000000C3000000F4
:1000900000000000C3000000C3000000C300000017
:1000A0000000000000000000C3000000C3000000CA
:1000B0000448804704480047FEE7FEE7FEE7FEE706
:1000C000FEE7FEE7CD0E0000E9000000FEE7704706
:1000D0007047704701B502E00098401E00900098FC
:1000E0000028F9D108BD00000348854600F006F855
:1000F00000480047C91C0000B8080020064C012534
:10010000064E05E0E36807CC2B430C3C98471034BF
:10011000B442F7D3FFF7ECFF40010000600100009C
:1001200002E008C8121F08C1002AFAD170477047C0
:10013000002001E001C1121F002AFBD1704700001E
:10014000081E0000000000206400000020010000E4
:100150006C1E000064000020540800003001000004
:1001600030B50B46014600202022012409E00D464F
:10017000D5409D4205D31D469540491B25469540D7
:1001800040191546521E002DF1DC30BDF0B51FB4EC
:100190000646002082B005464024019100901BE0F5
:1001A000019922460F46304600F030F8049A059B2C
:1001B000801A994110D310461946224600F016F8CD
:1001C000361A8F410197224601200021009F00F03E
:1001D0000DF838184D4100902046641E0028DFDCE1
:1001E000019B00982946324607B0F0BD10B5202A81
:1001F00004DB0146203A9140002010BD91402023AD
:100200009C1A0346E3401943904010BD10B5202AC4
:1002100004DB0846203AD040002110BD0B46D340F5
:10022000D0402024A21A91400843194610BD000076
:1002300010B50121002000F069F8194C002806D003
:100240002068002800D08047002000F02BF8012112
:10025000084600F05BF8002806D06068002800D04F
:100260008047012000F01EF80121022000F04EF826
:10027000002806D0A068002800D08047022000F0A7
:1002800011F80121032000F041F8002806D0E068B1
:10029000002800D08047032000F004F810BD0000C3
:1002A0006400002010B50446002C0AD0012C08D0B0
:1002B000022C06D0032C04D0FF21A43103A001F0AE
:1002C000A1FC01201049A040886310BD2E2E5C2E99
:1002D0002E5C2E2E5C4C69627261726965735C4D96
:1002E000313133305F5374645065726970685F44B4
:1002F00072697665725C7372635C6D313133305F45
:10030000646D612E630000000003054070B5044673
:100310000D46002C0AD0012C08D0022C06D0032C4C
:1003200004D0FF218A3107A001F06CFC012214489F
:10033000A240002D02D0806A104070BD00681040BD
:1003400070BD00002E2E5C2E2E5C2E2E5C4C696241
:100350007261726965735C4D313133305F5374641F
:100360005065726970685F4472697665725C737219
:10037000635C6D313133305F646D612E630000006A
:10038000C002054070B5164B1824984213D10020C6
:10039000144D0B46C340DB07DB0F002B07D0830057
:1003A0005B191E68A6431E601E6816431E60401C33
:1003B0002028EED370BD00200A4D80350B46C34087
:1003C000DB07DB0F002B07D083005B191E68A643F9
:1003D0001E601E6816431E60401C2028EED370BDB0
:1003E0000000024000100040F8B506460D461446D5
:1003F000284FBE4206D02848864203D0BE2127A0FF
:1004000001F000FC002D03D1BF2124A001F0FAFB74
:10041000002C11D0012C0FD0022C0DD0032C0BD0AE
:10042000042C09D0052C07D0062C05D0072C03D0AE
:10043000C0211AA001F0E6FBBE4214D10020264ADA
:100440002946C140C907C90F002908D08100891871
:100450000B68DB08DB000B600B6823430B60401C60
:100460002028EDD3F8BD00201B4A80322946C14028
:10047000C907C90F002908D0810089180B68DB085B
:10048000DB000B600B6823430B60401C2028EDD37E
:10049000F8BD000000000240000003402E2E5C2E3C
:1004A0002E5C2E2E5C4C69627261726965735C4DC4
:1004B000313133305F5374645065726970685F44E2
:1004C00072697665725C7372635C6D313133305F73
:1004D0006770696F2E63000000100040F8B52E4F62
:1004E000384600F0C9F9002400284BD054210840B8
:1004F00005462A4E3078012803D0022801D005286D
:1005000038D1680604D58021384600F08BFA0446BD
:10051000384600F047F8680613D5204601F0A4FBE2
:10052000E00704D0200702D40620307017E020072F
:1005300001D5E00702D0082030701BE007203070A2
:100540000DE0680702D501F097FB08E0E80606D544
:10055000384600F08DF9400701D50420307030781E
:10056000032810D004280ED006280CD007280AD063
:10057000022807D0384600F015F80022084938460E
:1005800000F0A8F9F8BD384600F00CF80022044944
:10059000384600F09FF9F8BD004000400000002000
:1005A000FF0F000038B50446002000900648844242
:1005B00003D0064906A001F025FB206C00900098AE
:1005C000401C009038BD0000004000404302000085
:1005D0002E2E5C2E2E5C2E2E5C4C6962726172692E
:1005E00065735C4D313133305F53746450657269AB
:1005F00070685F4472697665725C7372635C6D31BA
:100600003133305F6932632E63000000F8B5054670
:100610000C46002000902948854203D0284929A093
:1006200001F0F0FA01267602B700012C2BD0022C43
:1006300029D0042C27D0082C25D0102C23D0202CF6
:1006400021D0402C1FD0802C1DD0E01FF9381AD0AB
:10065000B44218D07000844215D0BC4213D0800040
:10066000844210D0400084420DD0400084420AD021
:100670004000844207D02248844204D0104911A08F
:10068000491C01F0BFFAA00511D528468030016849
:1006900000910099B14301602868009000982021E2
:1006A00008432860686800900098B8436860686DE7
:1006B00000900098401C0090F8BD000000400040F1
:1006C0009D0200002E2E5C2E2E5C2E2E5C4C69624C
:1006D0007261726965735C4D313133305F5374649C
:1006E0005065726970685F4472697665725C737296
:1006F000635C6D313133305F6932632E630000001B
:10070000FFFF0000FEB504460D46802000F044FBCC
:10071000504E002D04D0012D0DD0022D16D020E01A
:10072000022201213046FFF75FFE022211463046C9
:10073000FFF75AFE15E0032208213046FFF754FE6A
:10074000032210213046FFF74FFE0AE0424D0222FD
:10075000D1062846FFF748FE022211072846FFF778
:1007600043FE012080053D490026CE623B4A4032CF
:1007700003E0CE62401E002835D00B6BDB07F8D1BA
:10078000D369DB07F5D1354D403D286B000B0003E5
:10079000286310686B159843106068689A0090434E
:1007A00068604869601C400061210843286080201F
:1007B00000F022FA7D21C900FFF7D2FC284A294F18
:1007C000904213D31146FFF7CBFC61007A5A0832EE
:1007D0004243083A97B2234A121D515A491C4843D2
:1007E000401E80B227E00020C043FEBD012C00D196
:1007F00000241D49884206D07D214901884202D04B
:100800001A49884220D101461046FFF7A9FC01464B
:10081000019060000090385A0830FFF7A1FC0838BA
:1008200087B2104A0098121D105A0199401CFFF718
:1008300097FC401E80B2002C09D0EF612862AE63A5
:10084000EE636E600020FEBD0020C043FEBD6F6100
:10085000A861F4E70000024000000340404000406F
:10086000E02E0000A81D000070170000B80B00006B
:10087000006F4006400E704710B50446054884429C
:1008800004D0FF21F83104A001F0BCF9E06A0005B2
:10089000000D10BD004000402E2E5C2E2E5C2E2E32
:1008A0005C4C69627261726965735C4D31313330E1
:1008B0005F5374645065726970685F4472697665ED
:1008C000725C7372635C6D313133305F6932632EF9
:1008D0006300000070B504460D4616461448844275
:1008E00004D0FF21A43113A001F08CF9002E06D012
:1008F000012E04D0FF21A5310EA001F083F9280BB1
:1009000001D1002D07D11A48854204D0FF21A6311C
:1009100008A001F077F9002E03D0206B2843206354
:1009200070BD206BE94389B20840206370BD0000B0
:10093000004000402E2E5C2E2E5C2E2E5C4C6962F8
:100940007261726965735C4D313133305F53746429
:100950005065726970685F4472697665725C737223
:10096000635C6D313133305F6932632E63000000A8
:10097000FF0F0000F0B5844696460126B605284CC8
:100980000020E062264A403203E0E062761E002E3C
:1009900021D0256BED07F8D1D569ED07F5D1204DB4
:1009A000403D2E68202006432E606868860AB60205
:1009B00028150643604606436E600120E0627246D9
:1009C000521E002A15DB01208005D7000E46FE408E
:1009D000F6B22E6103E00020C043F0BD401E266B3E
:1009E000760701D40028F9D1002806D0521E002A2B
:1009F000E9DA0020FF2201320CE00020C043F0BD04
:100A0000216BC90600D42A61216B090702D5296927
:100A10001954401C05998842F2DB0020F0BD00000B
:100A20004040004038B505460C46002000900C4878
:100A3000854204D0FF2188310AA001F0E3F8A00725
:100A400001D19C2C04D9FF21893106A001F0DAF8EC
:100A500000950098001900900098006838BD0000CB
:100A6000004000402E2E5C2E2E5C2E2E5C4C6962C7
:100A70007261726965735C4D313133305F537464F8
:100A80005065726970685F4472697665725C7372F2
:100A9000635C6D313133305F6932632E6300000077
:100AA000FFB504468C469E460126B6053046294FC2
:100AB0000025FD62274A691E403203E0FD62401EA8
:100AC00000281FD03B6BDB07F8D1D369DB07F5D1DA
:100AD0002048403802682025AA4302604268920AF2
:100AE000920205152A43224342600122FA62029CC7
:100AF000641E002C14DB3246E5006346EB40DDB299
:100B0000056103E0084604B0F0BD521E3D6B6D0761
:100B100001D4002AF9D1002A04D0641E002CEADA9C
:100B200000230FE00846EEE732467446E45C0461B9
:100B300000E0521E3C6B640701D4002AF9D1002A60
:100B400005D05B1C099A9342EEDB0020DBE70846E8
:100B5000D9E700004040004070B50446A078002866
:100B600005D0012803D0882113A001F04BF8A0780C
:100B70000123002817D021781D488A0892001018F8
:100B800002688907C90EFF258D40AA436578AD0725
:100B90002D0E8D40154305602078C006C00E8340A1
:100BA0001448036070BD2078C006C00E8340114811
:100BB0008030036070BD00002E2E5C2E2E5C2E2E29
:100BC0005C4C69627261726965735C4D31313330BE
:100BD0005F5374645065726970685F4472697665CA
:100BE000725C7372635C6D6973632E630000000056
:100BF00000E400E000E100E0F8B50446624908695D
:100C0000C0B28A69D5B2896ACFB201218907096B5E
:100C10005E4AC906C90E0A3151430091002806D028
:100C2000012806D0022806D0032806D006E0574E39
:100C300004E0009E02E0554E00E0554E5248403020
:100C400001683046FFF78CFA802C1CD00120800709
:100C50002018902C0AD0942C08D0982C06D0B42CB4
:100C60002BD0B82C4AD0A02C74D0FEE701780029F4
:100C700008D0002D08D0012D0CD0022D10D0032D4E
:100C800014D018E00020F8BD01784048FFF768FA5A
:100C9000044610E001780098FFF762FA04460AE083
:100CA00001783A48FFF75CFA044604E001783848D6
:100CB000FFF756FA04462046F8BD33484030416BF2
:100CC000002906D0002F06D0012F0AD0022F0ED007
:100CD00012E00020F8BD416B2C48FFF741FA0446B2
:100CE0000AE0416B0098FFF73BFA044604E0416BD1
:100CF0002648FFF735FA04462046F8BD2248403022
:100D0000816B00290CD021000CD0012C10D0022CBA
:100D100014D0032C18D0042C1DD0052C22D026E092
:100D20000020F8BD816B1948FFF71AFA04461EE04F
:100D3000816B3046FFF714FA044618E0816B1448C3
:100D4000FFF70EFA044612E0816B1048FFF708FA2D
:100D500004460CE00DE0816B7D200002FFF700FAF5
:100D6000044604E0816B0B48FFF7FAF9044620467D
:100D7000F8BD0178002904D001783046FFF7F0F97A
:100D8000F8BD0020F8BD000040000040001BB70087
:100D900010270000006CDC0200B503460121184654
:100DA00000F04EF80021184600F052F801211846D4
:100DB00000F04EF800BD000070B504460D46802CD2
:100DC0001BD0902C19D0942C17D0982C15D0A02C77
:100DD00013D0A42C11D0A82C0FD0AC2C0DD0B42C37
:100DE0000BD0B82C09D0BC2C07D0C02C05D0D02CEF
:100DF00003D0E92103A000F005FF0120800720189F
:100E0000057070BD2E2E5C2E2E5C2E2E5C4C696201
:100E10007261726965735C4D313133305F53746454
:100E20005065726970685F4472697665725C73724E
:100E3000635C6D313133305F7263632E6300000099
:100E400001229207002901D05061704790617047DC
:100E500001229207002901D05060704790607047CE
:100E600010B50446002C09D0012C07D0022C05D067
:100E7000032C03D0A72105A000F0C4FE1248846112
:100E80000021C1610121C16110BD00002E2E5C2E28
:100E90002E5C2E2E5C4C69627261726965735C4DCA
:100EA000313133305F5374645065726970685F44E8
:100EB00072697665725C7372635C6D313133305F79
:100EC0007263632E630000004000004010B50020F4
:100ED0000121114A89074A61104B04221A60104A05
:100EE0009368FF241234A34393600E4A0A63CA1323
:100EF00003E00346401C934202D24B6B012BF8D116
:100F00007D20C000FFF7E6F8044801214038016168
:100F100000224261416110BD1808000080000040BD
:100F2000000200401600008010B50249024800F09F
:100F3000DDF910BD940000200020004010B50249EA
:100F4000024800F0D3F910BDA0010020003000409D
:100F500010B50249024800F0C9F910BDAC020020EA
:100F60000060004070B504460D460E48844209D02A
:100F70000D48844206D00D48844203D0DF210CA0E6
:100F800000F040FE002D05D0012D03D0E02108A087
:100F900000F038FE0120002D01D0606270BDA0621B
:100FA00070BD0000002000400030004000600040A4
:100FB0002E2E5C2E2E5C2E2E5C4C69627261726944
:100FC00065735C4D313133305F53746450657269C1
:100FD00070685F4472697665725C7372635C6D31D0
:100FE0003133305F75736172742E6300F0B58BB06E
:100FF00004460E4615460120FFF732FF4E48844254
:101000000AD12020FFF7C8FE04219020FFF7D4FE6C
:101010000920694608701BE0484884420AD14020F4
:10102000FFF7BAFE04219420FFF7C6FE0A206946A6
:1010300008700DE0424884420AD10120C006FFF743
:10104000ABFE04219820FFF7B7FE0C20694608701C
:101050002A463C4F3C48BD00130000F08BFB0604C1
:10106000111C27323D470121032209043846FFF7AE
:10107000BBF90121032249043846FFF7B5F935E0F1
:101080000222D1050746FFF7AFF9022211063846C2
:10109000FFF7AAF92AE0022204213846FFF7A4F953
:1010A000022208213846FFF79FF91FE0022251046F
:1010B0003846FFF799F9022229463846FFF794F996
:1010C00014E0032201213846FFF78EF903220221A2
:1010D0003846FFF789F909E0022251060746FFF773
:1010E00083F9022291063846FFF77EF9012069460E
:1010F0008870022048706846FFF72EFD204600F0F9
:1011000089FA01A800F014FB0496012080050290E2
:1011100001A9204600F06EF9FF200004A060656080
:10112000052101220905204600F012F9012120467F
:10113000FFF718FF0BB0F0BD00200040003000406A
:10114000006000400000024000000340F8B5054682
:101150000C460026234FBD4209D02348854206D0C5
:101160002248854203D0224922A000F04BFD0120F5
:10117000000484421FD0400084421CD040008442BE
:1011800019D04000844216D04001844213D0400060
:10119000844210D0400084420DD0400084420AD0E6
:1011A0004000844207D04000844204D04D21C90051
:1011B00010A000F027FD0120000784420CD1BD42A1
:1011C0000AD00948854207D00848854204D09B21AF
:1011D000890008A000F016FD286E204200D00126EC
:1011E0003046F8BD00200040003000400060004064
:1011F000670200002E2E5C2E2E5C2E2E5C4C696247
:101200007261726965735C4D313133305F53746460
:101210005065726970685F4472697665725C73725A
:10122000635C6D313133305F75736172742E6300AE
:1012300070B505460C4600261948854209D0194864
:10124000854206D01848854203D0184918A000F0FE
:10125000D9FC102C1DD0202C1BD0402C19D0802C58
:1012600017D0E01FF93814D0FF38013811D0012011
:10127000800284420DD0400084420AD04000844263
:1012800007D04000844204D05521C90008A000F0D6
:10129000B9FC286C204200D00126304670BD000009
:1012A000002000400030004000600040A702000025
:1012B0002E2E5C2E2E5C2E2E5C4C69627261726941
:1012C00065735C4D313133305F53746450657269BE
:1012D00070685F4472697665725C7372635C6D31CD
:1012E0003133305F75736172742E6300F8B5064652
:1012F0000D4610213046FFF79BFF0127EC1D3F06EE
:10130000F934002805D10AE0316DA068421CA260C2
:10131000295439463046FFF719FF0028F4D0402100
:101320003046FFF785FF002805D1F8BD316DA06874
:10133000421CA260295439463046FFF707FF0028B7
:10134000F4D0A0682060012060600020A060F8BD9B
:1013500070B504460D461646134884420AD0134819
:10136000844207D01248844204D0FF213D3111A0AD
:1013700000F048FCA800800D02D01D48054204D0B2
:10138000FF213E310BA000F03DFC002E06D0012EC7
:1013900004D0FF213F3107A000F034FC002E01D023
:1013A000656470BDA56470BD002000400030004041
:1013B000006000402E2E5C2E2E5C2E2E5C4C69624E
:1013C0007261726965735C4D313133305F5374649F
:1013D0005065726970685F4472697665725C737299
:1013E000635C6D313133305F75736172742E6300ED
:1013F000FFFF0FC0FEB505460C4600200090714E61
:10140000714FB54208D0BD4206D07048854203D026
:101410008F216FA000F0F6FB2069002809D020285A
:1014200007D0402805D0602803D0912168A000F0A3
:10143000E9FB6069002805D0082803D0922164A048
:1014400000F0E0FBA06900280BD0062809D0022894
:1014500007D0822805D0862803D093215CA000F015
:10146000D1FBE069C11FF9390AD0FF39013907D032
:1014700003210902884203D0942155A000F0C2FB49
:10148000206A00280ED00121890388420AD0490031
:10149000884207D003218903884203D095214CA0BC
:1014A00000F0B0FB606A002807D00121C902884221
:1014B00003D0962146A000F0A5FB2068002812D09A
:1014C0000121090488420ED0490088420BD0032133
:1014D0000904884207D001218904884203D097215A
:1014E0003BA000F08FFB6068002812D001210905A5
:1014F00088420ED0490088420BD00321090588425A
:1015000007D001218905884203D0982130A000F03E
:1015100079FBA068102805D0002803D099212CA0C1
:1015200000F070FB206A00280AD0B54208D0BD4206
:1015300006D02648854203D09E2125A000F062FBFC
:1015400003208007A860286B304908400190B5420D
:1015500004D19020FFF750FB00900DE0BD4204D174
:101560009420FFF749FB009006E01848854203D11C
:101570009820FFF741FB00900098E1688000FEF79B
:10158000EFFD8106890C8009800180026369226970
:1015900008431A430243A0690243A068024301982A
:1015A00002432A63286A1A49084062682168236A4C
:1015B0001143E2691A431143626A114301432962EC
:1015C000FEBD0000002000400030004000600040F0
:1015D0002E2E5C2E2E5C2E2E5C4C6962726172691E
:1015E00065735C4D313133305F537464506572699B
:1015F00070685F4472697665725C7372635C6D31AA
:101600003133305F75736172742E630001C0000066
:10161000FF3488FFF8B50446174D184E184FAC42FA
:1016200007D0B44205D0BC4203D06E2115A000F013
:10163000E9FAAC4208D100212020FFF709FC012182
:101640002020FFF705FCF8BDB44208D1002140205E
:10165000FFF7FEFB01214020FFF7FAFBF8BDBC427B
:10166000FCD10124E40600212046FFF7F1FB012113
:101670002046FFF7EDFBF8BD0020004000300040A1
:10168000006000402E2E5C2E2E5C2E2E5C4C69627B
:101690007261726965735C4D313133305F537464CC
:1016A0005065726970685F4472697665725C7372C6
:1016B000635C6D313133305F75736172742E63001A
:1016C00070B504460D46084884420AD00748844253
:1016D00007D00748844204D0FF21833105A000F0E1
:1016E00091FA256570BD00000020004000300040E8
:1016F000006000402E2E5C2E2E5C2E2E5C4C69620B
:101700007261726965735C4D313133305F5374645B
:101710005065726970685F4472697665725C737255
:10172000635C6D313133305F75736172742E6300A9
:1017300000210160416010228260E1225202C260F9
:101740006022026141618161D200C2610162416235
:10175000704700000FB410B503A9044B044A029867
:1017600000F016F810BC08BC04B01847411C00007B
:101770006000002030B47446641E2578641CAB42BF
:1017800000D21D46635D5B00E31830BC18470000C3
:10179000FFB591B00F460546002606E025280AD081
:1017A000149A139990476D1C761C28780028F5D15F
:1017B000304615B0F0BD002400940121F34A029494
:1017C00000E004436D1C2B780846203B98401042F3
:1017D000F7D128782A280ED0022128780246303AFC
:1017E000092A15D8009A0A235A43303A80180C4324
:1017F0006D1C0090F1E701CF0090002805DA012070
:1018000040030443009840420090022004436D1CB2
:1018100028782E2815D10420044368786D1C2A28C6
:101820000AD101CF6D1C02900BE002990A225143AC
:10183000303940186D1C029028780146303909294A
:10184000F3D928786C2810D006DC4C281AD06828E8
:101850000ED06A2817D104E0742813D07A2812D148
:1018600010E00120400504430CE00121090501E0DE
:10187000032109050C436978814203D10120000549
:1018800024186D1C6D1C287803906E281ED00CDC6B
:10189000632831D004DC00288AD0582811D1B2E066
:1018A00064287BD069280CD178E073282DD004DC23
:1018B0006F2870D0702804D1A7E075286CD07828E4
:1018C0006BD0149A13999047761C62E06002400F27
:1018D000022807D003280AD0042838680AD00660F6
:1018E0003F1D56E03868F11706604160F8E7386838
:1018F0000680F5E70670F3E738786946087400203B
:10190000487404A80390012003E038680390002085
:10191000C0433F1D61070FD5002101E00199491C1B
:10192000029A0191914213DA8142F7DB019A0399FD
:10193000895C0029F2D10BE0002101E00199491CEA
:1019400001918142FADB019A0399895C0029F5D162
:1019500001990098139A401A00902146149B00F0B8
:101960003BF901998019461807E00398039900781C
:10197000491C0391149A139990470198401E0190B5
:10198000401CF2D12146149B139A009800F014F9E0
:1019900086196D1C09E741E033E034E00A2000219C
:1019A000049005916002410F022905D001CFC217B2
:1019B0009446032905D007E0FF1DFF08FF0003CF71
:1019C00006E000B2C2179446042902D140B2C11702
:1019D0008C4600226146944506DA0A4600214042C0
:1019E00091418C462D2102E0210504D52B216A4628
:1019F0001176012103E0E10701D02021F7E70191F1
:101A000054E00A200BE0102009E01020049000218F
:101A10000420044308200591029003E008200021DF
:101A2000059104906002410F022905D001CF0022E8
:101A30009446032906D006E0FF1DFF08FF0003CFF0
:101A40008C4603E080B2042900D1C0B2002101918C
:101A500021072BD50399702906D0049A1021059BE4
:101A60004A401A4305D00EE040216A461176012112
:101A700008E06146014306D030216A461176039999
:101A8000517602210191049A0821059B4A401A438C
:101A90000CD16146014301D1610707D530216A4667
:101AA0001176012101910299491E02910399582949
:101AB00004D037A103910FA90F910DE039A1F9E7E7
:101AC0006146059B049AFEF761FB039B8C469B5C79
:101AD0000F9A521E0F92137061460143F0D10F9876
:101AE00007A9081A20300390600704D501200004DC
:101AF0008443029801E0012002900399884201DDAD
:101B0000401A00E00020411802900198091800983E
:101B1000401A0090E00306D42146149B139A0098C3
:101B200000F05AF886190020049008E006A9085C25
:101B3000149A139990470498401C761C04900199BC
:101B40008842F3DBE0030CD52146149B139A0098DE
:101B500000F042F8861904E0149A30201399904757
:101B6000761C0299481E02900029F5DC08E00F98C7
:101B70000F990078491C0F91149A13999047761C7D
:101B80000399481E03900029F1DCFBE609280100B7
:101B900030313233343536373839616263646566E3
:101BA00000000000303132333435363738394142A5
:101BB0004344454600000000F8B5044600251E4693
:101BC0001746880404D405E039462020B0476D1C30
:101BD000641EF9D52846F8BDFFB50446002581B03E
:101BE0001E46C80301D5302700E02027880404D50D
:101BF00005E038460399B0476D1C641EF9D52846A8
:101C000005B0F0BD0A46014601A0FFF7A3FDFEE7BF
:101C100057726F6E6720706172616D657465727363
:101C20002076616C75653A2066696C6520257320A5
:101C30006F6E206C696E652025640D0A000000003F
:101C400070B50446074DE1B22846FFF739FD01267D
:101C5000F60631462846FFF779FA0028F9D02046E3
:101C600070BD00000030004010B501460148FEF78D
:101C7000CDFC10BD0040004070B5114E78213046BB
:101C8000FEF7D0FE0407240F0E4D0BE01021304666
:101C9000FEF7C8FE29690870491C29616869401E61
:101CA0006861641E6869002801DD002CEEDC68694B
:101CB000002802DD0220287070BD0320287070BD4E
:101CC0000040004000000020F8B5E1210322490255
:101CD0002348FFF78BF92348FFF73CFD0021084616
:101CE000FEF710FD102203211F48FEF74BFB0020DA
:101CF0001E4C811C2154401C1028FADB00201B4D77
:101D0000CC2110352954401C1028FBDB1026174B22
:101D10000122002150200096FEF7C2FE144F3846E3
:101D2000FEF7D8F93846FEF7D5F9104B01221033EB
:101D3000002150200096FEF71DFE0020215C2A5C49
:101D4000914205D00BA0FFF705FD0020C043F8BD70
:101D5000401C1028F2DB0FA0FFF7FCFC0020F8BDB0
:101D600000300040B01D0000000002407400002060
:101D7000A08601007265616420616E6420777269DB
:101D80007465206E6F74206D61746368210D0D0A97
:101D90000000000069326320636D7020636F72720F
:101DA0006563740D0A000000340006003B000F005C
:101DB0000D0A2D2D2D2D2D2D2D2D2D2D2D2D2D2D96
:101DC0002D2D2D7C2D204D31313330205374616EFB
:101DD00064617264205065726970686572616C201C
:101DE0004C69627261727920447269766572202D45
:101DF0007C2D2D2D2D2D2D2D2D2D2D2D2D2D2D2DC4
:101E00002D2D0D0A0000000000000000020000005F
:101E100000000000000000000000000000000000C2
:101E20003234633032000000000000000000000087
:101E30000000000050080832346330380000000011
:101E40000000000000000000000000500A103234C2
:101E50006332353600000000000000000000000082
:0C1E60000000500F4000000000000000D7
:04000005000000E90E
:00000001FF
