:020000040000FA
:10000000D0080020B1000000B9000000CD000000C1
:1000100000000000000000000000000000000000E0
:10002000000000000000000000000000D1000000FF
:100030000000000000000000CF000000D30000001E
:10004000C3000000C3000000C3000000C3000000A4
:10005000C3000000C3000000C3000000C300000094
:10006000C3000000191400002D140000C30000009C
:1000700041140000C3000000C3000000C3000000E2
:1000800031020000C3000000C3000000C3000000F4
:1000900000000000C3000000C3000000C300000017
:1000A0000000000000000000C3000000C3000000CA
:1000B0000448804704480047FEE7FEE7FEE7FEE706
:1000C000FEE7FEE7BD130000E9000000FEE7704711
:1000D0007047704701B502E00098401E00900098FC
:1000E0000028F9D108BD00000348854600F006F855
:1000F00000480047ED210000D0080020064C0125F3
:10010000064E05E0E36807CC2B430C3C98471034BF
:10011000B442F7D3FFF7ECFF40010000600100009C
:1001200002E008C8121F08C1002AFAD170477047C0
:10013000002001E001C1121F002AFBD1704700001E
:10014000002900000000002018000000200100002D
:100150001829000018000020B80800003001000035
:1001600030B50B46014600202022012409E00D464F
:10017000D5409D4205D31D469540491B25469540D7
:1001800040191546521E002DF1DC30BDF0B51FB4EC
:100190000646002082B005464024019100901BE0F5
:1001A000019922460F46304600F030F8049A059B2C
:1001B000801A994110D310461946224600F016F8CD
:1001C000361A8F410197224601200021009F00F03E
:1001D0000DF838184D4100902046641E0028DFDCE1
:1001E000019B00982946324607B0F0BD10B5202A81
:1001F00004DB0146203A9140002010BD91402023AD
:100200009C1A0346E3401943904010BD10B5202AC4
:1002100004DB0846203AD040002110BD0B46D340F5
:10022000D0402024A21A91400843194610BD000076
:1002300010B50121002000F0A1F8194C002806D0CB
:100240002068002800D08047002000F063F80121DA
:10025000084600F093F8002806D06068002800D017
:100260008047012000F056F80121022000F086F8B6
:10027000002806D0A068002800D08047022000F0A7
:1002800049F80121032000F079F8002806D0E06841
:10029000002800D08047032000F03CF810BD00008B
:1002A0001800002070B504460D461646002C09D0F3
:1002B000012C07D0022C05D0032C03D0F82105A077
:1002C00001F054FF58204443114820180564466447
:1002D00070BD00002E2E5C2E2E5C2E2E5C4C6962B2
:1002E0007261726965735C4D313133305F53746490
:1002F0005065726970685F4472697665725C73728A
:10030000635C6D313133305F646D612E63000000DA
:100310000000054010B50446002C0AD0012C08D07E
:10032000022C06D0032C04D0FF21A43103A001F03D
:100330001DFF01201049A040886310BD2E2E5C2EA9
:100340002E5C2E2E5C4C69627261726965735C4D25
:10035000313133305F5374645065726970685F4443
:1003600072697665725C7372635C6D313133305FD4
:10037000646D612E630000000003054070B5044603
:100380000D46002C0AD0012C08D0022C06D0032CDC
:1003900004D0FF218A3107A001F0E8FE01221448B1
:1003A000A240002D02D0806A104070BD006810404D
:1003B00070BD00002E2E5C2E2E5C2E2E5C4C6962D1
:1003C0007261726965735C4D313133305F537464AF
:1003D0005065726970685F4472697665725C7372A9
:1003E000635C6D313133305F646D612E63000000FA
:1003F000C0020540054901220B78824093430B70EF
:100400000021034A800011507047000000000020C6
:100410001800002010B50446002C0AD0012C08D08A
:10042000022C06D0032C04D0FF215E3106A001F07F
:100430009DFE1448006A0121A140084201D001201C
:1004400010BD002010BD00002E2E5C2E2E5C2E2E26
:100450005C4C69627261726965735C4D3131333035
:100460005F5374645065726970685F447269766541
:10047000725C7372635C6D313133305F646D612E19
:100480006300000080030540F0B500210D4E0E4CC6
:1004900001252A4623788A401A4204D1376A174236
:1004A00004D01A432270491C0429F2DB042902DA21
:1004B000064B8A00985020788D4005432570C8B2BD
:1004C000F0BD00008003054000000020180000205F
:1004D00010B50446002C0AD0012C08D0022C06D0FE
:1004E000032C04D0FF21073105A001F03FFE134982
:1004F00001208861A04002021018086210BD0000AF
:100500002E2E5C2E2E5C2E2E5C4C696272617269FE
:1005100065735C4D313133305F537464506572697B
:1005200070685F4472697665725C7372635C6D318A
:100530003133305F646D612E63000000800305403D
:1005400070B504460E460025002C0AD0012C08D0B8
:10055000022C06D0032C04D0FF2125310CA001F081
:1005600005FE2046FFF756FF012803D02046FFF77F
:10057000AFFF00E00125002D02D00020C04370BD78
:10058000002E03D0204601F05DFB70BD002070BD41
:100590002E2E5C2E2E5C2E2E5C4C6962726172696E
:1005A00065735C4D313133305F53746450657269EB
:1005B00070685F4472697665725C7372635C6D31FA
:1005C0003133305F646D612E6300000070B5054605
:1005D0000C463C4EB54206D03B48854203D06721CD
:1005E0003AA001F0C3FD2079002808D160790128E4
:1005F00005D0002803D06A2134A001F0B7FD20689F
:10060000002803D16C2131A001F0B0FD217900292F
:1006100011D001290FD002290DD003290BD00429B4
:1006200009D0052907D0062905D0072903D06D2157
:1006300026A001F09BFDB54221D10020324A21685D
:10064000C140C907C90F002909D0810089180B686A
:10065000DB08DB000B600B6825792B430B60401C2B
:100660002028ECD32079002805D161792748012979
:1006700002D02168816070BD2168416070BD00209A
:10068000214A80322168C140C907C90F002909D019
:10069000810089180B68DB08DB000B600B6825798B
:1006A0002B430B60401C2028ECD320790028E5D197
:1006B00061791748012902D02168816070BD2168E5
:1006C000416070BD00000240000003402E2E5C2EF1
:1006D0002E5C2E2E5C4C69627261726965735C4D92
:1006E000313133305F5374645065726970685F44B0
:1006F00072697665725C7372635C6D313133305F41
:100700006770696F2E630000001000400080024097
:100710000080034070B504460D460948844206D067
:100720000848844203D0084908A001F01FFD002DAD
:1007300004D1054905A0491C01F018FD656070BD94
:100740000000024000000340210200002E2E5C2E1B
:100750002E5C2E2E5C4C69627261726965735C4D11
:10076000313133305F5374645065726970685F442F
:1007700072697665725C7372635C6D313133305FC0
:100780006770696F2E630000F8B506460D46144683
:10079000284FBE4206D02848864203D0BE2127A05B
:1007A00001F0E4FC002D03D1BF2124A001F0DEFC08
:1007B000002C11D0012C0FD0022C0DD0032C0BD00B
:1007C000042C09D0052C07D0062C05D0072C03D00B
:1007D000C0211AA001F0CAFCBE4214D10020264A52
:1007E0002946C140C907C90F002908D081008918CE
:1007F0000B68DB08DB000B600B6823430B60401CBD
:100800002028EDD3F8BD00201B4A80322946C14084
:10081000C907C90F002908D0810089180B68DB08B7
:10082000DB000B600B6823430B60401C2028EDD3DA
:10083000F8BD000000000240000003402E2E5C2E98
:100840002E5C2E2E5C4C69627261726965735C4D20
:10085000313133305F5374645065726970685F443E
:1008600072697665725C7372635C6D313133305FCF
:100870006770696F2E6300000010004070B5044679
:10088000A078002805D0012803D0882113A001F00A
:100890006DFCA0780123002817D021781D488A0814
:1008A0009200101802688907C90EFF258D40AA43DF
:1008B0006578AD072D0E8D40154305602078C00684
:1008C000C00E83401448036070BD2078C006C00E7F
:1008D000834011488030036070BD00002E2E5C2ED6
:1008E0002E5C2E2E5C4C69627261726965735C4D80
:1008F000313133305F5374645065726970685F449E
:1009000072697665725C7372635C6D6973632E6382
:100910000000000000E400E000E100E001680122C6
:10092000D20691430160704701680122D20611434B
:100930000160704770B505460C46002C06D0012CAE
:1009400004D0FF21103105A001F010FC012040036C
:10095000012C01D0A86170BD686170BD2E2E5C2E87
:100960002E5C2E2E5C4C69627261726965735C4DFF
:10097000313133305F5374645065726970685F441D
:1009800072697665725C7372635C6D313133305FAE
:10099000717370692E63000070B504460D462868B7
:1009A000002808D001210907884204D0FF213A31EC
:1009B0001BA001F0DBFB0126A868B606002806D0C4
:1009C000B04204D0FF213B3115A001F0CFFB2068DD
:1009D000400100D40026686820670122A8685207F9
:1009E000B0420DD12168090105D5296801430520D0
:1009F000C006014302E0296801431143216070BD34
:100A00002168090105D5296801430120C006014379
:100A100001E029680143216020681043206070BD17
:100A20002E2E5C2E2E5C2E2E5C4C696272617269D9
:100A300065735C4D313133305F5374645065726956
:100A400070685F4472697665725C7372635C6D3165
:100A50003133305F717370692E63000070B50646E4
:100A60000C460125AD05002C06D0AC4204D0FF2178
:100A7000973104A001F07AFBAC4201D1756170BDE1
:100A8000B56170BD2E2E5C2E2E5C2E2E5C4C6962E4
:100A90007261726965735C4D313133305F537464D8
:100AA0005065726970685F4472697665725C7372D2
:100AB000635C6D313133305F717370692E63000098
:100AC00070B504460D46182D0BD0382D09D0782D61
:100AD00007D0B82D05D0F82D03D0A82113A001F020
:100AE00045FBF820782D16D008DC182D0ED0382DB7
:100AF00003D1216981433831216170BDB82D0FD0F8
:100B0000F82DFAD121690143216170BD216981432A
:100B10001831216170BD216981437831216170BD37
:100B200021698143B831216170BD00002E2E5C2EF9
:100B30002E5C2E2E5C4C69627261726965735C4D2D
:100B4000313133305F5374645065726970685F444B
:100B500072697665725C7372635C6D313133305FDC
:100B6000717370692E63000070B506460D4600244F
:100B70000648054204D1FF21B83105A001F0F6FA7C
:100B8000306D284200D00124204670BDF10FF00FD7
:100B90002E2E5C2E2E5C2E2E5C4C69627261726968
:100BA00065735C4D313133305F53746450657269E5
:100BB00070685F4472697665725C7372635C6D31F4
:100BC0003133305F717370692E630000F8B50546EC
:100BD0000C462068002807D0C11FFF39FA3903D01E
:100BE000612139A001F0C2FA6068002807D0012114
:100BF0008902884203D0622133A001F0B7FAA068CD
:100C0000002807D001218905884203D063212EA046
:100C100001F0ACFAE068FF2212020146914301D1D3
:100C2000002803D1642128A001F0A0FA6069C11F47
:100C3000F93905D0002803D0662123A001F096FAE7
:100C4000207E002807D0012805D0022803D0672184
:100C50001DA001F08BFAE16918290BD0382909D0C1
:100C6000782907D0B82905D0F82903D0682116A023
:100C700001F07CFA0121284600F0DCF900260096FC
:100C80000121090302E00098401C0090009888426E
:100C9000F9DB217E284600F041F9217F2846FFF745
:100CA0000FFF61682068084361690843686128464E
:100CB000A168FFF7D3FE2169E068084311490843A2
:100CC00028636E61F8BD00002E2E5C2E2E5C2E2E49
:100CD0005C4C69627261726965735C4D31313330AD
:100CE0005F5374645065726970685F4472697665B9
:100CF000725C7372635C6D313133305F7173706934
:100D00002E6300000000FFFFF8B505460F461446AD
:100D1000B807A107084305D02DA000F0CFFF0120A0
:100D2000C043F8BD3048844202DD0020C043F8BD16
:100D30000020FFF7A9FB0646042E05D32BA000F0E8
:100D4000BDFF0020C043F8BD58202E497043401815
:100D50002D492A464032026087600022026181618B
:100D6000E117890F09198A10A10700D00121511834
:100D7000C1612648854206D19922D2010021304620
:100D8000FFF790FA0FE02248854206D1BB22D2013C
:100D900000213046FFF786FA05E0FF22D20100214C
:100DA0003046FFF77FFA01213046FFF7C9FB0028E4
:100DB00008D018A000F082FF3046FFF71BFB002090
:100DC000C043F8BD3046FFF715FB0020F8BD00001A
:100DD0005153504978205278206E6F7420616C69AD
:100DE000676E6564210A0000FC070000616C6C20DE
:100DF000646D61206368616E6E656C2062757379E5
:100E00000D0A0000000005402404200000000140FD
:100E100000100140515350493A20444D4120726F17
:100E20007574696E65206661696C656420666F72B1
:100E300020726561642E0000F7B504460F4600205D
:100E4000FFF722FB05460026F643042D04D320A01D
:100E500000F034FF3046FEBD582023496843401857
:100E6000224907602246403282600022026181618D
:100E70000299C1611E48844206D1112292020021CA
:100E80002846FFF70FFA0FE01A48844206D1552290
:100E9000120200212846FFF705FA05E07722120228
:100EA00000212846FFF7FEF901212846FFF748FBFD
:100EB000002807D010A000F001FF2846FFF79AFA9B
:100EC0003046FEBD2846FFF795FA0020FEBD000023
:100ED000616C6C20646D61206368616E6E656C206E
:100EE000627573790D0A000000000540004910008A
:100EF0000000014000100140515350493A20444D38
:100F00004120726F7574696E65206661696C6564F5
:100F100020666F722077726974652E0070B5044682
:100F20000D46002D07D0012D05D0022D03D08921BB
:100F30000BA001F01BF9002D07D0012D0AD020696C
:100F4000C008C000801C206170BD2069C008C000BE
:100F5000206170BD2069C008C000401C206170BDC8
:100F60002E2E5C2E2E5C2E2E5C4C69627261726994
:100F700065735C4D313133305F5374645065726911
:100F800070685F4472697665725C7372635C6D3120
:100F90003133305F717370692E630000F8B50F460E
:100FA0002148224C4078002814D0214DA614012855
:100FB0001DD0022829D003280BD13B4603223146FD
:100FC000204601F081FC3B4603227100204601F0DF
:100FD0007BFCF8BD01223B461146204601F074FC23
:100FE0003B4601220821204601F06EFCF8BD01219C
:100FF0003B4603224902284601F066FC3B46032299
:101000003146284601F060FCF8BD01213B46032231
:101010000907284601F058FC01213B4603224907F5
:10102000284601F051FCF8BD0400002000000340F8
:101030000000024070B504460D46012D05D0002D7C
:1010400003D03B2116A001F091F80122520323495D
:10105000530096002248012D06D0844214D100216D
:10106000104600F065F970BD844203D1104600F0CF
:101070000BF970BD8C4203D1184600F005F970BD24
:10108000304600F001F970BD8C4204D100211846B1
:1010900000F04EF970BD0021304600F049F970BDF6
:1010A0002E2E5C2E2E5C2E2E5C4C69627261726953
:1010B00065735C4D313133305F53746450657269D0
:1010C00070685F4472697665725C7372635C6D31DF
:1010D0003133305F717370692E630000001001407E
:1010E0000000014001627047F8B504466249086992
:1010F000C0B28A69D5B2896ACFB201218907096B6A
:101100005E4AC906C90E0A3151430091002806D033
:10111000012806D0022806D0032806D006E0574E44
:1011200004E0009E02E0554E00E0554E524840302B
:1011300001683046FFF714F8802C1CD0012080078E
:101140002018902C0AD0942C08D0982C06D0B42CBF
:101150002BD0B82C4AD0A02C74D0FEE701780029FF
:1011600008D0002D08D0012D0CD0022D10D0032D59
:1011700014D018E00020F8BD01784048FEF7F0FFD9
:10118000044610E001780098FEF7EAFF04460AE002
:1011900001783A48FEF7E4FF044604E00178384855
:1011A000FEF7DEFF04462046F8BD33484030416B71
:1011B000002906D0002F06D0012F0AD0022F0ED012
:1011C00012E00020F8BD416B2C48FEF7C9FF044631
:1011D0000AE0416B0098FEF7C3FF044604E0416B50
:1011E0002648FEF7BDFF04462046F8BD22484030A1
:1011F000816B00290CD021000CD0012C10D0022CC6
:1012000014D0032C18D0042C1DD0052C22D026E09D
:101210000020F8BD816B1948FEF7A2FF04461EE0CE
:10122000816B3046FEF79CFF044618E0816B144842
:10123000FEF796FF044612E0816B1048FEF790FF20
:1012400004460CE00DE0816B7D200002FEF788FF74
:10125000044604E0816B0B48FEF782FF04462046FB
:10126000F8BD0178002904D001783046FEF778FFF8
:10127000F8BD0020F8BD000040000040001BB70092
:1012800010270000006CDC0200B50346012118465F
:1012900000F04EF80021184600F052F801211846DF
:1012A00000F04EF800BD000070B504460D46802CDD
:1012B0001BD0902C19D0942C17D0982C15D0A02C82
:1012C00013D0A42C11D0A82C0FD0AC2C0DD0B42C42
:1012D0000BD0B82C09D0BC2C07D0C02C05D0D02CFA
:1012E00003D0E92103A000F041FF0120800720186E
:1012F000057070BD2E2E5C2E2E5C2E2E5C4C69620D
:101300007261726965735C4D313133305F5374645F
:101310005065726970685F4472697665725C737259
:10132000635C6D313133305F7263632E63000000A4
:1013300001229207002901D05061704790617047E7
:1013400001229207002901D05060704790607047D9
:1013500010B50446002C09D0012C07D0022C05D072
:10136000032C03D0A72105A000F000FF12488461E0
:101370000021C1610121C16110BD00002E2E5C2E33
:101380002E5C2E2E5C4C69627261726965735C4DD5
:10139000313133305F5374645065726970685F44F3
:1013A00072697665725C7372635C6D313133305F84
:1013B0007263632E630000004000004010B50020FF
:1013C0000121114A89074A61104B04221A60104A10
:1013D0009368FF241234A34393600E4A0A63CA132E
:1013E00003E00346401C934202D24B6B012BF8D121
:1013F0007D20C000FEF76EFE0448012140380161E7
:1014000000224261416110BD1808000080000040C8
:10141000000200401600008010B50249024800F0AA
:10142000DDF910BDA80000200020004010B50249E1
:10143000024800F0D3F910BDB40100200030004094
:1014400010B50249024800F0C9F910BDC0020020E1
:101450000060004070B504460D460E48844209D035
:101460000D48844206D00D48844203D0DF210CA0F1
:1014700000F07CFE002D05D0012D03D0E02108A056
:1014800000F074FE0120002D01D0606270BDA062EA
:1014900070BD0000002000400030004000600040AF
:1014A0002E2E5C2E2E5C2E2E5C4C6962726172694F
:1014B00065735C4D313133305F53746450657269CC
:1014C00070685F4472697665725C7372635C6D31DB
:1014D0003133305F75736172742E6300F0B58BB079
:1014E00004460E4615460120FFF732FF4E4884425F
:1014F0000AD12020FFF7C8FE04219020FFF7D4FE78
:101500000920694608701BE0484884420AD14020FF
:10151000FFF7BAFE04219420FFF7C6FE0A206946B1
:1015200008700DE0424884420AD10120C006FFF74E
:10153000ABFE04219820FFF7B7FE0C206946087027
:101540002A463C4F3C48BD00130000F0C7FB060490
:10155000111C27323D470121032209043846FFF7B9
:1015600013F90121032249043846FFF70DF935E04C
:101570000222D1050746FFF707F902221106384675
:10158000FFF702F92AE0022204213846FFF7FCF8AF
:10159000022208213846FFF7F7F81FE00222510423
:1015A0003846FFF7F1F8022229463846FFF7ECF8F3
:1015B00014E0032201213846FFF7E6F80322022156
:1015C0003846FFF7E1F809E0022251060746FFF727
:1015D000DBF8022291063846FFF7D6F8012069466B
:1015E0008870022048706846FFF748F9204600F0EE
:1015F00089FA01A800F014FB0496012080050290EE
:1016000001A9204600F06EF9FF200004A06065608B
:10161000052101220905204600F012F9012120468A
:10162000FFF718FF0BB0F0BD002000400030004075
:10163000006000400000024000000340F8B505468D
:101640000C460026234FBD4209D02348854206D0D0
:101650002248854203D0224922A000F087FD0120C4
:10166000000484421FD0400084421CD040008442C9
:1016700019D04000844216D04001844213D040006B
:10168000844210D0400084420DD0400084420AD0F1
:101690004000844207D04000844204D04D21C9005C
:1016A00010A000F063FD0120000784420CD1BD4270
:1016B0000AD00948854207D00848854204D09B21BA
:1016C000890008A000F052FD286E204200D00126BB
:1016D0003046F8BD0020004000300040006000406F
:1016E000670200002E2E5C2E2E5C2E2E5C4C696252
:1016F0007261726965735C4D313133305F5374646C
:101700005065726970685F4472697665725C737265
:10171000635C6D313133305F75736172742E6300B9
:1017200070B505460C4600261948854209D019486F
:10173000854206D01848854203D0184918A000F009
:1017400015FD102C1ED0202C1CD0402C1AD0802C23
:1017500018D0E01FF93815D0E01FFF38FA3811D043
:101760000120800284420DD0400084420AD0400013
:10177000844207D04000844204D05521C90008A00B
:1017800000F0F4FC286C204200D00126304670BDE9
:10179000002000400030004000600040A702000030
:1017A0002E2E5C2E2E5C2E2E5C4C6962726172694C
:1017B00065735C4D313133305F53746450657269C9
:1017C00070685F4472697665725C7372635C6D31D8
:1017D0003133305F75736172742E6300F8B506465D
:1017E0000D4610213046FFF79BFF0127EC1D3F06F9
:1017F000F934002805D10AE0316DA068421CA260CE
:10180000295439463046FFF719FF0028F4D040210B
:101810003046FFF785FF002805D1F8BD316DA0687F
:10182000421CA260295439463046FFF707FF0028C2
:10183000F4D0A0682060012060600020A060F8BDA6
:1018400070B504460D461646134884420AD0134824
:10185000844207D01248844204D0FF213D3111A0B8
:1018600000F084FCA800800D02D01D48054204D081
:10187000FF213E310BA000F079FC002E06D0012E96
:1018800004D0FF213F3107A000F070FC002E01D0F2
:10189000656470BDA56470BD00200040003000404C
:1018A000006000402E2E5C2E2E5C2E2E5C4C696259
:1018B0007261726965735C4D313133305F537464AA
:1018C0005065726970685F4472697665725C7372A4
:1018D000635C6D313133305F75736172742E6300F8
:1018E000FFFF0FC0FEB505460C4600200090714E6C
:1018F000714FB54208D0BD4206D07048854203D032
:101900008F216FA000F032FC2069002809D0202828
:1019100007D0402805D0602803D0912168A000F0AE
:1019200025FC6069002805D0082803D0922164A016
:1019300000F01CFCA06900280BD0062809D0022862
:1019400007D0822805D0862803D093215CA000F020
:101950000DFCE069C11FF9390BD0C11FFF39FA39FD
:1019600007D003210902884203D0942154A000F03B
:10197000FDFB206A00280ED00121890388420AD08D
:101980004900884207D003218903884203D095216A
:101990004BA000F0EBFB606A002807D00121C902D0
:1019A000884203D0962146A000F0E0FB2068002882
:1019B00012D00121090488420ED0490088420BD080
:1019C00003210904884207D001218904884203D0F9
:1019D00097213BA000F0CAFB6068002812D00121CB
:1019E000090588420ED0490088420BD00321090521
:1019F000884207D001218905884203D0982130A070
:101A000000F0B4FBA068102805D0002803D099216D
:101A10002BA000F0ABFB206A00280AD0B54208D00A
:101A2000BD4206D02548854203D09E2124A000F067
:101A30009DFB03208007A860286B30490840019077
:101A4000B54204D19020FFF74FFB00900DE0BD425E
:101A500004D19420FFF748FB009006E01748854228
:101A600003D19820FFF740FB00900098E1688000C8
:101A7000FEF776FB8106890C80098001800263698C
:101A8000226908431A430243A0690243A068024343
:101A9000019802432A63286A19490840626821684C
:101AA000236A1143E2691A431143626A11430143F5
:101AB0002962FEBD00200040003000400060004070
:101AC0002E2E5C2E2E5C2E2E5C4C69627261726929
:101AD00065735C4D313133305F53746450657269A6
:101AE00070685F4472697665725C7372635C6D31B5
:101AF0003133305F75736172742E630001C0000072
:101B0000FF3488FFF8B50446174D184E184FAC4205
:101B100007D0B44205D0BC4203D06E2115A000F01E
:101B200025FBAC4208D100212020FFF709FC012150
:101B30002020FFF705FCF8BDB44208D10021402069
:101B4000FFF7FEFB01214020FFF7FAFBF8BDBC4286
:101B5000FCD10124E40600212046FFF7F1FB01211E
:101B60002046FFF7EDFBF8BD0020004000300040AC
:101B7000006000402E2E5C2E2E5C2E2E5C4C696286
:101B80007261726965735C4D313133305F537464D7
:101B90005065726970685F4472697665725C7372D1
:101BA000635C6D313133305F75736172742E630025
:101BB00070B504460D46084884420AD0074884425E
:101BC00007D00748844204D0FF21833105A000F0EC
:101BD000CDFA256570BD00000020004000300040B7
:101BE000006000402E2E5C2E2E5C2E2E5C4C696216
:101BF0007261726965735C4D313133305F53746467
:101C00005065726970685F4472697665725C737260
:101C1000635C6D313133305F75736172742E6300B4
:101C200000210160416010228260E1225202C26004
:101C30006022026141618161D200C2610162416240
:101C40007047000070B5054601242406002D0DD014
:101C5000012D0BD0022D09D0032D07D0BA2108A0E9
:101C600000F084FA02E0641E601C06D02846FEF7ED
:101C7000D1FB0128F7D0002070BD0020C04370BD0B
:101C80002E2E5C2E2E5C2E2E5C4C69627261726967
:101C900065735C4D313133305F53746450657269E4
:101CA00070685F4472697665725C7372635C6D31F3
:101CB0003133305F646D612E630000000FB410B5E6
:101CC00003A9044B044A029800F016F810BC08BCA3
:101CD00004B01847C52100001400002030B4744639
:101CE000641E2578641CAB4200D21D46635D5B0018
:101CF000E31830BC18470000FFB591B00F46054609
:101D0000002606E025280AD0149A139990476D1CE6
:101D1000761C28780028F5D1304615B0F0BD002497
:101D200000940121F34A029400E004436D1C2B78D7
:101D30000846203B98401042F7D128782A280ED038
:101D4000022128780246303A092A15D8009A0A2337
:101D50005A43303A80180C436D1C0090F1E701CFD4
:101D60000090002805DA0120400304430098404217
:101D70000090022004436D1C28782E2815D10420E1
:101D8000044368786D1C2A280AD101CF6D1C02908B
:101D90000BE002990A225143303940186D1C029021
:101DA0002878014630390929F3D928786C2810D0D1
:101DB00006DC4C281AD068280ED06A2817D104E017
:101DC000742813D07A2812D110E001204005044372
:101DD0000CE00121090501E0032109050C436978A4
:101DE000814203D10120000524186D1C6D1C287848
:101DF00003906E281ED00CDC632831D004DC002850
:101E00008AD0582811D1B2E064287BD069280CD13F
:101E100078E073282DD004DC6F2870D0702804D1AE
:101E2000A7E075286CD078286BD0149A1399904746
:101E3000761C62E06002400F022807D003280AD017
:101E4000042838680AD006603F1D56E03868F1174C
:101E500006604160F8E738680680F5E70670F3E74A
:101E60003878694608740020487404A8039001205B
:101E700003E0386803900020C0433F1D61070FD581
:101E8000002101E00199491C029A0191914213DA63
:101E90008142F7DB019A0399895C0029F2D10BE0BA
:101EA000002101E00199491C01918142FADB019A6C
:101EB0000399895C0029F5D101990098139A401A79
:101EC00000902146149B00F03BF9019980194618B7
:101ED00007E0039803990078491C0391149A139919
:101EE00090470198401E0190401CF2D12146149B5E
:101EF000139A009800F014F986196D1C09E741E067
:101F000033E034E00A200021049005916002410F83
:101F1000022905D001CFC2179446032905D007E056
:101F2000FF1DFF08FF0003CF06E000B2C217944672
:101F3000042902D140B2C1178C4600226146944563
:101F400006DA0A460021404291418C462D2102E0EA
:101F5000210504D52B216A461176012103E0E10712
:101F600001D02021F7E7019154E00A200BE0102076
:101F700009E010200490002104200443082005916A
:101F8000029003E008200021059104906002410FB7
:101F9000022905D001CF00229446032906D006E08D
:101FA000FF1DFF08FF0003CF8C4603E080B2042929
:101FB00000D1C0B20021019121072BD503997029CE
:101FC00006D0049A1021059B4A401A4305D00EE022
:101FD00040216A461176012108E06146014306D09E
:101FE00030216A4611760399517602210191049AB3
:101FF0000821059B4A401A430CD16146014301D197
:10200000610707D530216A461176012101910299B5
:10201000491E02910399582904D037A103910FA9B1
:102020000F910DE039A1F9E76146059B049AFEF78F
:10203000ADF8039B8C469B5C0F9A521E0F92137057
:1020400061460143F0D10F9807A9081A2030039088
:10205000600704D5012000048443029801E00120B8
:1020600002900399884201DD401A00E000204118E7
:102070000290019809180098401A0090E00306D4D5
:102080002146149B139A009800F05AF886190020F4
:10209000049008E006A9085C149A139990470498E4
:1020A000401C761C049001998842F3DBE0030CD5B8
:1020B0002146149B139A009800F042F8861904E018
:1020C000149A302013999047761C0299481E02906A
:1020D0000029F5DC08E00F980F990078491C0F9152
:1020E000149A13999047761C0399481E039000296F
:1020F000F1DCFBE609280100303132333435363764
:102100003839616263646566000000003031323343
:1021100034353637383941424344454600000000E3
:10212000F8B5044600251E461746880404D405E089
:1021300039462020B0476D1C641EF9D52846F8BDED
:10214000FFB50446002581B01E46C80301D53027DF
:1021500000E02027880404D505E038460399B047FD
:102160006D1C641EF9D5284605B0F0BD0A4601462F
:1021700001A0FFF7A3FDFEE757726F6E6720706145
:1021800072616D65746572732076616C75653A2055
:1021900066696C65202573206F6E206C696E652002
:1021A00025640D0A000000007D22520106E0002196
:1021B000491C89B29142FBD3401E80B20028F6D15F
:1021C0007047000070B50446074DE1B22846FFF79E
:1021D000EFFC0126F60631462846FFF72FFA0028C5
:1021E000F9D0204670BD0000003000400EB5E1215E
:1021F000032249022448FFF771F924A0FFF75EFD8E
:1022000000200221264C00900B46024601910290CC
:102210000421204600F0A2F82149C0310A690F20AC
:10222000000282430A6108698A151043086120464A
:1022300000F076F8A5142946204600F041F8002366
:102240001848C3545B1C402BFBDB40232A4615492E
:10225000204600F029F90A20FFF7A6FF1149402384
:102260002A464031204600F0B5F800240D4D403597
:102270002A5D21460CA0FFF721FD10A0FFF71EFDEF
:10228000641C402CF4DBFEE70030004053746172A4
:10229000742054657374205959590D0A00000000C8
:1022A000001001402800002074656D704275665B67
:1022B00025645D3D20253032780000000D0A0000C5
:1022C000F8B505460E460120009014480078002815
:1022D00001D0212400E020240121284600F040FA0A
:1022E0002846FEF721FBE1B2284600F0E7F9314627
:1022F000284600F0C1F92846FEF710FB7D24E400D3
:1023000006E06946284600F087F92046FDF7E2FE20
:1023100068460178C907F4D10020F8BD0400002008
:102320001CB5044601200190009001A9204600F050
:1023300073F96946204600F087F96A461279C3208E
:10234000054902400A706A46107848700222204609
:1023500000F018FA1CBD000010000020F0B589B094
:102360000E9F0F9E109D04460120400201904000E8
:102370000290002003901B020493059706926A4680
:102380001077382008901148844203D1A420FEF72A
:102390008BFF09E00E48844203D1A820FEF784FF9A
:1023A00002E0AC20FEF780FF3146204600F014FA30
:1023B000002D03D000212046FEF7F0FD01A92046A4
:1023C000FEF704FC002009B0F0BD00000000014051
:1023D00000100140FFB581B00F461646FF20F1B254
:1023E0000130441AA34200DC1C461D1B681E00126B
:1023F000401C0090234632463946019800F01CF8F4
:10240000301903903F19002610E0FF240134A54243
:1024100000DC2C4623463946039A019800F00CF85C
:102420000398001903903F192D1B761C00988642D3
:10243000EBDB002005B0F0BDFFB581B007461546C7
:102440001E4618480078002801D0EC2400E0EB2458
:1024500001213846FEF7A2FD3846FEF765FA21460F
:102460003846FEF73FFE02213846FEF757FD294663
:10247000384600F001F90321384600F029F93246C8
:102480003846029900F08EF83846FEF747FA0021E8
:102490003846FEF743FD00213846FEF77FFD002059
:1024A00005B0F0BD04000020FFB581B00F46164610
:1024B0001D460198FFF734FFFF20F1B20130441AA6
:1024C000A54200DC2C462D1B681E0012401C00900B
:1024D000234632463946019800F01CF83019039023
:1024E0003F19002610E0FF240134A54200DC2C46F1
:1024F00023463946039A019800F00CF80398001916
:1025000003903F192D1B761C00988642EBDB0020C0
:1025100005B0F0BDFFB581B00F4616461D4601203F
:1025200000901F480078002801D0342400E03224B5
:1025300001210198FEF732FD0121019800F010F908
:102540000198FEF7F1F9E1B2019800F0B7F83146D1
:10255000019800F091F802210198FEF7DFFC2A466D
:102560003946019800F0C2F80198FEF7D7F900212A
:102570000198FEF7D3FC00210198FEF70FFD7D24A2
:10258000E40006E06946019800F046F82046FDF7B1
:10259000A1FD68460178C907F4D1284605B0F0BD11
:1025A00004000020FEB505460F461646012424050A
:1025B0000196200200908010029001212846FEF72B
:1025C000B9F969462846FEF7E7F932463946284602
:1025D000FEF79AFB00212846FEF7ACF901212846B8
:1025E000FEF7C2FA012802D1641E601CF6D1002C4D
:1025F00005DC04A0FFF762FB0220C043FEBD002003
:10260000FEBD0000515350492052782074696D6519
:102610006F7574210A00000070B505460C46284607
:10262000FEF782F90521284600F048F80422054902
:102630002846FFF7B7FF034A127822702846FEF7B4
:102640006DF970BD1000002070B505460C46284697
:10265000FEF76AF93521284600F030F804220549D2
:102660002846FFF79FFF034A127822702846FEF79C
:1026700055F970BD1000002070B50F4A0B041546C7
:1026800016780A020835120E1B0ECCB2002E09D0A5
:10269000090E29706A70AB70EC700422294600F0B4
:1026A00025F870BD2A706B70AC70034903220831A5
:1026B00000F01CF870BD00000400002010B5034AB3
:1026C00011700122014900F011F810BD080000202E
:1026D00010B5054B00241C705C709C70DC700A46C1
:1026E000194600F003F810BD0C000020FEB50546A9
:1026F0000F46164601242405019620020090002072
:10270000029001212846FEF715F969462846FEF792
:1027100043F9324639462846FEF78EFB002128460B
:10272000FEF708F901212846FEF71EFA012802D11A
:10273000641E601CF6D1002C05DC04A0FFF7BEFA75
:102740000220C043FEBD0020FEBD00005153504991
:102750002074782074696D656F7574210A0000001B
:1027600070B50546002901D0062400E0042428465F
:10277000FEF7DAF8E1B22846FFF7A0FF2846FEF799
:10278000CDF870BDF8B505460E46174601240094F5
:1027900001212846FFF7E4FF2846FEF7C5F801218E
:1027A0002846FFF78BFF3A4631462846FFF79EFF43
:1027B0002846FEF7B3F800947D24E40006E069465D
:1027C0002846FFF729FF2046FDF784FC684601787C
:1027D000C907F4D1F8BD000070B538484170384CD5
:1027E0000A001FD0374D2615012A34D0022A4BD0BB
:1027F000032A16D101233146204600F065F8012353
:1028000003229903204600F05FF801230322D90236
:10281000204600F059F801230322D903204600F096
:1028200053F870BD01231A460221204600F04CF8EF
:1028300001231A460421204600F046F801231A46D7
:102840001021204600F040F801231A46202120469E
:1028500000F03AF870BD012303225903284600F026
:1028600033F8012303223146284600F02DF80123D6
:1028700003224021284600F027F8012303222021CB
:10288000284600F021F870BD01230322990628464E
:1028900000F01AF801230322D906284600F014F8A4
:1028A000012303229907284600F00EF80322012392
:1028B000D107284600F008F870BD00000400002091
:1028C00000000340000002407CB505460C46002B8A
:1028D00007D000946846027169462846FDF776FEE7
:1028E0007CBD00940020694608710120487128468B
:1028F000FDF76CFE21462846FDF70CFF7CBD00006D
:1029000000000000000000000000000000000000C7
:082910000000000000000000BF
:04000005000000E90E
:00000001FF
