Component: ARM Compiler 5.06 update 6 (build 750) Tool: armlink [4d35ed]

==============================================================================

Section Cross References

    system_m1130.o(i.SystemInit) refers to m1130_it.o(i.commonDelay) for commonDelay
    startup_m1130.o(RESET) refers to startup_m1130.o(STACK) for __initial_sp
    startup_m1130.o(RESET) refers to startup_m1130.o(.text) for Reset_Handler
    startup_m1130.o(RESET) refers to m1130_it.o(i.HardFault_Handler) for HardFault_Handler
    startup_m1130.o(RESET) refers to m1130_it.o(i.SVC_Handler) for SVC_Handler
    startup_m1130.o(RESET) refers to m1130_it.o(i.PendSV_Handler) for PendSV_Handler
    startup_m1130.o(RESET) refers to m1130_it.o(i.SysTick_Handler) for SysTick_Handler
    startup_m1130.o(RESET) refers to m1130_utility_usart.o(i.UART0_IRQHandler) for UART0_IRQHandler
    startup_m1130.o(RESET) refers to m1130_utility_usart.o(i.UART1_IRQHandler) for UART1_IRQHandler
    startup_m1130.o(RESET) refers to m1130_utility_usart.o(i.UART2_IRQHandler) for UART2_IRQHandler
    startup_m1130.o(RESET) refers to m1130_dma.o(i.DMA_IRQHandler) for DMA_IRQHandler
    startup_m1130.o(.text) refers to system_m1130.o(i.SystemInit) for SystemInit
    startup_m1130.o(.text) refers to entry.o(.ARM.Collect$$$$00000000) for __main
    m1130_adc.o(i.ADC_AnaEn) refers to m1130_utility_usart.o(i.assert_failed) for assert_failed
    m1130_adc.o(i.ADC_ClearConvValue) refers to m1130_utility_usart.o(i.assert_failed) for assert_failed
    m1130_adc.o(i.ADC_ClearITFlag) refers to m1130_utility_usart.o(i.assert_failed) for assert_failed
    m1130_adc.o(i.ADC_DeInit) refers to m1130_utility_usart.o(i.assert_failed) for assert_failed
    m1130_adc.o(i.ADC_DeInit) refers to m1130_rcc.o(i.RCC_SetPRESETCTRL) for RCC_SetPRESETCTRL
==============================================================================

Removing Unused input sections from the image.

    Removing system_m1130.o(.rev16_text), (4 bytes).
    Removing system_m1130.o(.revsh_text), (4 bytes).
    Removing startup_m1130.o(HEAP), (512 bytes).
    Removing m1130_adc.o(.rev16_text), (4 bytes).
    Removing m1130_adc.o(.revsh_text), (4 bytes).
    Removing m1130_adc.o(i.ADC_AnaEn), (160 bytes).
    Removing m1130_adc.o(i.ADC_ClearConvValue), (220 bytes).
    Removing m1130_adc.o(i.ADC_ClearITFlag), (172 bytes).
    Removing m1130_adc.o(i.ADC_DeInit), (264 bytes).
    Removing m1130_adc.o(i.ADC_GetConvValue), (204 bytes).
    Removing m1130_adc.o(i.ADC_GetITStatus), (196 bytes).
    Removing m1130_adc.o(i.ADC_ITConfig), (100 bytes).
    Removing m1130_adc.o(i.ADC_Init), (304 bytes).
    Removing m1130_adc.o(i.ADC_RCC_Init), (40 bytes).
    Removing m1130_adc.o(i.ADC_Run), (20 bytes).
    Removing m1130_adc.o(i.ADC_SetAccumulate), (212 bytes).
    Removing m1130_adc.o(i.ADC_SetConvChannel), (252 bytes).
    Removing m1130_adc.o(i.ADC_StartSoftwareTrigConv), (12 bytes).
==============================================================================

Image Symbol Table

    Local Symbols

    Symbol Name                              Value     Ov Type        Size  Object(Section)

    RESET                                    0x00000000   Section      176  startup_m1130.o(RESET)
    ../clib/microlib/division.c              0x00000000   Number         0  uldiv.o ABSOLUTE
    ../clib/microlib/division.c              0x00000000   Number         0  uidiv.o ABSOLUTE
    ../clib/microlib/init/entry.s            0x00000000   Number         0  entry11a.o ABSOLUTE
    ../clib/microlib/init/entry.s            0x00000000   Number         0  entry8b.o ABSOLUTE
    ../clib/microlib/init/entry.s            0x00000000   Number         0  entry8a.o ABSOLUTE
    ../clib/microlib/init/entry.s            0x00000000   Number         0  entry10a.o ABSOLUTE
    ../clib/microlib/init/entry.s            0x00000000   Number         0  entry7b.o ABSOLUTE
    ../clib/microlib/init/entry.s            0x00000000   Number         0  entry7a.o ABSOLUTE
    ../clib/microlib/init/entry.s            0x00000000   Number         0  entry2.o ABSOLUTE
    ../clib/microlib/init/entry.s            0x00000000   Number         0  entry5.o ABSOLUTE
    ../clib/microlib/init/entry.s            0x00000000   Number         0  entry.o ABSOLUTE
    ../clib/microlib/init/entry.s            0x00000000   Number         0  entry11b.o ABSOLUTE
    ../clib/microlib/init/entry.s            0x00000000   Number         0  entry10b.o ABSOLUTE
    ../clib/microlib/init/entry.s            0x00000000   Number         0  entry9b.o ABSOLUTE
    ../clib/microlib/init/entry.s            0x00000000   Number         0  entry9a.o ABSOLUTE
    ../clib/microlib/longlong.c              0x00000000   Number         0  llsshr.o ABSOLUTE
    ../clib/microlib/longlong.c              0x00000000   Number         0  llushr.o ABSOLUTE
    ../clib/microlib/longlong.c              0x00000000   Number         0  llshl.o ABSOLUTE
    ../clib/microlib/printf/printf.c         0x00000000   Number         0  printf8.o ABSOLUTE
    ../clib/microlib/printf/printf.c         0x00000000   Number         0  printfb.o ABSOLUTE
    ../clib/microlib/printf/printf.c         0x00000000   Number         0  printf0.o ABSOLUTE
    ../clib/microlib/printf/printf.c         0x00000000   Number         0  printf1.o ABSOLUTE
    ../clib/microlib/printf/printf.c         0x00000000   Number         0  printf2.o ABSOLUTE
    ../clib/microlib/printf/printf.c         0x00000000   Number         0  printf3.o ABSOLUTE
    ../clib/microlib/printf/printf.c         0x00000000   Number         0  printf4.o ABSOLUTE
    ../clib/microlib/printf/printf.c         0x00000000   Number         0  printfa.o ABSOLUTE
    ../clib/microlib/printf/printf.c         0x00000000   Number         0  printf5.o ABSOLUTE
    ../clib/microlib/printf/printf.c         0x00000000   Number         0  printf7.o ABSOLUTE
    ../clib/microlib/printf/printf.c         0x00000000   Number         0  printf6.o ABSOLUTE
    ../clib/microlib/printf/stubs.s          0x00000000   Number         0  stubs.o ABSOLUTE
    ../clib/microlib/stdio/streams.c         0x00000000   Number         0  stdout.o ABSOLUTE
    ../clib/microlib/string/memcpy.c         0x00000000   Number         0  memcpyb.o ABSOLUTE
    ../clib/microlib/string/memcpy.c         0x00000000   Number         0  memcpya.o ABSOLUTE
    ../clib/microlib/string/memset.c         0x00000000   Number         0  memseta.o ABSOLUTE
    ../clib/microlib/string/strlen.c         0x00000000   Number         0  strlen.o ABSOLUTE
    ../clib/microlib/stubs.s                 0x00000000   Number         0  iusefp.o ABSOLUTE
    ../fplib/microlib/fpadd.c                0x00000000   Number         0  dadd.o ABSOLUTE
    ../fplib/microlib/fpdiv.c                0x00000000   Number         0  ddiv.o ABSOLUTE
    ../fplib/microlib/fpepilogue.c           0x00000000   Number         0  depilogue.o ABSOLUTE
    ../fplib/microlib/fpfix.c                0x00000000   Number         0  dfixul.o ABSOLUTE
    ../fplib/microlib/fpmul.c                0x00000000   Number         0  dmul.o ABSOLUTE
    ..\..\..\Libraries\CMSIS\Device\ALPOS\M1130\Source\Templates\arm\startup_m1130.s 0x00000000   Number         0  startup_m1130.o ABSOLUTE
    ..\..\..\Libraries\CMSIS\Device\ALPOS\M1130\Source\Templates\system_m1130.c 0x00000000   Number         0  system_m1130.o ABSOLUTE
    ..\..\..\Libraries\M1130_StdPeriph_Driver\src\m1130_adc.c 0x00000000   Number         0  m1130_adc.o ABSOLUTE
    ..\..\..\Libraries\M1130_StdPeriph_Driver\src\m1130_dma.c 0x00000000   Number         0  m1130_dma.o ABSOLUTE
    ..\..\..\Libraries\M1130_StdPeriph_Driver\src\m1130_gpio.c 0x00000000   Number         0  m1130_gpio.o ABSOLUTE
    ..\..\..\Libraries\M1130_StdPeriph_Driver\src\m1130_qspi.c 0x00000000   Number         0  m1130_qspi.o ABSOLUTE
    ..\..\..\Libraries\M1130_StdPeriph_Driver\src\m1130_rcc.c 0x00000000   Number         0  m1130_rcc.o ABSOLUTE
    ..\..\..\Libraries\M1130_StdPeriph_Driver\src\m1130_tim.c 0x00000000   Number         0  m1130_tim.o ABSOLUTE
    ..\..\..\Libraries\M1130_StdPeriph_Driver\src\m1130_usart.c 0x00000000   Number         0  m1130_usart.o ABSOLUTE
    ..\..\..\Libraries\M1130_StdPeriph_Driver\src\m1130_xip_write.c 0x00000000   Number         0  m1130_xip_write.o ABSOLUTE
    ..\..\..\Libraries\M1130_StdPeriph_Driver\src\misc.c 0x00000000   Number         0  misc.o ABSOLUTE
    ..\..\..\Libraries\Utility\m1130_utility.c 0x00000000   Number         0  m1130_utility.o ABSOLUTE
    ..\..\..\Libraries\Utility\m1130_utility_dma.c 0x00000000   Number         0  m1130_utility_dma.o ABSOLUTE
    ..\..\..\Libraries\Utility\m1130_utility_usart.c 0x00000000   Number         0  m1130_utility_usart.o ABSOLUTE
    ..\..\..\Libraries\eval\m1130_eval.c     0x00000000   Number         0  m1130_eval.o ABSOLUTE
    ..\..\..\Libraries\eval\m1130_eval_qspi.c 0x00000000   Number         0  m1130_eval_qspi.o ABSOLUTE
    ..\\..\\..\\Libraries\\CMSIS\\Device\\ALPOS\\M1130\\Source\\Templates\\system_m1130.c 0x00000000   Number         0  system_m1130.o ABSOLUTE
    ..\\..\\..\\Libraries\\M1130_StdPeriph_Driver\\src\\m1130_adc.c 0x00000000   Number         0  m1130_adc.o ABSOLUTE
    ..\\..\\..\\Libraries\\M1130_StdPeriph_Driver\\src\\m1130_dma.c 0x00000000   Number         0  m1130_dma.o ABSOLUTE
    ..\\..\\..\\Libraries\\M1130_StdPeriph_Driver\\src\\m1130_gpio.c 0x00000000   Number         0  m1130_gpio.o ABSOLUTE
    ..\\..\\..\\Libraries\\M1130_StdPeriph_Driver\\src\\m1130_qspi.c 0x00000000   Number         0  m1130_qspi.o ABSOLUTE
    ..\\..\\..\\Libraries\\M1130_StdPeriph_Driver\\src\\m1130_rcc.c 0x00000000   Number         0  m1130_rcc.o ABSOLUTE
    ..\\..\\..\\Libraries\\M1130_StdPeriph_Driver\\src\\m1130_tim.c 0x00000000   Number         0  m1130_tim.o ABSOLUTE
    ..\\..\\..\\Libraries\\M1130_StdPeriph_Driver\\src\\m1130_usart.c 0x00000000   Number         0  m1130_usart.o ABSOLUTE
    ..\\..\\..\\Libraries\\M1130_StdPeriph_Driver\\src\\m1130_xip_write.c 0x00000000   Number         0  m1130_xip_write.o ABSOLUTE
    ..\\..\\..\\Libraries\\M1130_StdPeriph_Driver\\src\\misc.c 0x00000000   Number         0  misc.o ABSOLUTE
    ..\\..\\..\\Libraries\\Utility\\m1130_utility.c 0x00000000   Number         0  m1130_utility.o ABSOLUTE
    ..\\..\\..\\Libraries\\Utility\\m1130_utility_dma.c 0x00000000   Number         0  m1130_utility_dma.o ABSOLUTE
    ..\\..\\..\\Libraries\\Utility\\m1130_utility_usart.c 0x00000000   Number         0  m1130_utility_usart.o ABSOLUTE
    ..\\..\\..\\Libraries\\eval\\m1130_eval.c 0x00000000   Number         0  m1130_eval.o ABSOLUTE
    ..\\..\\..\\Libraries\\eval\\m1130_eval_qspi.c 0x00000000   Number         0  m1130_eval_qspi.o ABSOLUTE
    ..\\src\\m1130_it.c                      0x00000000   Number         0  m1130_it.o ABSOLUTE
    ..\\src\\main_XIP1.c                     0x00000000   Number         0  main_xip1.o ABSOLUTE
    ..\src\m1130_it.c                        0x00000000   Number         0  m1130_it.o ABSOLUTE
    ..\src\main_XIP1.c                       0x00000000   Number         0  main_xip1.o ABSOLUTE
    cdrcmple.s                               0x00000000   Number         0  cdrcmple.o ABSOLUTE
    dc.s                                     0x00000000   Number         0  dc.o ABSOLUTE
    handlers.s                               0x00000000   Number         0  handlers.o ABSOLUTE
    init.s                                   0x00000000   Number         0  init.o ABSOLUTE
    .text                                    0x000000b0   Section       28  startup_m1130.o(.text)
    i.HardFault_Handler                      0x000000cc   Section        0  m1130_it.o(i.HardFault_Handler)
    i.PendSV_Handler                         0x000000ce   Section        0  m1130_it.o(i.PendSV_Handler)
    i.SVC_Handler                            0x000000d0   Section        0  m1130_it.o(i.SVC_Handler)
    i.SysTick_Handler                        0x000000d2   Section        0  m1130_it.o(i.SysTick_Handler)
    i.commonDelay                            0x000000d4   Section        0  m1130_it.o(i.commonDelay)
    .ARM.Collect$$$$00000000                 0x000000e8   Section        0  entry.o(.ARM.Collect$$$$00000000)
    .ARM.Collect$$$$00000001                 0x000000e8   Section        4  entry2.o(.ARM.Collect$$$$00000001)
    .ARM.Collect$$$$00000004                 0x000000ec   Section        4  entry5.o(.ARM.Collect$$$$00000004)
    .ARM.Collect$$$$00000008                 0x000000f0   Section        0  entry7b.o(.ARM.Collect$$$$00000008)
    .ARM.Collect$$$$0000000A                 0x000000f0   Section        0  entry8b.o(.ARM.Collect$$$$0000000A)
    .ARM.Collect$$$$0000000B                 0x000000f0   Section        8  entry9a.o(.ARM.Collect$$$$0000000B)
    .ARM.Collect$$$$0000000D                 0x000000f8   Section        0  entry10a.o(.ARM.Collect$$$$0000000D)
    .ARM.Collect$$$$0000000F                 0x000000f8   Section        0  entry11a.o(.ARM.Collect$$$$0000000F)
    .ARM.Collect$$$$00002712                 0x000000f8   Section        4  entry2.o(.ARM.Collect$$$$00002712)
    __lit__00000000                          0x000000f8   Data           4  entry2.o(.ARM.Collect$$$$00002712)
    .text                                    0x000000fc   Section       36  init.o(.text)
    i.__scatterload_copy                     0x00000120   Section       14  handlers.o(i.__scatterload_copy)
    i.__scatterload_null                     0x0000012e   Section        2  handlers.o(i.__scatterload_null)
    i.__scatterload_zeroinit                 0x00000130   Section       14  handlers.o(i.__scatterload_zeroinit)
    .text                                    0x00000160   Section        0  uidiv.o(.text)
    .text                                    0x0000018c   Section        0  uldiv.o(.text)
    .text                                    0x000001ec   Section        0  llshl.o(.text)
    .text                                    0x0000020c   Section        0  llushr.o(.text)
    i.DMA_IRQHandler                         0x00000230   Section        0  m1130_dma.o(i.DMA_IRQHandler)
    i.DmaChannelCFGset                       0x000002a4   Section        0  m1130_dma.o(i.DmaChannelCFGset)
    i.DmaChannelClearInterruptStatus         0x00000314   Section        0  m1130_dma.o(i.DmaChannelClearInterruptStatus)
    i.DmaChannelInterruptStatusBit           0x0000037c   Section        0  m1130_dma.o(i.DmaChannelInterruptStatusBit)
    i.DmaFreeChannel                         0x000003f4   Section        0  m1130_dma.o(i.DmaFreeChannel)
    i.DmaIsBusy                              0x00000414   Section        0  m1130_dma.o(i.DmaIsBusy)
    i.DmaRequestChannel                      0x00000488   Section        0  m1130_dma.o(i.DmaRequestChannel)
    i.DmaStart                               0x000004d0   Section        0  m1130_dma.o(i.DmaStart)
    DmaStart                                 0x000004d1   Thumb Code    46  m1130_dma.o(i.DmaStart)
    i.DmaStartRoutine                        0x00000540   Section        0  m1130_dma.o(i.DmaStartRoutine)
    i.GPIO_Init                              0x000005cc   Section        0  m1130_gpio.o(i.GPIO_Init)
    i.GPIO_SetPin                            0x00000714   Section        0  m1130_gpio.o(i.GPIO_SetPin)
    i.GPIO_SetPinMux                         0x00000788   Section        0  m1130_gpio.o(i.GPIO_SetPinMux)
    i.NVIC_Init                              0x0000087c   Section        0  misc.o(i.NVIC_Init)
    i.QSPI_CS_High                           0x0000091c   Section        0  m1130_qspi.o(i.QSPI_CS_High)
    i.QSPI_CS_Low                            0x00000928   Section        0  m1130_qspi.o(i.QSPI_CS_Low)
    i.QSPI_DMACmd                            0x00000934   Section        0  m1130_qspi.o(i.QSPI_DMACmd)
    i.QSPI_DataConfig                        0x00000998   Section        0  m1130_qspi.o(i.QSPI_DataConfig)
    i.QSPI_FirstBitSet                       0x00000a5c   Section        0  m1130_qspi.o(i.QSPI_FirstBitSet)
    i.QSPI_FrameLengthSet                    0x00000ac0   Section        0  m1130_qspi.o(i.QSPI_FrameLengthSet)
    i.QSPI_GetFlagStatus                     0x00000b68   Section        0  m1130_qspi.o(i.QSPI_GetFlagStatus)
    i.QSPI_HwInit                            0x00000bcc   Section        0  m1130_qspi.o(i.QSPI_HwInit)
    i.QSPI_LowLevel_DMA_RxConfig             0x00000d08   Section        0  m1130_eval.o(i.QSPI_LowLevel_DMA_RxConfig)
    i.QSPI_LowLevel_DMA_TxConfig             0x00000e38   Section        0  m1130_eval.o(i.QSPI_LowLevel_DMA_TxConfig)
    i.QSPI_ModeSet                           0x00000f1c   Section        0  m1130_qspi.o(i.QSPI_ModeSet)
    i.QSPI_PinSwitch                         0x00000f9c   Section        0  m1130_eval_qspi.o(i.QSPI_PinSwitch)
    i.QSPI_SetPowerState                     0x00001034   Section        0  m1130_qspi.o(i.QSPI_SetPowerState)
    i.RCC_GetClocksFreq                      0x000010e4   Section        0  m1130_rcc.o(i.RCC_GetClocksFreq)
    i.RCC_ResetAHBCLK                        0x00001284   Section        0  m1130_rcc.o(i.RCC_ResetAHBCLK)
    i.RCC_SETCLKDivider                      0x000012a4   Section        0  m1130_rcc.o(i.RCC_SETCLKDivider)
    i.RCC_SetAHBCLK                          0x0000132c   Section        0  m1130_rcc.o(i.RCC_SetAHBCLK)
    i.RCC_SetPRESETCTRL                      0x0000133c   Section        0  m1130_rcc.o(i.RCC_SetPRESETCTRL)
    i.RCC_UARTCLKSel                         0x0000134c   Section        0  m1130_rcc.o(i.RCC_UARTCLKSel)
    i.SystemInit                             0x000013b8   Section        0  system_m1130.o(i.SystemInit)
    i.UART0_IRQHandler                       0x00001414   Section        0  m1130_utility_usart.o(i.UART0_IRQHandler)
    i.UART1_IRQHandler                       0x00001428   Section        0  m1130_utility_usart.o(i.UART1_IRQHandler)
    i.UART2_IRQHandler                       0x0000143c   Section        0  m1130_utility_usart.o(i.UART2_IRQHandler)
    i.UART_Cmd                               0x00001450   Section        0  m1130_usart.o(i.UART_Cmd)
    i.UART_Configuration                     0x000014d8   Section        0  m1130_utility_usart.o(i.UART_Configuration)
    i.UART_GetFlagStatus                     0x00001638   Section        0  m1130_usart.o(i.UART_GetFlagStatus)
    i.UART_GetITStatus                       0x0000171c   Section        0  m1130_usart.o(i.UART_GetITStatus)
    i.UART_IRQHandler                        0x000017d8   Section        0  m1130_utility_usart.o(i.UART_IRQHandler)
    i.UART_ITConfig                          0x0000183c   Section        0  m1130_usart.o(i.UART_ITConfig)
    i.UART_Init                              0x000018e0   Section        0  m1130_usart.o(i.UART_Init)
    i.UART_Reset                             0x00001b00   Section        0  m1130_usart.o(i.UART_Reset)
    i.UART_SendData                          0x00001bac   Section        0  m1130_usart.o(i.UART_SendData)
    i.UART_StructInit                        0x00001c1c   Section        0  m1130_usart.o(i.UART_StructInit)
    i._WaitDmaSemaphore                      0x00001c40   Section        0  m1130_dma.o(i._WaitDmaSemaphore)
    _WaitDmaSemaphore                        0x00001c41   Thumb Code    60  m1130_dma.o(i._WaitDmaSemaphore)
    i.__0printf$5                            0x00001cb8   Section        0  printf5.o(i.__0printf$5)
    i.__ARM_common_switch8                   0x00001cd8   Section        0  m1130_utility_usart.o(i.__ARM_common_switch8)
    i._printf_core                           0x00001cf4   Section        0  printf5.o(i._printf_core)
    _printf_core                             0x00001cf5   Thumb Code   688  printf5.o(i._printf_core)
    i.assert_failed                          0x00001fd0   Section        0  m1130_utility_usart.o(i.assert_failed)
    i.fputc                                  0x0000200c   Section        0  m1130_utility_usart.o(i.fputc)
    i.main                                   0x00002034   Section        0  main_xip1.o(i.main)
    i.qspi_flash_erase_block_64k             0x00002110   Section        0  m1130_eval_qspi.o(i.qspi_flash_erase_block_64k)
    i.qspi_flash_global_unprotect            0x00002170   Section        0  m1130_eval_qspi.o(i.qspi_flash_global_unprotect)
    i.qspi_flash_init                        0x000021ac   Section        0  m1130_eval_qspi.o(i.qspi_flash_init)
    i.qspi_flash_quad_function_select        0x00002224   Section        0  m1130_eval_qspi.o(i.qspi_flash_quad_function_select)
    i.qspi_flash_read_buf                    0x00002270   Section        0  m1130_eval_qspi.o(i.qspi_flash_read_buf)
    i.qspi_flash_read_status1                0x000022e4   Section        0  m1130_eval_qspi.o(i.qspi_flash_read_status1)
    i.qspi_flash_read_status2                0x00002314   Section        0  m1130_eval_qspi.o(i.qspi_flash_read_status2)
    i.qspi_flash_send_addr                   0x00002344   Section        0  m1130_eval_qspi.o(i.qspi_flash_send_addr)
    qspi_flash_send_addr                     0x00002345   Thumb Code    62  m1130_eval_qspi.o(i.qspi_flash_send_addr)
    i.qspi_flash_send_cmd                    0x00002388   Section        0  m1130_eval_qspi.o(i.qspi_flash_send_cmd)
    qspi_flash_send_cmd                      0x00002389   Thumb Code    16  m1130_eval_qspi.o(i.qspi_flash_send_cmd)
    i.qspi_flash_write                       0x0000239c   Section        0  m1130_eval_qspi.o(i.qspi_flash_write)
    i.qspi_flash_write_buf                   0x00002408   Section        0  m1130_eval_qspi.o(i.qspi_flash_write_buf)
    i.qspi_flash_write_enable                0x0000247c   Section        0  m1130_eval_qspi.o(i.qspi_flash_write_enable)
    i.qspi_flash_write_page                  0x000024a0   Section        0  m1130_eval_qspi.o(i.qspi_flash_write_page)
    i.qspi_flash_write_status                0x00002510   Section        0  m1130_eval_qspi.o(i.qspi_flash_write_status)
    i.qspi_initPins                          0x00002564   Section        0  m1130_eval_qspi.o(i.qspi_initPins)
    i.start_xip1                             0x00002654   Section        0  main_xip1.o(i.start_xip1)
    i.switchQSPI                             0x000026d4   Section        0  m1130_eval_qspi.o(i.switchQSPI)
    i.testExit                               0x0000270c   Section        0  main_xip1.o(i.testExit)
    .data                                    0x20000000   Section        1  m1130_dma.o(.data)
    .data                                    0x20000004   Section       16  m1130_eval_qspi.o(.data)
    qspi_cmd                                 0x20000008   Data           4  m1130_eval_qspi.o(.data)
    qspi_addr                                0x2000000c   Data           4  m1130_eval_qspi.o(.data)
    qspi_flash_status                        0x20000010   Data           4  m1130_eval_qspi.o(.data)
    .data                                    0x20000014   Section        4  stdout.o(.data)
    .bss                                     0x20000018   Section       16  m1130_dma.o(.bss)
    .bss                                     0x20000028   Section      256  main_xip1.o(.bss)
    .bss                                     0x20000128   Section     1060  m1130_utility_usart.o(.bss)
    STACK                                    0x20000550   Section     1024  startup_m1130.o(STACK)

    Global Symbols

    Symbol Name                              Value     Ov Type        Size  Object(Section)

    BuildAttributes$$THM_ISAv3M$S$PE$A:L22$X:L11$S22$IEEE1$IW$USESV6$~STKCKD$USESV7$~SHL$OSPACE$ROPI$EBA8$MICROLIB$REQ8$PRES8$EABIv2 0x00000000   Number         0  anon$$obj.o ABSOLUTE
    __ARM_use_no_argv                        0x00000000   Number         0  main_xip1.o ABSOLUTE
    __Vectors                                0x00000000   Data           4  startup_m1130.o(RESET)
    _printf_a                                0x00000000   Number         0  stubs.o ABSOLUTE
    _printf_c                                0x00000000   Number         0  stubs.o ABSOLUTE
    _printf_charcount                        0x00000000   Number         0  stubs.o ABSOLUTE
    _printf_d                                0x00000000   Number         0  stubs.o ABSOLUTE
    _printf_e                                0x00000000   Number         0  stubs.o ABSOLUTE
    _printf_f                                0x00000000   Number         0  stubs.o ABSOLUTE
    _printf_flags                            0x00000000   Number         0  stubs.o ABSOLUTE
    _printf_fp_dec                           0x00000000   Number         0  stubs.o ABSOLUTE
    _printf_fp_hex                           0x00000000   Number         0  stubs.o ABSOLUTE
    _printf_g                                0x00000000   Number         0  stubs.o ABSOLUTE
    _printf_i                                0x00000000   Number         0  stubs.o ABSOLUTE
    _printf_int_dec                          0x00000000   Number         0  stubs.o ABSOLUTE
    _printf_l                                0x00000000   Number         0  stubs.o ABSOLUTE
    _printf_lc                               0x00000000   Number         0  stubs.o ABSOLUTE
    _printf_ll                               0x00000000   Number         0  stubs.o ABSOLUTE
    _printf_lld                              0x00000000   Number         0  stubs.o ABSOLUTE
    _printf_lli                              0x00000000   Number         0  stubs.o ABSOLUTE
    _printf_llo                              0x00000000   Number         0  stubs.o ABSOLUTE
    _printf_llu                              0x00000000   Number         0  stubs.o ABSOLUTE
    _printf_llx                              0x00000000   Number         0  stubs.o ABSOLUTE
    _printf_longlong_dec                     0x00000000   Number         0  stubs.o ABSOLUTE
    _printf_longlong_hex                     0x00000000   Number         0  stubs.o ABSOLUTE
    _printf_longlong_oct                     0x00000000   Number         0  stubs.o ABSOLUTE
    _printf_ls                               0x00000000   Number         0  stubs.o ABSOLUTE
    _printf_mbtowc                           0x00000000   Number         0  stubs.o ABSOLUTE
    _printf_n                                0x00000000   Number         0  stubs.o ABSOLUTE
    _printf_o                                0x00000000   Number         0  stubs.o ABSOLUTE
    _printf_p                                0x00000000   Number         0  stubs.o ABSOLUTE
    _printf_percent                          0x00000000   Number         0  stubs.o ABSOLUTE
    _printf_pre_padding                      0x00000000   Number         0  stubs.o ABSOLUTE
    _printf_return_value                     0x00000000   Number         0  stubs.o ABSOLUTE
    _printf_s                                0x00000000   Number         0  stubs.o ABSOLUTE
    _printf_sizespec                         0x00000000   Number         0  stubs.o ABSOLUTE
    _printf_str                              0x00000000   Number         0  stubs.o ABSOLUTE
    _printf_truncate_signed                  0x00000000   Number         0  stubs.o ABSOLUTE
    _printf_truncate_unsigned                0x00000000   Number         0  stubs.o ABSOLUTE
    _printf_u                                0x00000000   Number         0  stubs.o ABSOLUTE
    _printf_wc                               0x00000000   Number         0  stubs.o ABSOLUTE
    _printf_wctomb                           0x00000000   Number         0  stubs.o ABSOLUTE
    _printf_widthprec                        0x00000000   Number         0  stubs.o ABSOLUTE
    _printf_x                                0x00000000   Number         0  stubs.o ABSOLUTE
    __cpp_initialize__aeabi_                  - Undefined Weak Reference
    __cxa_finalize                            - Undefined Weak Reference
    __decompress                              - Undefined Weak Reference
    _clock_init                               - Undefined Weak Reference
    _microlib_exit                            - Undefined Weak Reference
    Reset_Handler                            0x000000b1   Thumb Code     8  startup_m1130.o(.text)
    __Vectors_End                            0x000000b0   Data           0  startup_m1130.o(RESET)
    __Vectors_Size                           0x000000b0   Number         0  startup_m1130.o ABSOLUTE
    NMI_Handler                              0x000000b9   Thumb Code     2  startup_m1130.o(.text)
    ADC0_IRQHandler                          0x000000c3   Thumb Code     0  startup_m1130.o(.text)
    BITCOPY_IRQHandler                       0x000000c3   Thumb Code     0  startup_m1130.o(.text)
    BOD_IRQHandler                           0x000000c3   Thumb Code     0  startup_m1130.o(.text)
    BOR_IRQHandler                           0x000000c3   Thumb Code     0  startup_m1130.o(.text)
    CMP_IRQHandler                           0x000000c3   Thumb Code     0  startup_m1130.o(.text)
    GPIO0_IRQHandler                         0x000000c3   Thumb Code     0  startup_m1130.o(.text)
    GPIO1_IRQHandler                         0x000000c3   Thumb Code     0  startup_m1130.o(.text)
    I2C0_IRQHandler                          0x000000c3   Thumb Code     0  startup_m1130.o(.text)
    LED_IRQHandler                           0x000000c3   Thumb Code     0  startup_m1130.o(.text)
    QSPI0_IRQHandler                         0x000000c3   Thumb Code     0  startup_m1130.o(.text)
    QSPI1_IRQHandler                         0x000000c3   Thumb Code     0  startup_m1130.o(.text)
    QSPI2_IRQHandler                         0x000000c3   Thumb Code     0  startup_m1130.o(.text)
    RTC_IRQHandler                           0x000000c3   Thumb Code     0  startup_m1130.o(.text)
    TIM15_IRQHandler                         0x000000c3   Thumb Code     0  startup_m1130.o(.text)
    TIM16_IRQHandler                         0x000000c3   Thumb Code     0  startup_m1130.o(.text)
    TIM17_IRQHandler                         0x000000c3   Thumb Code     0  startup_m1130.o(.text)
    TIM1_IRQHandler                          0x000000c3   Thumb Code     0  startup_m1130.o(.text)
    TIM4_IRQHandler                          0x000000c3   Thumb Code     0  startup_m1130.o(.text)
    USB0_DMA_IRQHandler                      0x000000c3   Thumb Code     0  startup_m1130.o(.text)
    USB0_IRQHandler                          0x000000c3   Thumb Code     0  startup_m1130.o(.text)
    WKT_IRQHandler                           0x000000c3   Thumb Code     0  startup_m1130.o(.text)
    HardFault_Handler                        0x000000cd   Thumb Code     2  m1130_it.o(i.HardFault_Handler)
    PendSV_Handler                           0x000000cf   Thumb Code     2  m1130_it.o(i.PendSV_Handler)
    SVC_Handler                              0x000000d1   Thumb Code     2  m1130_it.o(i.SVC_Handler)
    SysTick_Handler                          0x000000d3   Thumb Code     2  m1130_it.o(i.SysTick_Handler)
    commonDelay                              0x000000d5   Thumb Code    18  m1130_it.o(i.commonDelay)
    __main                                   0x000000e9   Thumb Code     0  entry.o(.ARM.Collect$$$$00000000)
    _main_stk                                0x000000e9   Thumb Code     0  entry2.o(.ARM.Collect$$$$00000001)
    _main_scatterload                        0x000000ed   Thumb Code     0  entry5.o(.ARM.Collect$$$$00000004)
    __main_after_scatterload                 0x000000f1   Thumb Code     0  entry5.o(.ARM.Collect$$$$00000004)
    _main_clock                              0x000000f1   Thumb Code     0  entry7b.o(.ARM.Collect$$$$00000008)
    _main_cpp_init                           0x000000f1   Thumb Code     0  entry8b.o(.ARM.Collect$$$$0000000A)
    _main_init                               0x000000f1   Thumb Code     0  entry9a.o(.ARM.Collect$$$$0000000B)
    __rt_final_cpp                           0x000000f9   Thumb Code     0  entry10a.o(.ARM.Collect$$$$0000000D)
    __rt_final_exit                          0x000000f9   Thumb Code     0  entry11a.o(.ARM.Collect$$$$0000000F)
    __scatterload                            0x000000fd   Thumb Code    28  init.o(.text)
    __scatterload_rt2                        0x000000fd   Thumb Code     0  init.o(.text)
    __scatterload_copy                       0x00000121   Thumb Code    14  handlers.o(i.__scatterload_copy)
    __scatterload_null                       0x0000012f   Thumb Code     2  handlers.o(i.__scatterload_null)
    __scatterload_zeroinit                   0x00000131   Thumb Code    14  handlers.o(i.__scatterload_zeroinit)
    Region$$Table$$Base                      0x00000140   Number         0  anon$$obj.o(Region$$Table)
    Region$$Table$$Limit                     0x00000160   Number         0  anon$$obj.o(Region$$Table)
    __aeabi_uidiv                            0x00000161   Thumb Code     0  uidiv.o(.text)
    __aeabi_uidivmod                         0x00000161   Thumb Code    44  uidiv.o(.text)
    __aeabi_uldivmod                         0x0000018d   Thumb Code    96  uldiv.o(.text)
    __aeabi_llsl                             0x000001ed   Thumb Code    32  llshl.o(.text)
    _ll_shift_l                              0x000001ed   Thumb Code     0  llshl.o(.text)
    __aeabi_llsr                             0x0000020d   Thumb Code    34  llushr.o(.text)
    _ll_ushift_r                             0x0000020d   Thumb Code     0  llushr.o(.text)
    DMA_IRQHandler                           0x00000231   Thumb Code   110  m1130_dma.o(i.DMA_IRQHandler)
    DmaChannelCFGset                         0x000002a5   Thumb Code    46  m1130_dma.o(i.DmaChannelCFGset)
    DmaChannelClearInterruptStatus           0x00000315   Thumb Code    40  m1130_dma.o(i.DmaChannelClearInterruptStatus)
    DmaChannelInterruptStatusBit             0x0000037d   Thumb Code    54  m1130_dma.o(i.DmaChannelInterruptStatusBit)
    DmaFreeChannel                           0x000003f5   Thumb Code    22  m1130_dma.o(i.DmaFreeChannel)
    DmaIsBusy                                0x00000415   Thumb Code    50  m1130_dma.o(i.DmaIsBusy)
    DmaRequestChannel                        0x00000489   Thumb Code    58  m1130_dma.o(i.DmaRequestChannel)
    DmaStartRoutine                          0x00000541   Thumb Code    80  m1130_dma.o(i.DmaStartRoutine)
    GPIO_Init                                0x000005cd   Thumb Code   248  m1130_gpio.o(i.GPIO_Init)
    GPIO_SetPin                              0x00000715   Thumb Code    44  m1130_gpio.o(i.GPIO_SetPin)
    GPIO_SetPinMux                           0x00000789   Thumb Code   170  m1130_gpio.o(i.GPIO_SetPinMux)
    NVIC_Init                                0x0000087d   Thumb Code    94  misc.o(i.NVIC_Init)
    QSPI_CS_High                             0x0000091d   Thumb Code    12  m1130_qspi.o(i.QSPI_CS_High)
    QSPI_CS_Low                              0x00000929   Thumb Code    12  m1130_qspi.o(i.QSPI_CS_Low)
    QSPI_DMACmd                              0x00000935   Thumb Code    40  m1130_qspi.o(i.QSPI_DMACmd)
    QSPI_DataConfig                          0x00000999   Thumb Code   136  m1130_qspi.o(i.QSPI_DataConfig)
    QSPI_FirstBitSet                         0x00000a5d   Thumb Code    40  m1130_qspi.o(i.QSPI_FirstBitSet)
    QSPI_FrameLengthSet                      0x00000ac1   Thumb Code   106  m1130_qspi.o(i.QSPI_FrameLengthSet)
    QSPI_GetFlagStatus                       0x00000b69   Thumb Code    36  m1130_qspi.o(i.QSPI_GetFlagStatus)
    QSPI_HwInit                              0x00000bcd   Thumb Code   250  m1130_qspi.o(i.QSPI_HwInit)
    QSPI_LowLevel_DMA_RxConfig               0x00000d09   Thumb Code   198  m1130_eval.o(i.QSPI_LowLevel_DMA_RxConfig)
    QSPI_LowLevel_DMA_TxConfig               0x00000e39   Thumb Code   150  m1130_eval.o(i.QSPI_LowLevel_DMA_TxConfig)
    QSPI_ModeSet                             0x00000f1d   Thumb Code    68  m1130_qspi.o(i.QSPI_ModeSet)
    QSPI_PinSwitch                           0x00000f9d   Thumb Code   140  m1130_eval_qspi.o(i.QSPI_PinSwitch)
    QSPI_SetPowerState                       0x00001035   Thumb Code   108  m1130_qspi.o(i.QSPI_SetPowerState)
    RCC_GetClocksFreq                        0x000010e5   Thumb Code   398  m1130_rcc.o(i.RCC_GetClocksFreq)
    RCC_ResetAHBCLK                          0x00001285   Thumb Code    30  m1130_rcc.o(i.RCC_ResetAHBCLK)
    RCC_SETCLKDivider                        0x000012a5   Thumb Code    76  m1130_rcc.o(i.RCC_SETCLKDivider)
    RCC_SetAHBCLK                            0x0000132d   Thumb Code    16  m1130_rcc.o(i.RCC_SetAHBCLK)
    RCC_SetPRESETCTRL                        0x0000133d   Thumb Code    16  m1130_rcc.o(i.RCC_SetPRESETCTRL)
    RCC_UARTCLKSel                           0x0000134d   Thumb Code    42  m1130_rcc.o(i.RCC_UARTCLKSel)
    SystemInit                               0x000013b9   Thumb Code    76  system_m1130.o(i.SystemInit)
    UART0_IRQHandler                         0x00001415   Thumb Code    12  m1130_utility_usart.o(i.UART0_IRQHandler)
    UART1_IRQHandler                         0x00001429   Thumb Code    12  m1130_utility_usart.o(i.UART1_IRQHandler)
    UART2_IRQHandler                         0x0000143d   Thumb Code    12  m1130_utility_usart.o(i.UART2_IRQHandler)
    UART_Cmd                                 0x00001451   Thumb Code    62  m1130_usart.o(i.UART_Cmd)
    UART_Configuration                       0x000014d9   Thumb Code   332  m1130_utility_usart.o(i.UART_Configuration)
    UART_GetFlagStatus                       0x00001639   Thumb Code   152  m1130_usart.o(i.UART_GetFlagStatus)
    UART_GetITStatus                         0x0000171d   Thumb Code   112  m1130_usart.o(i.UART_GetITStatus)
    UART_IRQHandler                          0x000017d9   Thumb Code   100  m1130_utility_usart.o(i.UART_IRQHandler)
    UART_ITConfig                            0x0000183d   Thumb Code    88  m1130_usart.o(i.UART_ITConfig)
    UART_Init                                0x000018e1   Thumb Code   464  m1130_usart.o(i.UART_Init)
    UART_Reset                               0x00001b01   Thumb Code   100  m1130_usart.o(i.UART_Reset)
    UART_SendData                            0x00001bad   Thumb Code    38  m1130_usart.o(i.UART_SendData)
    UART_StructInit                          0x00001c1d   Thumb Code    34  m1130_usart.o(i.UART_StructInit)
    __0printf$5                              0x00001cb9   Thumb Code    24  printf5.o(i.__0printf$5)
    __1printf$5                              0x00001cb9   Thumb Code     0  printf5.o(i.__0printf$5)
    __2printf                                0x00001cb9   Thumb Code     0  printf5.o(i.__0printf$5)
    __ARM_common_switch8                     0x00001cd9   Thumb Code    26  m1130_utility_usart.o(i.__ARM_common_switch8)
    assert_failed                            0x00001fd1   Thumb Code    12  m1130_utility_usart.o(i.assert_failed)
    fputc                                    0x0000200d   Thumb Code    34  m1130_utility_usart.o(i.fputc)
    main                                     0x00002035   Thumb Code   146  main_xip1.o(i.main)
    qspi_flash_erase_block_64k               0x00002111   Thumb Code    92  m1130_eval_qspi.o(i.qspi_flash_erase_block_64k)
    qspi_flash_global_unprotect              0x00002171   Thumb Code    54  m1130_eval_qspi.o(i.qspi_flash_global_unprotect)
    qspi_flash_init                          0x000021ad   Thumb Code   110  m1130_eval_qspi.o(i.qspi_flash_init)
    qspi_flash_quad_function_select          0x00002225   Thumb Code    72  m1130_eval_qspi.o(i.qspi_flash_quad_function_select)
    qspi_flash_read_buf                      0x00002271   Thumb Code    94  m1130_eval_qspi.o(i.qspi_flash_read_buf)
    qspi_flash_read_status1                  0x000022e5   Thumb Code    44  m1130_eval_qspi.o(i.qspi_flash_read_status1)
    qspi_flash_read_status2                  0x00002315   Thumb Code    44  m1130_eval_qspi.o(i.qspi_flash_read_status2)
    qspi_flash_write                         0x0000239d   Thumb Code   108  m1130_eval_qspi.o(i.qspi_flash_write)
    qspi_flash_write_buf                     0x00002409   Thumb Code    94  m1130_eval_qspi.o(i.qspi_flash_write_buf)
    qspi_flash_write_enable                  0x0000247d   Thumb Code    36  m1130_eval_qspi.o(i.qspi_flash_write_enable)
    qspi_flash_write_page                    0x000024a1   Thumb Code   108  m1130_eval_qspi.o(i.qspi_flash_write_page)
    qspi_flash_write_status                  0x00002511   Thumb Code    82  m1130_eval_qspi.o(i.qspi_flash_write_status)
    qspi_initPins                            0x00002565   Thumb Code   226  m1130_eval_qspi.o(i.qspi_initPins)
    start_xip1                               0x00002655   Thumb Code   116  main_xip1.o(i.start_xip1)
    switchQSPI                               0x000026d5   Thumb Code    54  m1130_eval_qspi.o(i.switchQSPI)
    testExit                                 0x0000270d   Thumb Code   122  main_xip1.o(i.testExit)
    ChannelUsedMask                          0x20000000   Data           1  m1130_dma.o(.data)
    _4ByteAddrMode                           0x20000004   Data           1  m1130_eval_qspi.o(.data)
    g_qspixpos                               0x20000005   Data           1  m1130_eval_qspi.o(.data)
    __stdout                                 0x20000014   Data           4  stdout.o(.data)
    DmaHandlerGroup                          0x20000018   Data          16  m1130_dma.o(.bss)
    writeBuf                                 0x20000028   Data         256  main_xip1.o(.bss)
    Uart0_Recv                               0x20000128   Data         268  m1130_utility_usart.o(.bss)
    Uart1_Recv                               0x20000234   Data         268  m1130_utility_usart.o(.bss)
    Uart2_Recv                               0x20000340   Data         268  m1130_utility_usart.o(.bss)
    DmaRecvBuf                               0x2000044c   Data         256  m1130_utility_usart.o(.bss)
    __initial_sp                             0x20000950   Data           0  startup_m1130.o(STACK)



==============================================================================

Memory Map of the image

  Image Entry point : 0x000000e9

  Load Region LR_IROM1 (Base: 0x00000000, Size: 0x000027ac, Max: 0x00040000, ABSOLUTE)

    Execution Region ER_RESET (Exec base: 0x00000000, Load base: 0x00000000, Size: 0x000000b0, Max: 0xffffffff, ABSOLUTE)

    Exec Addr    Load Addr    Size         Type   Attr      Idx    E Section Name        Object

    0x00000000   0x00000000   0x000000b0   Data   RO           57    RESET               startup_m1130.o


    Execution Region ER_INT (Exec base: 0x000000b0, Load base: 0x000000b0, Size: 0x00000038, Max: 0xffffffff, ABSOLUTE)

    Exec Addr    Load Addr    Size         Type   Attr      Idx    E Section Name        Object

    0x000000b0   0x000000b0   0x0000001c   Code   RO           58    .text               startup_m1130.o
    0x000000cc   0x000000cc   0x00000002   Code   RO         1651    i.HardFault_Handler  m1130_it.o
    0x000000ce   0x000000ce   0x00000002   Code   RO         1653    i.PendSV_Handler    m1130_it.o
    0x000000d0   0x000000d0   0x00000002   Code   RO         1654    i.SVC_Handler       m1130_it.o
    0x000000d2   0x000000d2   0x00000002   Code   RO         1655    i.SysTick_Handler   m1130_it.o
    0x000000d4   0x000000d4   0x00000012   Code   RO         1657    i.commonDelay       m1130_it.o


    Execution Region ER_LIB (Exec base: 0x000000e8, Load base: 0x000000e8, Size: 0x00000078, Max: 0xffffffff, ABSOLUTE)

    Exec Addr    Load Addr    Size         Type   Attr      Idx    E Section Name        Object

    0x000000e8   0x000000e8   0x00000000   Code   RO         2233  * .ARM.Collect$$$$00000000  mc_p.l(entry.o)
    0x000000e8   0x000000e8   0x00000004   Code   RO         2507    .ARM.Collect$$$$00000001  mc_p.l(entry2.o)
    0x000000ec   0x000000ec   0x00000004   Code   RO         2510    .ARM.Collect$$$$00000004  mc_p.l(entry5.o)
    0x000000f0   0x000000f0   0x00000000   Code   RO         2512    .ARM.Collect$$$$00000008  mc_p.l(entry7b.o)
    0x000000f0   0x000000f0   0x00000000   Code   RO         2514    .ARM.Collect$$$$0000000A  mc_p.l(entry8b.o)
    0x000000f0   0x000000f0   0x00000008   Code   RO         2515    .ARM.Collect$$$$0000000B  mc_p.l(entry9a.o)
    0x000000f8   0x000000f8   0x00000000   Code   RO         2517    .ARM.Collect$$$$0000000D  mc_p.l(entry10a.o)
    0x000000f8   0x000000f8   0x00000000   Code   RO         2519    .ARM.Collect$$$$0000000F  mc_p.l(entry11a.o)
    0x000000f8   0x000000f8   0x00000004   Code   RO         2508    .ARM.Collect$$$$00002712  mc_p.l(entry2.o)
    0x000000fc   0x000000fc   0x00000024   Code   RO         2535    .text               mc_p.l(init.o)
    0x00000120   0x00000120   0x0000000e   Code   RO         2549    i.__scatterload_copy  mc_p.l(handlers.o)
    0x0000012e   0x0000012e   0x00000002   Code   RO         2550    i.__scatterload_null  mc_p.l(handlers.o)
    0x00000130   0x00000130   0x0000000e   Code   RO         2551    i.__scatterload_zeroinit  mc_p.l(handlers.o)
    0x0000013e   0x0000013e   0x00000002   PAD
    0x00000140   0x00000140   0x00000020   Data   RO         2547    Region$$Table       anon$$obj.o


    Execution Region ER_ANY (Exec base: 0x00000160, Load base: 0x00000160, Size: 0x00002634, Max: 0xffffffff, ABSOLUTE)

    Exec Addr    Load Addr    Size         Type   Attr      Idx    E Section Name        Object

    0x00000160   0x00000160   0x0000002c   Code   RO         2236    .text               mc_p.l(uidiv.o)
    0x0000018c   0x0000018c   0x00000060   Code   RO         2522    .text               mc_p.l(uldiv.o)
    0x000001ec   0x000001ec   0x00000020   Code   RO         2537    .text               mc_p.l(llshl.o)
    0x0000020c   0x0000020c   0x00000022   Code   RO         2539    .text               mc_p.l(llushr.o)
    0x0000022e   0x0000022e   0x00000002   PAD
    0x00000230   0x00000230   0x00000074   Code   RO          159    i.DMA_IRQHandler    m1130_dma.o
    0x000002a4   0x000002a4   0x00000070   Code   RO          160    i.DmaChannelCFGset  m1130_dma.o
    0x00000314   0x00000314   0x00000068   Code   RO          161    i.DmaChannelClearInterruptStatus  m1130_dma.o
    0x0000037c   0x0000037c   0x00000078   Code   RO          163    i.DmaChannelInterruptStatusBit  m1130_dma.o
    0x000003f4   0x000003f4   0x00000020   Code   RO          164    i.DmaFreeChannel    m1130_dma.o
    0x00000414   0x00000414   0x00000074   Code   RO          166    i.DmaIsBusy         m1130_dma.o
    0x00000488   0x00000488   0x00000048   Code   RO          167    i.DmaRequestChannel  m1130_dma.o
    0x000004d0   0x000004d0   0x00000070   Code   RO          168    i.DmaStart          m1130_dma.o
    0x00000540   0x00000540   0x0000008c   Code   RO          169    i.DmaStartRoutine   m1130_dma.o
    0x000005cc   0x000005cc   0x00000148   Code   RO          271    i.GPIO_Init         m1130_gpio.o
    0x00000714   0x00000714   0x00000074   Code   RO          279    i.GPIO_SetPin       m1130_gpio.o
    0x00000788   0x00000788   0x000000f4   Code   RO          281    i.GPIO_SetPinMux    m1130_gpio.o
    0x0000087c   0x0000087c   0x000000a0   Code   RO          770    i.NVIC_Init         misc.o
    0x0000091c   0x0000091c   0x0000000c   Code   RO          950    i.QSPI_CS_High      m1130_qspi.o
    0x00000928   0x00000928   0x0000000c   Code   RO          951    i.QSPI_CS_Low       m1130_qspi.o
    0x00000934   0x00000934   0x00000064   Code   RO          953    i.QSPI_DMACmd       m1130_qspi.o
    0x00000998   0x00000998   0x000000c4   Code   RO          954    i.QSPI_DataConfig   m1130_qspi.o
    0x00000a5c   0x00000a5c   0x00000064   Code   RO          956    i.QSPI_FirstBitSet  m1130_qspi.o
    0x00000ac0   0x00000ac0   0x000000a8   Code   RO          957    i.QSPI_FrameLengthSet  m1130_qspi.o
    0x00000b68   0x00000b68   0x00000064   Code   RO          958    i.QSPI_GetFlagStatus  m1130_qspi.o
    0x00000bcc   0x00000bcc   0x0000013c   Code   RO          961    i.QSPI_HwInit       m1130_qspi.o
    0x00000d08   0x00000d08   0x00000130   Code   RO         1959    i.QSPI_LowLevel_DMA_RxConfig  m1130_eval.o
    0x00000e38   0x00000e38   0x000000e4   Code   RO         1960    i.QSPI_LowLevel_DMA_TxConfig  m1130_eval.o
    0x00000f1c   0x00000f1c   0x00000080   Code   RO          963    i.QSPI_ModeSet      m1130_qspi.o
    0x00000f9c   0x00000f9c   0x00000098   Code   RO         1999    i.QSPI_PinSwitch    m1130_eval_qspi.o
    0x00001034   0x00001034   0x000000b0   Code   RO          968    i.QSPI_SetPowerState  m1130_qspi.o
    0x000010e4   0x000010e4   0x000001a0   Code   RO          431    i.RCC_GetClocksFreq  m1130_rcc.o
    0x00001284   0x00001284   0x0000001e   Code   RO          442    i.RCC_ResetAHBCLK   m1130_rcc.o
    0x000012a2   0x000012a2   0x00000002   PAD
    0x000012a4   0x000012a4   0x00000088   Code   RO          443    i.RCC_SETCLKDivider  m1130_rcc.o
    0x0000132c   0x0000132c   0x00000010   Code   RO          445    i.RCC_SetAHBCLK     m1130_rcc.o
    0x0000133c   0x0000133c   0x00000010   Code   RO          446    i.RCC_SetPRESETCTRL  m1130_rcc.o
    0x0000134c   0x0000134c   0x0000006c   Code   RO          448    i.RCC_UARTCLKSel    m1130_rcc.o
    0x000013b8   0x000013b8   0x0000005c   Code   RO            3    i.SystemInit        system_m1130.o
    0x00001414   0x00001414   0x00000014   Code   RO         1855    i.UART0_IRQHandler  m1130_utility_usart.o
    0x00001428   0x00001428   0x00000014   Code   RO         1856    i.UART1_IRQHandler  m1130_utility_usart.o
    0x0000143c   0x0000143c   0x00000014   Code   RO         1857    i.UART2_IRQHandler  m1130_utility_usart.o
    0x00001450   0x00001450   0x00000088   Code   RO          610    i.UART_Cmd          m1130_usart.o
    0x000014d8   0x000014d8   0x00000160   Code   RO         1858    i.UART_Configuration  m1130_utility_usart.o
    0x00001638   0x00001638   0x000000e4   Code   RO          612    i.UART_GetFlagStatus  m1130_usart.o
    0x0000171c   0x0000171c   0x000000bc   Code   RO          613    i.UART_GetITStatus  m1130_usart.o
    0x000017d8   0x000017d8   0x00000064   Code   RO         1862    i.UART_IRQHandler   m1130_utility_usart.o
    0x0000183c   0x0000183c   0x000000a4   Code   RO          614    i.UART_ITConfig     m1130_usart.o
    0x000018e0   0x000018e0   0x00000220   Code   RO          615    i.UART_Init         m1130_usart.o
    0x00001b00   0x00001b00   0x000000ac   Code   RO          624    i.UART_Reset        m1130_usart.o
    0x00001bac   0x00001bac   0x00000070   Code   RO          625    i.UART_SendData     m1130_usart.o
    0x00001c1c   0x00001c1c   0x00000022   Code   RO          627    i.UART_StructInit   m1130_usart.o
    0x00001c3e   0x00001c3e   0x00000002   PAD
    0x00001c40   0x00001c40   0x00000078   Code   RO          171    i._WaitDmaSemaphore  m1130_dma.o
    0x00001cb8   0x00001cb8   0x00000020   Code   RO         2379    i.__0printf$5       mc_p.l(printf5.o)
    0x00001cd8   0x00001cd8   0x0000001a   Code   RO         1951    i.__ARM_common_switch8  m1130_utility_usart.o
    0x00001cf2   0x00001cf2   0x00000002   PAD
    0x00001cf4   0x00001cf4   0x000002dc   Code   RO         2386    i._printf_core      mc_p.l(printf5.o)
    0x00001fd0   0x00001fd0   0x0000003c   Code   RO         1864    i.assert_failed     m1130_utility_usart.o
    0x0000200c   0x0000200c   0x00000028   Code   RO         1865    i.fputc             m1130_utility_usart.o
    0x00002034   0x00002034   0x000000dc   Code   RO         1720    i.main              main_xip1.o
    0x00002110   0x00002110   0x00000060   Code   RO         2009    i.qspi_flash_erase_block_64k  m1130_eval_qspi.o
    0x00002170   0x00002170   0x0000003c   Code   RO         2010    i.qspi_flash_global_unprotect  m1130_eval_qspi.o
    0x000021ac   0x000021ac   0x00000078   Code   RO         2011    i.qspi_flash_init   m1130_eval_qspi.o
    0x00002224   0x00002224   0x0000004c   Code   RO         2014    i.qspi_flash_quad_function_select  m1130_eval_qspi.o
    0x00002270   0x00002270   0x00000074   Code   RO         2020    i.qspi_flash_read_buf  m1130_eval_qspi.o
    0x000022e4   0x000022e4   0x00000030   Code   RO         2023    i.qspi_flash_read_status1  m1130_eval_qspi.o
    0x00002314   0x00002314   0x00000030   Code   RO         2024    i.qspi_flash_read_status2  m1130_eval_qspi.o
    0x00002344   0x00002344   0x00000044   Code   RO         2025    i.qspi_flash_send_addr  m1130_eval_qspi.o
    0x00002388   0x00002388   0x00000014   Code   RO         2026    i.qspi_flash_send_cmd  m1130_eval_qspi.o
    0x0000239c   0x0000239c   0x0000006c   Code   RO         2029    i.qspi_flash_write  m1130_eval_qspi.o
    0x00002408   0x00002408   0x00000074   Code   RO         2030    i.qspi_flash_write_buf  m1130_eval_qspi.o
    0x0000247c   0x0000247c   0x00000024   Code   RO         2031    i.qspi_flash_write_enable  m1130_eval_qspi.o
    0x000024a0   0x000024a0   0x00000070   Code   RO         2032    i.qspi_flash_write_page  m1130_eval_qspi.o
    0x00002510   0x00002510   0x00000052   Code   RO         2033    i.qspi_flash_write_status  m1130_eval_qspi.o
    0x00002562   0x00002562   0x00000002   PAD
    0x00002564   0x00002564   0x000000f0   Code   RO         2034    i.qspi_initPins     m1130_eval_qspi.o
    0x00002654   0x00002654   0x00000080   Code   RO         1721    i.start_xip1        main_xip1.o
    0x000026d4   0x000026d4   0x00000036   Code   RO         2035    i.switchQSPI        m1130_eval_qspi.o
    0x0000270a   0x0000270a   0x00000002   PAD
    0x0000270c   0x0000270c   0x00000088   Code   RO         1722    i.testExit          main_xip1.o


    Execution Region RW_IRAM1 (Exec base: 0x20000000, Load base: 0x00002794, Size: 0x00000950, Max: 0x00008000, ABSOLUTE)

    Exec Addr    Load Addr    Size         Type   Attr      Idx    E Section Name        Object

    0x20000000   0x00002794   0x00000001   Data   RW          173    .data               m1130_dma.o
    0x20000001   0x00002795   0x00000003   PAD
    0x20000004   0x00002798   0x00000010   Data   RW         2036    .data               m1130_eval_qspi.o
    0x20000014   0x000027a8   0x00000004   Data   RW         2521    .data               mc_p.l(stdout.o)
    0x20000018        -       0x00000010   Zero   RW          172    .bss                m1130_dma.o
    0x20000028        -       0x00000100   Zero   RW         1723    .bss                main_xip1.o
    0x20000128        -       0x00000424   Zero   RW         1868    .bss                m1130_utility_usart.o
    0x2000054c   0x000027ac   0x00000004   PAD
    0x20000550        -       0x00000400   Zero   RW           55    STACK               startup_m1130.o


==============================================================================

Image component sizes


      Code (inc. data)   RO Data    RW Data    ZI Data      Debug   Object Name

      1044        478          0          1         16      11037   m1130_dma.o
       532        184          0          0          0       2710   m1130_eval.o
      1552        116          0         16          0      14793   m1130_eval_qspi.o
       688        226          0          0          0       7731   m1130_gpio.o
        26          0          0          0          0       2427   m1130_it.o
      1308        500          0          0          0       8133   m1130_qspi.o
       722        144          0          0          0       5099   m1130_rcc.o
      1578        528          0          0          0      17442   m1130_usart.o
       638        106          0          0       1060       6145   m1130_utility_usart.o
         0          0          0          0          0       5420   m1130_xip_write.o
       484        100          0          0        256       4002   main_xip1.o
       160         66          0          0          0       1224   misc.o
        28          8        176          0       1024        768   startup_m1130.o
        92         16          0          0          0      67609   system_m1130.o

    ----------------------------------------------------------------------
      8864       2472        208         20       2360     154540   Object Totals
         0          0         32          0          0          0   (incl. Generated)
        12          0          0          3          4          0   (incl. Padding)

    ----------------------------------------------------------------------

      Code (inc. data)   RO Data    RW Data    ZI Data      Debug   Library Member Name

         0          0          0          0          0          0   entry.o
         0          0          0          0          0          0   entry10a.o
         0          0          0          0          0          0   entry11a.o
         8          4          0          0          0          0   entry2.o
         4          0          0          0          0          0   entry5.o
         0          0          0          0          0          0   entry7b.o
         0          0          0          0          0          0   entry8b.o
         8          4          0          0          0          0   entry9a.o
        30          0          0          0          0          0   handlers.o
        36          8          0          0          0         68   init.o
        32          0          0          0          0         68   llshl.o
        34          0          0          0          0         68   llushr.o
       764         52          0          0          0        168   printf5.o
         0          0          0          4          0          0   stdout.o
        44          0          0          0          0         72   uidiv.o
        96          0          0          0          0         84   uldiv.o

    ----------------------------------------------------------------------
      1060         68          0          4          0        528   Library Totals
         4          0          0          0          0          0   (incl. Padding)

    ----------------------------------------------------------------------

      Code (inc. data)   RO Data    RW Data    ZI Data      Debug   Library Name

      1056         68          0          4          0        528   mc_p.l

    ----------------------------------------------------------------------
      1060         68          0          4          0        528   Library Totals

    ----------------------------------------------------------------------

==============================================================================


      Code (inc. data)   RO Data    RW Data    ZI Data      Debug   

      9924       2540        208         24       2360     151920   Grand Totals
      9924       2540        208         24       2360     151920   ELF Image Totals
      9924       2540        208         24          0          0   ROM Totals

==============================================================================

    Total RO  Size (Code + RO Data)                10132 (   9.89kB)
    Total RW  Size (RW Data + ZI Data)              2384 (   2.33kB)
    Total ROM Size (Code + RO Data + RW Data)      10156 (   9.92kB)

==============================================================================

