Component: ARM Compiler 5.06 update 2 (build 183) Tool: armlink [4d35b7]

==============================================================================

Section Cross References

    system_m1130.o(i.SystemInit) refers to m1130_it.o(i.commonDelay) for commonDelay
    startup_m1130.o(RESET) refers to startup_m1130.o(STACK) for __initial_sp
    startup_m1130.o(RESET) refers to startup_m1130.o(.text) for Reset_Handler
    startup_m1130.o(RESET) refers to m1130_it.o(i.HardFault_Handler) for HardFault_Handler
    startup_m1130.o(RESET) refers to m1130_it.o(i.SVC_Handler) for SVC_Handler
    startup_m1130.o(RESET) refers to m1130_it.o(i.PendSV_Handler) for PendSV_Handler
    startup_m1130.o(RESET) refers to m1130_it.o(i.SysTick_Handler) for SysTick_Handler
    startup_m1130.o(RESET) refers to main.o(i.UART1_IRQHandler) for UART1_IRQHandler
    startup_m1130.o(RESET) refers to adc_r.o(i.ADC0_IRQHandler) for ADC0_IRQHandler
    startup_m1130.o(.text) refers to system_m1130.o(i.SystemInit) for SystemInit
    startup_m1130.o(.text) refers to entry.o(.ARM.Collect$$$$00000000) for __main
    m1130_gpio.o(i.GPIO_Reset) refers to m1130_rcc.o(i.RCC_SetPRESETCTRL) for RCC_SetPRESETCTRL
    m1130_gpio.o(i.GPIO_SetPinDir) refers to m1130_gpio.o(i.GPIO_SetPinMux) for GPIO_SetPinMux
    m1130_rcc.o(i.RCC_GetClocksFreq) refers to uidiv.o(.text) for __aeabi_uidivmod
    m1130_rcc.o(i.RCC_ResetAHBCLK) refers to m1130_rcc.o(i.RCC_SetAHBCLK) for RCC_SetAHBCLK
    m1130_rcc.o(i.RCC_ResetAHBCLK) refers to m1130_rcc.o(i.RCC_SetPRESETCTRL) for RCC_SetPRESETCTRL
    m1130_rcc.o(i.goSleep) refers to m1130_it.o(i.commonDelay) for commonDelay
    m1130_usart.o(i.UART_Init) refers to m1130_rcc.o(i.RCC_GetClocksFreq) for RCC_GetClocksFreq
==============================================================================

Removing Unused input sections from the image.

    Removing system_m1130.o(.rev16_text), (4 bytes).
    Removing system_m1130.o(.revsh_text), (4 bytes).
    Removing startup_m1130.o(HEAP), (512 bytes).
    Removing m1130_gpio.o(.rev16_text), (4 bytes).
    Removing m1130_gpio.o(.revsh_text), (4 bytes).
    Removing m1130_gpio.o(i.GPIO_ClearPin), (4 bytes).
    Removing m1130_gpio.o(i.GPIO_ConfigAna), (112 bytes).
    Removing m1130_gpio.o(i.GPIO_ConfigDriver), (100 bytes).
    Removing m1130_gpio.o(i.GPIO_ConfigPull), (100 bytes).
    Removing m1130_gpio.o(i.GPIO_ConfigSlewRate), (100 bytes).
    Removing m1130_gpio.o(i.GPIO_EdgeITClear), (4 bytes).
    Removing m1130_gpio.o(i.GPIO_EdgeITEnable), (30 bytes).
    Removing m1130_gpio.o(i.GPIO_GetMaskITStatus), (14 bytes).
    Removing m1130_gpio.o(i.GPIO_GetOriginalITStatus), (14 bytes).
    Removing m1130_gpio.o(i.GPIO_Init), (164 bytes).
    Removing m1130_gpio.o(i.GPIO_LevelITEnable), (22 bytes).
    Removing m1130_gpio.o(i.GPIO_MaskIT), (4 bytes).
    Removing m1130_gpio.o(i.GPIO_PinMask), (32 bytes).
==============================================================================

Image Symbol Table

    Local Symbols

    Symbol Name                              Value     Ov Type        Size  Object(Section)

    RESET                                    0x00000000   Section      176  startup_m1130.o(RESET)
    ../clib/microlib/division.c              0x00000000   Number         0  uldiv.o ABSOLUTE
    ../clib/microlib/division.c              0x00000000   Number         0  uidiv.o ABSOLUTE
    ../clib/microlib/init/entry.s            0x00000000   Number         0  entry11a.o ABSOLUTE
    ../clib/microlib/init/entry.s            0x00000000   Number         0  entry2.o ABSOLUTE
    ../clib/microlib/init/entry.s            0x00000000   Number         0  entry11b.o ABSOLUTE
    ../clib/microlib/init/entry.s            0x00000000   Number         0  entry8a.o ABSOLUTE
    ../clib/microlib/init/entry.s            0x00000000   Number         0  entry5.o ABSOLUTE
    ../clib/microlib/init/entry.s            0x00000000   Number         0  entry10b.o ABSOLUTE
    ../clib/microlib/init/entry.s            0x00000000   Number         0  entry7a.o ABSOLUTE
    ../clib/microlib/init/entry.s            0x00000000   Number         0  entry.o ABSOLUTE
    ../clib/microlib/init/entry.s            0x00000000   Number         0  entry10a.o ABSOLUTE
    ../clib/microlib/init/entry.s            0x00000000   Number         0  entry9b.o ABSOLUTE
    ../clib/microlib/init/entry.s            0x00000000   Number         0  entry7b.o ABSOLUTE
    ../clib/microlib/init/entry.s            0x00000000   Number         0  entry9a.o ABSOLUTE
    ../clib/microlib/init/entry.s            0x00000000   Number         0  entry8b.o ABSOLUTE
    ../clib/microlib/longlong.c              0x00000000   Number         0  llshl.o ABSOLUTE
    ../clib/microlib/longlong.c              0x00000000   Number         0  llushr.o ABSOLUTE
    ../clib/microlib/longlong.c              0x00000000   Number         0  llsshr.o ABSOLUTE
    ../clib/microlib/printf/printf.c         0x00000000   Number         0  printf5.o ABSOLUTE
    ../clib/microlib/printf/printf.c         0x00000000   Number         0  printf4.o ABSOLUTE
    ../clib/microlib/printf/printf.c         0x00000000   Number         0  printf3.o ABSOLUTE
    ../clib/microlib/printf/printf.c         0x00000000   Number         0  printf2.o ABSOLUTE
    ../clib/microlib/printf/printf.c         0x00000000   Number         0  printfb.o ABSOLUTE
    ../clib/microlib/printf/printf.c         0x00000000   Number         0  printf0.o ABSOLUTE
    ../clib/microlib/printf/printf.c         0x00000000   Number         0  printf1.o ABSOLUTE
    ../clib/microlib/printf/printf.c         0x00000000   Number         0  printfa.o ABSOLUTE
    ../clib/microlib/printf/printf.c         0x00000000   Number         0  printf8.o ABSOLUTE
    ../clib/microlib/printf/printf.c         0x00000000   Number         0  printf7.o ABSOLUTE
    ../clib/microlib/printf/printf.c         0x00000000   Number         0  printf6.o ABSOLUTE
    ../clib/microlib/stdio/streams.c         0x00000000   Number         0  stdout.o ABSOLUTE
    ../clib/microlib/stubs.s                 0x00000000   Number         0  iusefp.o ABSOLUTE
    ../fplib/microlib/fpadd.c                0x00000000   Number         0  dadd.o ABSOLUTE
    ../fplib/microlib/fpdiv.c                0x00000000   Number         0  ddiv.o ABSOLUTE
    ../fplib/microlib/fpepilogue.c           0x00000000   Number         0  depilogue.o ABSOLUTE
    ../fplib/microlib/fpfix.c                0x00000000   Number         0  dfixul.o ABSOLUTE
    ../fplib/microlib/fpmul.c                0x00000000   Number         0  dmul.o ABSOLUTE
    ..\..\..\Libraries\CMSIS\Device\ALPOS\M1130\Source\Templates\arm\startup_m1130.s 0x00000000   Number         0  startup_m1130.o ABSOLUTE
    ..\..\..\Libraries\CMSIS\Device\ALPOS\M1130\Source\Templates\system_m1130.c 0x00000000   Number         0  system_m1130.o ABSOLUTE
    ..\..\..\Libraries\M1130_StdPeriph_Driver\src\m1130_adc.c 0x00000000   Number         0  m1130_adc.o ABSOLUTE
    ..\..\..\Libraries\M1130_StdPeriph_Driver\src\m1130_gpio.c 0x00000000   Number         0  m1130_gpio.o ABSOLUTE
    ..\..\..\Libraries\M1130_StdPeriph_Driver\src\m1130_rcc.c 0x00000000   Number         0  m1130_rcc.o ABSOLUTE
    ..\..\..\Libraries\M1130_StdPeriph_Driver\src\m1130_tim.c 0x00000000   Number         0  m1130_tim.o ABSOLUTE
    ..\..\..\Libraries\M1130_StdPeriph_Driver\src\m1130_usart.c 0x00000000   Number         0  m1130_usart.o ABSOLUTE
    ..\..\..\Libraries\M1130_StdPeriph_Driver\src\misc.c 0x00000000   Number         0  misc.o ABSOLUTE
    ..\\..\\..\\Libraries\\CMSIS\\Device\\ALPOS\\M1130\\Source\\Templates\\system_m1130.c 0x00000000   Number         0  system_m1130.o ABSOLUTE
    ..\\..\\..\\Libraries\\M1130_StdPeriph_Driver\\src\\m1130_adc.c 0x00000000   Number         0  m1130_adc.o ABSOLUTE
    ..\\..\\..\\Libraries\\M1130_StdPeriph_Driver\\src\\m1130_gpio.c 0x00000000   Number         0  m1130_gpio.o ABSOLUTE
    ..\\..\\..\\Libraries\\M1130_StdPeriph_Driver\\src\\m1130_rcc.c 0x00000000   Number         0  m1130_rcc.o ABSOLUTE
    ..\\..\\..\\Libraries\\M1130_StdPeriph_Driver\\src\\m1130_tim.c 0x00000000   Number         0  m1130_tim.o ABSOLUTE
    ..\\..\\..\\Libraries\\M1130_StdPeriph_Driver\\src\\m1130_usart.c 0x00000000   Number         0  m1130_usart.o ABSOLUTE
    ..\\..\\..\\Libraries\\M1130_StdPeriph_Driver\\src\\misc.c 0x00000000   Number         0  misc.o ABSOLUTE
    ..\\src\\ADC_R.c                         0x00000000   Number         0  adc_r.o ABSOLUTE
    ..\\src\\m1130_it.c                      0x00000000   Number         0  m1130_it.o ABSOLUTE
    ..\\src\\main.c                          0x00000000   Number         0  main.o ABSOLUTE
    ..\src\ADC_R.c                           0x00000000   Number         0  adc_r.o ABSOLUTE
    ..\src\m1130_it.c                        0x00000000   Number         0  m1130_it.o ABSOLUTE
    ..\src\main.c                            0x00000000   Number         0  main.o ABSOLUTE
    cdrcmple.s                               0x00000000   Number         0  cdrcmple.o ABSOLUTE
    dc.s                                     0x00000000   Number         0  dc.o ABSOLUTE
    handlers.s                               0x00000000   Number         0  handlers.o ABSOLUTE
    init.s                                   0x00000000   Number         0  init.o ABSOLUTE
    .text                                    0x000000b0   Section       28  startup_m1130.o(.text)
    i.HardFault_Handler                      0x000000cc   Section        0  m1130_it.o(i.HardFault_Handler)
    i.PendSV_Handler                         0x000000ce   Section        0  m1130_it.o(i.PendSV_Handler)
    i.SVC_Handler                            0x000000d0   Section        0  m1130_it.o(i.SVC_Handler)
    i.SysTick_Handler                        0x000000d2   Section        0  m1130_it.o(i.SysTick_Handler)
    i.commonDelay                            0x000000d4   Section        0  m1130_it.o(i.commonDelay)
    .ARM.Collect$$$$00000000                 0x000000e8   Section        0  entry.o(.ARM.Collect$$$$00000000)
    .ARM.Collect$$$$00000001                 0x000000e8   Section        4  entry2.o(.ARM.Collect$$$$00000001)
    .ARM.Collect$$$$00000004                 0x000000ec   Section        4  entry5.o(.ARM.Collect$$$$00000004)
    .ARM.Collect$$$$00000008                 0x000000f0   Section        0  entry7b.o(.ARM.Collect$$$$00000008)
    .ARM.Collect$$$$0000000A                 0x000000f0   Section        0  entry8b.o(.ARM.Collect$$$$0000000A)
    .ARM.Collect$$$$0000000B                 0x000000f0   Section        8  entry9a.o(.ARM.Collect$$$$0000000B)
    .ARM.Collect$$$$0000000D                 0x000000f8   Section        0  entry10a.o(.ARM.Collect$$$$0000000D)
    .ARM.Collect$$$$0000000F                 0x000000f8   Section        0  entry11a.o(.ARM.Collect$$$$0000000F)
    .ARM.Collect$$$$00002712                 0x000000f8   Section        4  entry2.o(.ARM.Collect$$$$00002712)
    __lit__00000000                          0x000000f8   Data           4  entry2.o(.ARM.Collect$$$$00002712)
    .text                                    0x000000fc   Section       36  init.o(.text)
    i.__scatterload_copy                     0x00000120   Section       14  handlers.o(i.__scatterload_copy)
    i.__scatterload_null                     0x0000012e   Section        2  handlers.o(i.__scatterload_null)
    i.__scatterload_zeroinit                 0x00000130   Section       14  handlers.o(i.__scatterload_zeroinit)
    .text                                    0x00000160   Section        0  uidiv.o(.text)
    i.ADC0_IRQHandler                        0x0000018c   Section        0  adc_r.o(i.ADC0_IRQHandler)
    i.ADC_AnaEn                              0x000001c0   Section        0  m1130_adc.o(i.ADC_AnaEn)
    i.ADC_GetConvValue                       0x00000210   Section        0  m1130_adc.o(i.ADC_GetConvValue)
    i.ADC_GetITStatus                        0x0000028a   Section        0  m1130_adc.o(i.ADC_GetITStatus)
    i.ADC_ITConfig                           0x000002f8   Section        0  m1130_adc.o(i.ADC_ITConfig)
    i.ADC_Init                               0x00000308   Section        0  m1130_adc.o(i.ADC_Init)
    i.ADC_RCC_Init                           0x0000034c   Section        0  m1130_adc.o(i.ADC_RCC_Init)
    i.ADC_Run                                0x00000374   Section        0  m1130_adc.o(i.ADC_Run)
    i.ADC_SetConvChannel                     0x00000388   Section        0  m1130_adc.o(i.ADC_SetConvChannel)
    i.ADC_Test                               0x00000430   Section        0  adc_r.o(i.ADC_Test)
    i.GPIO_SetPin                            0x0000043c   Section        0  m1130_gpio.o(i.GPIO_SetPin)
    i.GPIO_SetPinDir                         0x00000440   Section        0  m1130_gpio.o(i.GPIO_SetPinDir)
    i.GPIO_SetPinMux                         0x00000484   Section        0  m1130_gpio.o(i.GPIO_SetPinMux)
    i.LED_Init                               0x000004ec   Section        0  main.o(i.LED_Init)
    i.NVIC_Init                              0x00000514   Section        0  misc.o(i.NVIC_Init)
    i.RCC_GetClocksFreq                      0x00000564   Section        0  m1130_rcc.o(i.RCC_GetClocksFreq)
    i.RCC_PDRUNConfig                        0x00000704   Section        0  m1130_rcc.o(i.RCC_PDRUNConfig)
    i.RCC_ResetAHBCLK                        0x00000720   Section        0  m1130_rcc.o(i.RCC_ResetAHBCLK)
    i.RCC_SETCLKDivider                      0x0000073e   Section        0  m1130_rcc.o(i.RCC_SETCLKDivider)
    i.RCC_SetAHBCLK                          0x00000748   Section        0  m1130_rcc.o(i.RCC_SetAHBCLK)
    i.RCC_SetPRESETCTRL                      0x00000758   Section        0  m1130_rcc.o(i.RCC_SetPRESETCTRL)
    i.RCC_UARTCLKSel                         0x00000768   Section        0  m1130_rcc.o(i.RCC_UARTCLKSel)
    i.SystemInit                             0x0000077c   Section        0  system_m1130.o(i.SystemInit)
    i.TIM_ARRPreloadConfig                   0x000007e0   Section        0  m1130_tim.o(i.TIM_ARRPreloadConfig)
    i.TIM_Cmd                                0x000007fc   Section        0  m1130_tim.o(i.TIM_Cmd)
    i.TIM_CtrlPWMOutputs                     0x00000818   Section        0  m1130_tim.o(i.TIM_CtrlPWMOutputs)
    i.TIM_OC4Init                            0x00000834   Section        0  m1130_tim.o(i.TIM_OC4Init)
    i.TIM_OC4PreloadConfig                   0x000008a0   Section        0  m1130_tim.o(i.TIM_OC4PreloadConfig)
    i.TIM_OCStructInit                       0x000008b4   Section        0  m1130_tim.o(i.TIM_OCStructInit)
    i.TIM_TimeBaseInit                       0x000008c8   Section        0  m1130_tim.o(i.TIM_TimeBaseInit)
    i.TIM_TimeBaseStructInit                 0x0000092c   Section        0  m1130_tim.o(i.TIM_TimeBaseStructInit)
    i.TIM_init                               0x00000940   Section        0  adc_r.o(i.TIM_init)
    i.UART1_IRQHandler                       0x000009c8   Section        0  main.o(i.UART1_IRQHandler)
    i.UART_Cmd                               0x00000a34   Section        0  m1130_usart.o(i.UART_Cmd)
    i.UART_Configuration                     0x00000a44   Section        0  main.o(i.UART_Configuration)
    i.UART_GetFlagStatus                     0x00000b98   Section        0  m1130_usart.o(i.UART_GetFlagStatus)
    i.UART_Init                              0x00000ba8   Section        0  m1130_usart.o(i.UART_Init)
    i.UART_Reset                             0x00000c40   Section        0  m1130_usart.o(i.UART_Reset)
    i.UART_SendData                          0x00000c9c   Section        0  m1130_usart.o(i.UART_SendData)
    i.UART_StructInit                        0x00000ca0   Section        0  m1130_usart.o(i.UART_StructInit)
    i.__0printf$bare                         0x00000cc4   Section        0  printfb.o(i.__0printf$bare)
    i.__ARM_common_switch8                   0x00000cd8   Section        0  main.o(i.__ARM_common_switch8)
    i._printf_core                           0x00000cf2   Section        0  printfb.o(i._printf_core)
    _printf_core                             0x00000cf3   Thumb Code    30  printfb.o(i._printf_core)
    i.delay_ms                               0x00000d10   Section        0  main.o(i.delay_ms)
    i.fputc                                  0x00000d2c   Section        0  main.o(i.fputc)
    i.main                                   0x00000d54   Section        0  main.o(i.main)
    i.myADC_Init                             0x00000da0   Section        0  adc_r.o(i.myADC_Init)
    .data                                    0x20000000   Section        8  main.o(.data)
    .data                                    0x20000008   Section        4  stdout.o(.data)
    .bss                                     0x2000000c   Section      256  main.o(.bss)
    .bss                                     0x2000010c   Section       32  adc_r.o(.bss)
    STACK                                    0x20000130   Section     1024  startup_m1130.o(STACK)

    Global Symbols

    Symbol Name                              Value     Ov Type        Size  Object(Section)

    BuildAttributes$$THM_ISAv3M$S$PE$A:L22$X:L11$S22$IEEE1$IW$USESV6$~STKCKD$USESV7$~SHL$OSPACE$ROPI$EBA8$MICROLIB$REQ8$PRES8$EABIv2 0x00000000   Number         0  anon$$obj.o ABSOLUTE
    __ARM_use_no_argv                        0x00000000   Number         0  main.o ABSOLUTE
    __Vectors                                0x00000000   Data           4  startup_m1130.o(RESET)
    __cpp_initialize__aeabi_                  - Undefined Weak Reference
    __cxa_finalize                            - Undefined Weak Reference
    __decompress                              - Undefined Weak Reference
    _clock_init                               - Undefined Weak Reference
    _microlib_exit                            - Undefined Weak Reference
    Reset_Handler                            0x000000b1   Thumb Code     8  startup_m1130.o(.text)
    __Vectors_End                            0x000000b0   Data           0  startup_m1130.o(RESET)
    __Vectors_Size                           0x000000b0   Number         0  startup_m1130.o ABSOLUTE
    NMI_Handler                              0x000000b9   Thumb Code     2  startup_m1130.o(.text)
    BITCOPY_IRQHandler                       0x000000c3   Thumb Code     0  startup_m1130.o(.text)
    BOD_IRQHandler                           0x000000c3   Thumb Code     0  startup_m1130.o(.text)
    BOR_IRQHandler                           0x000000c3   Thumb Code     0  startup_m1130.o(.text)
    CMP_IRQHandler                           0x000000c3   Thumb Code     0  startup_m1130.o(.text)
    DMA_IRQHandler                           0x000000c3   Thumb Code     0  startup_m1130.o(.text)
    GPIO0_IRQHandler                         0x000000c3   Thumb Code     0  startup_m1130.o(.text)
    GPIO1_IRQHandler                         0x000000c3   Thumb Code     0  startup_m1130.o(.text)
    I2C0_IRQHandler                          0x000000c3   Thumb Code     0  startup_m1130.o(.text)
    LED_IRQHandler                           0x000000c3   Thumb Code     0  startup_m1130.o(.text)
    QSPI0_IRQHandler                         0x000000c3   Thumb Code     0  startup_m1130.o(.text)
    QSPI1_IRQHandler                         0x000000c3   Thumb Code     0  startup_m1130.o(.text)
    QSPI2_IRQHandler                         0x000000c3   Thumb Code     0  startup_m1130.o(.text)
    RTC_IRQHandler                           0x000000c3   Thumb Code     0  startup_m1130.o(.text)
    TIM15_IRQHandler                         0x000000c3   Thumb Code     0  startup_m1130.o(.text)
    TIM16_IRQHandler                         0x000000c3   Thumb Code     0  startup_m1130.o(.text)
    TIM17_IRQHandler                         0x000000c3   Thumb Code     0  startup_m1130.o(.text)
    TIM1_IRQHandler                          0x000000c3   Thumb Code     0  startup_m1130.o(.text)
    TIM4_IRQHandler                          0x000000c3   Thumb Code     0  startup_m1130.o(.text)
    UART0_IRQHandler                         0x000000c3   Thumb Code     0  startup_m1130.o(.text)
    UART2_IRQHandler                         0x000000c3   Thumb Code     0  startup_m1130.o(.text)
    USB0_DMA_IRQHandler                      0x000000c3   Thumb Code     0  startup_m1130.o(.text)
    USB0_IRQHandler                          0x000000c3   Thumb Code     0  startup_m1130.o(.text)
    WKT_IRQHandler                           0x000000c3   Thumb Code     0  startup_m1130.o(.text)
    HardFault_Handler                        0x000000cd   Thumb Code     2  m1130_it.o(i.HardFault_Handler)
    PendSV_Handler                           0x000000cf   Thumb Code     2  m1130_it.o(i.PendSV_Handler)
    SVC_Handler                              0x000000d1   Thumb Code     2  m1130_it.o(i.SVC_Handler)
    SysTick_Handler                          0x000000d3   Thumb Code     2  m1130_it.o(i.SysTick_Handler)
    commonDelay                              0x000000d5   Thumb Code    18  m1130_it.o(i.commonDelay)
    __main                                   0x000000e9   Thumb Code     0  entry.o(.ARM.Collect$$$$00000000)
    _main_stk                                0x000000e9   Thumb Code     0  entry2.o(.ARM.Collect$$$$00000001)
    _main_scatterload                        0x000000ed   Thumb Code     0  entry5.o(.ARM.Collect$$$$00000004)
    __main_after_scatterload                 0x000000f1   Thumb Code     0  entry5.o(.ARM.Collect$$$$00000004)
    _main_clock                              0x000000f1   Thumb Code     0  entry7b.o(.ARM.Collect$$$$00000008)
    _main_cpp_init                           0x000000f1   Thumb Code     0  entry8b.o(.ARM.Collect$$$$0000000A)
    _main_init                               0x000000f1   Thumb Code     0  entry9a.o(.ARM.Collect$$$$0000000B)
    __rt_final_cpp                           0x000000f9   Thumb Code     0  entry10a.o(.ARM.Collect$$$$0000000D)
    __rt_final_exit                          0x000000f9   Thumb Code     0  entry11a.o(.ARM.Collect$$$$0000000F)
    __scatterload                            0x000000fd   Thumb Code    28  init.o(.text)
    __scatterload_rt2                        0x000000fd   Thumb Code     0  init.o(.text)
    __scatterload_copy                       0x00000121   Thumb Code    14  handlers.o(i.__scatterload_copy)
    __scatterload_null                       0x0000012f   Thumb Code     2  handlers.o(i.__scatterload_null)
    __scatterload_zeroinit                   0x00000131   Thumb Code    14  handlers.o(i.__scatterload_zeroinit)
    Region$$Table$$Base                      0x00000140   Number         0  anon$$obj.o(Region$$Table)
    Region$$Table$$Limit                     0x00000160   Number         0  anon$$obj.o(Region$$Table)
    __aeabi_uidiv                            0x00000161   Thumb Code     0  uidiv.o(.text)
    __aeabi_uidivmod                         0x00000161   Thumb Code    44  uidiv.o(.text)
    ADC0_IRQHandler                          0x0000018d   Thumb Code    40  adc_r.o(i.ADC0_IRQHandler)
    ADC_AnaEn                                0x000001c1   Thumb Code    72  m1130_adc.o(i.ADC_AnaEn)
    ADC_GetConvValue                         0x00000211   Thumb Code   122  m1130_adc.o(i.ADC_GetConvValue)
    ADC_GetITStatus                          0x0000028b   Thumb Code   110  m1130_adc.o(i.ADC_GetITStatus)
    ADC_ITConfig                             0x000002f9   Thumb Code    16  m1130_adc.o(i.ADC_ITConfig)
    ADC_Init                                 0x00000309   Thumb Code    68  m1130_adc.o(i.ADC_Init)
    ADC_RCC_Init                             0x0000034d   Thumb Code    36  m1130_adc.o(i.ADC_RCC_Init)
    ADC_Run                                  0x00000375   Thumb Code    20  m1130_adc.o(i.ADC_Run)
    ADC_SetConvChannel                       0x00000389   Thumb Code   168  m1130_adc.o(i.ADC_SetConvChannel)
    ADC_Test                                 0x00000431   Thumb Code    12  adc_r.o(i.ADC_Test)
    GPIO_SetPin                              0x0000043d   Thumb Code     4  m1130_gpio.o(i.GPIO_SetPin)
    GPIO_SetPinDir                           0x00000441   Thumb Code    56  m1130_gpio.o(i.GPIO_SetPinDir)
    GPIO_SetPinMux                           0x00000485   Thumb Code    94  m1130_gpio.o(i.GPIO_SetPinMux)
    LED_Init                                 0x000004ed   Thumb Code    34  main.o(i.LED_Init)
    NVIC_Init                                0x00000515   Thumb Code    72  misc.o(i.NVIC_Init)
    RCC_GetClocksFreq                        0x00000565   Thumb Code   398  m1130_rcc.o(i.RCC_GetClocksFreq)
    RCC_PDRUNConfig                          0x00000705   Thumb Code    22  m1130_rcc.o(i.RCC_PDRUNConfig)
    RCC_ResetAHBCLK                          0x00000721   Thumb Code    30  m1130_rcc.o(i.RCC_ResetAHBCLK)
    RCC_SETCLKDivider                        0x0000073f   Thumb Code    10  m1130_rcc.o(i.RCC_SETCLKDivider)
    RCC_SetAHBCLK                            0x00000749   Thumb Code    16  m1130_rcc.o(i.RCC_SetAHBCLK)
    RCC_SetPRESETCTRL                        0x00000759   Thumb Code    16  m1130_rcc.o(i.RCC_SetPRESETCTRL)
    RCC_UARTCLKSel                           0x00000769   Thumb Code    14  m1130_rcc.o(i.RCC_UARTCLKSel)
    SystemInit                               0x0000077d   Thumb Code    78  system_m1130.o(i.SystemInit)
    TIM_ARRPreloadConfig                     0x000007e1   Thumb Code    24  m1130_tim.o(i.TIM_ARRPreloadConfig)
    TIM_Cmd                                  0x000007fd   Thumb Code    24  m1130_tim.o(i.TIM_Cmd)
    TIM_CtrlPWMOutputs                       0x00000819   Thumb Code    28  m1130_tim.o(i.TIM_CtrlPWMOutputs)
    TIM_OC4Init                              0x00000835   Thumb Code    84  m1130_tim.o(i.TIM_OC4Init)
    TIM_OC4PreloadConfig                     0x000008a1   Thumb Code    14  m1130_tim.o(i.TIM_OC4PreloadConfig)
    TIM_OCStructInit                         0x000008b5   Thumb Code    20  m1130_tim.o(i.TIM_OCStructInit)
    TIM_TimeBaseInit                         0x000008c9   Thumb Code    76  m1130_tim.o(i.TIM_TimeBaseInit)
    TIM_TimeBaseStructInit                   0x0000092d   Thumb Code    18  m1130_tim.o(i.TIM_TimeBaseStructInit)
    TIM_init                                 0x00000941   Thumb Code   122  adc_r.o(i.TIM_init)
    UART1_IRQHandler                         0x000009c9   Thumb Code    96  main.o(i.UART1_IRQHandler)
    UART_Cmd                                 0x00000a35   Thumb Code    14  m1130_usart.o(i.UART_Cmd)
    UART_Configuration                       0x00000a45   Thumb Code   320  main.o(i.UART_Configuration)
    UART_GetFlagStatus                       0x00000b99   Thumb Code    14  m1130_usart.o(i.UART_GetFlagStatus)
    UART_Init                                0x00000ba9   Thumb Code   130  m1130_usart.o(i.UART_Init)
    UART_Reset                               0x00000c41   Thumb Code    78  m1130_usart.o(i.UART_Reset)
    UART_SendData                            0x00000c9d   Thumb Code     4  m1130_usart.o(i.UART_SendData)
    UART_StructInit                          0x00000ca1   Thumb Code    34  m1130_usart.o(i.UART_StructInit)
    __0printf$bare                           0x00000cc5   Thumb Code    12  printfb.o(i.__0printf$bare)
    __1printf$bare                           0x00000cc5   Thumb Code     0  printfb.o(i.__0printf$bare)
    __2printf                                0x00000cc5   Thumb Code     0  printfb.o(i.__0printf$bare)
    __ARM_common_switch8                     0x00000cd9   Thumb Code    26  main.o(i.__ARM_common_switch8)
    delay_ms                                 0x00000d11   Thumb Code    26  main.o(i.delay_ms)
    fputc                                    0x00000d2d   Thumb Code    34  main.o(i.fputc)
    main                                     0x00000d55   Thumb Code    34  main.o(i.main)
    myADC_Init                               0x00000da1   Thumb Code   100  adc_r.o(i.myADC_Init)
    TIMES                                    0x20000000   Data           1  main.o(.data)
    rxlen                                    0x20000002   Data           2  main.o(.data)
    rx_flag                                  0x20000004   Data           2  main.o(.data)
    rx_ptr                                   0x20000006   Data           2  main.o(.data)
    __stdout                                 0x20000008   Data           4  stdout.o(.data)
    rx_buf                                   0x2000000c   Data         256  main.o(.bss)
    adbuf                                    0x2000010c   Data          32  adc_r.o(.bss)
    __initial_sp                             0x20000530   Data           0  startup_m1130.o(STACK)



==============================================================================

Memory Map of the image

  Image Entry point : 0x000000e9

  Load Region LR_IROM1 (Base: 0x00000000, Size: 0x00000e18, Max: 0x00040000, ABSOLUTE)

    Execution Region ER_RESET (Base: 0x00000000, Size: 0x000000b0, Max: 0xffffffff, ABSOLUTE)

    Base Addr    Size         Type   Attr      Idx    E Section Name        Object

    0x00000000   0x000000b0   Data   RO           57    RESET               startup_m1130.o


    Execution Region ER_INT (Base: 0x000000b0, Size: 0x00000038, Max: 0xffffffff, ABSOLUTE)

    Base Addr    Size         Type   Attr      Idx    E Section Name        Object

    0x000000b0   0x0000001c   Code   RO           58    .text               startup_m1130.o
    0x000000cc   0x00000002   Code   RO         1263    i.HardFault_Handler  m1130_it.o
    0x000000ce   0x00000002   Code   RO         1265    i.PendSV_Handler    m1130_it.o
    0x000000d0   0x00000002   Code   RO         1266    i.SVC_Handler       m1130_it.o
    0x000000d2   0x00000002   Code   RO         1267    i.SysTick_Handler   m1130_it.o
    0x000000d4   0x00000012   Code   RO         1269    i.commonDelay       m1130_it.o


    Execution Region ER_LIB (Base: 0x000000e8, Size: 0x00000078, Max: 0xffffffff, ABSOLUTE)

    Base Addr    Size         Type   Attr      Idx    E Section Name        Object

    0x000000e8   0x00000000   Code   RO         1434  * .ARM.Collect$$$$00000000  mc_p.l(entry.o)
    0x000000e8   0x00000004   Code   RO         1699    .ARM.Collect$$$$00000001  mc_p.l(entry2.o)
    0x000000ec   0x00000004   Code   RO         1702    .ARM.Collect$$$$00000004  mc_p.l(entry5.o)
    0x000000f0   0x00000000   Code   RO         1704    .ARM.Collect$$$$00000008  mc_p.l(entry7b.o)
    0x000000f0   0x00000000   Code   RO         1706    .ARM.Collect$$$$0000000A  mc_p.l(entry8b.o)
    0x000000f0   0x00000008   Code   RO         1707    .ARM.Collect$$$$0000000B  mc_p.l(entry9a.o)
    0x000000f8   0x00000000   Code   RO         1709    .ARM.Collect$$$$0000000D  mc_p.l(entry10a.o)
    0x000000f8   0x00000000   Code   RO         1711    .ARM.Collect$$$$0000000F  mc_p.l(entry11a.o)
    0x000000f8   0x00000004   Code   RO         1700    .ARM.Collect$$$$00002712  mc_p.l(entry2.o)
    0x000000fc   0x00000024   Code   RO         1727    .text               mc_p.l(init.o)
    0x00000120   0x0000000e   Code   RO         1741    i.__scatterload_copy  mc_p.l(handlers.o)
    0x0000012e   0x00000002   Code   RO         1742    i.__scatterload_null  mc_p.l(handlers.o)
    0x00000130   0x0000000e   Code   RO         1743    i.__scatterload_zeroinit  mc_p.l(handlers.o)
    0x0000013e   0x00000002   PAD
    0x00000140   0x00000020   Data   RO         1739    Region$$Table       anon$$obj.o


    Execution Region ER_ANY (Base: 0x00000160, Size: 0x00000cac, Max: 0xffffffff, ABSOLUTE)

    Base Addr    Size         Type   Attr      Idx    E Section Name        Object

    0x00000160   0x0000002c   Code   RO         1437    .text               mc_p.l(uidiv.o)
    0x0000018c   0x00000034   Code   RO         1394    i.ADC0_IRQHandler   adc_r.o
    0x000001c0   0x00000050   Code   RO          607    i.ADC_AnaEn         m1130_adc.o
    0x00000210   0x0000007a   Code   RO          611    i.ADC_GetConvValue  m1130_adc.o
    0x0000028a   0x0000006e   Code   RO          612    i.ADC_GetITStatus   m1130_adc.o
    0x000002f8   0x00000010   Code   RO          613    i.ADC_ITConfig      m1130_adc.o
    0x00000308   0x00000044   Code   RO          614    i.ADC_Init          m1130_adc.o
    0x0000034c   0x00000028   Code   RO          615    i.ADC_RCC_Init      m1130_adc.o
    0x00000374   0x00000014   Code   RO          616    i.ADC_Run           m1130_adc.o
    0x00000388   0x000000a8   Code   RO          618    i.ADC_SetConvChannel  m1130_adc.o
    0x00000430   0x0000000c   Code   RO         1395    i.ADC_Test          adc_r.o
    0x0000043c   0x00000004   Code   RO           81    i.GPIO_SetPin       m1130_gpio.o
    0x00000440   0x00000044   Code   RO           82    i.GPIO_SetPinDir    m1130_gpio.o
    0x00000484   0x00000068   Code   RO           83    i.GPIO_SetPinMux    m1130_gpio.o
    0x000004ec   0x00000028   Code   RO         1332    i.LED_Init          main.o
    0x00000514   0x00000050   Code   RO          575    i.NVIC_Init         misc.o
    0x00000564   0x000001a0   Code   RO          233    i.RCC_GetClocksFreq  m1130_rcc.o
    0x00000704   0x0000001c   Code   RO          241    i.RCC_PDRUNConfig   m1130_rcc.o
    0x00000720   0x0000001e   Code   RO          244    i.RCC_ResetAHBCLK   m1130_rcc.o
    0x0000073e   0x0000000a   Code   RO          245    i.RCC_SETCLKDivider  m1130_rcc.o
    0x00000748   0x00000010   Code   RO          247    i.RCC_SetAHBCLK     m1130_rcc.o
    0x00000758   0x00000010   Code   RO          248    i.RCC_SetPRESETCTRL  m1130_rcc.o
    0x00000768   0x00000014   Code   RO          250    i.RCC_UARTCLKSel    m1130_rcc.o
    0x0000077c   0x00000064   Code   RO            3    i.SystemInit        system_m1130.o
    0x000007e0   0x0000001c   Code   RO          706    i.TIM_ARRPreloadConfig  m1130_tim.o
    0x000007fc   0x0000001c   Code   RO          718    i.TIM_Cmd           m1130_tim.o
    0x00000818   0x0000001c   Code   RO          720    i.TIM_CtrlPWMOutputs  m1130_tim.o
    0x00000834   0x0000006c   Code   RO          761    i.TIM_OC4Init       m1130_tim.o
    0x000008a0   0x00000014   Code   RO          763    i.TIM_OC4PreloadConfig  m1130_tim.o
    0x000008b4   0x00000014   Code   RO          764    i.TIM_OCStructInit  m1130_tim.o
    0x000008c8   0x00000064   Code   RO          789    i.TIM_TimeBaseInit  m1130_tim.o
    0x0000092c   0x00000012   Code   RO          790    i.TIM_TimeBaseStructInit  m1130_tim.o
    0x0000093e   0x00000002   PAD
    0x00000940   0x00000088   Code   RO         1396    i.TIM_init          adc_r.o
    0x000009c8   0x0000006c   Code   RO         1333    i.UART1_IRQHandler  main.o
    0x00000a34   0x0000000e   Code   RO          412    i.UART_Cmd          m1130_usart.o
    0x00000a42   0x00000002   PAD
    0x00000a44   0x00000154   Code   RO         1334    i.UART_Configuration  main.o
    0x00000b98   0x0000000e   Code   RO          414    i.UART_GetFlagStatus  m1130_usart.o
    0x00000ba6   0x00000002   PAD
    0x00000ba8   0x00000098   Code   RO          417    i.UART_Init         m1130_usart.o
    0x00000c40   0x0000005c   Code   RO          426    i.UART_Reset        m1130_usart.o
    0x00000c9c   0x00000004   Code   RO          427    i.UART_SendData     m1130_usart.o
    0x00000ca0   0x00000022   Code   RO          429    i.UART_StructInit   m1130_usart.o
    0x00000cc2   0x00000002   PAD
    0x00000cc4   0x00000014   Code   RO         1440    i.__0printf$bare    mc_p.l(printfb.o)
    0x00000cd8   0x0000001a   Code   RO         1381    i.__ARM_common_switch8  main.o
    0x00000cf2   0x0000001e   Code   RO         1447    i._printf_core      mc_p.l(printfb.o)
    0x00000d10   0x0000001a   Code   RO         1335    i.delay_ms          main.o
    0x00000d2a   0x00000002   PAD
    0x00000d2c   0x00000028   Code   RO         1336    i.fputc             main.o
    0x00000d54   0x0000004c   Code   RO         1337    i.main              main.o
    0x00000da0   0x0000006c   Code   RO         1397    i.myADC_Init        adc_r.o


    Execution Region RW_IRAM1 (Base: 0x20000000, Size: 0x00000530, Max: 0x00008000, ABSOLUTE)

    Base Addr    Size         Type   Attr      Idx    E Section Name        Object

    0x20000000   0x00000008   Data   RW         1339    .data               main.o
    0x20000008   0x00000004   Data   RW         1713    .data               mc_p.l(stdout.o)
    0x2000000c   0x00000100   Zero   RW         1338    .bss                main.o
    0x2000010c   0x00000020   Zero   RW         1398    .bss                adc_r.o
    0x2000012c   0x00000004   PAD
    0x20000130   0x00000400   Zero   RW           55    STACK               startup_m1130.o


==============================================================================

Image component sizes


      Code (inc. data)   RO Data    RW Data    ZI Data      Debug   Object Name

       308         34          0          0         32       3096   adc_r.o
       624         12          0          0          0      11065   m1130_adc.o
       176         22          0          0          0       7200   m1130_gpio.o
        26          0          0          0          0       2359   m1130_it.o
       536         30          0          0          0       5497   m1130_rcc.o
       350         62          0          0          0      25562   m1130_tim.o
       310         36          0          0          0      15287   m1130_usart.o
       656         94          0          8        256       9413   main.o
        80          8          0          0          0       1188   misc.o
        28          8        176          0       1024        752   startup_m1130.o
       100         22          0          0          0      67573   system_m1130.o

    ----------------------------------------------------------------------
      3206        328        208          8       1316     148992   Object Totals
         0          0         32          0          0          0   (incl. Generated)
        12          0          0          0          4          0   (incl. Padding)

    ----------------------------------------------------------------------

      Code (inc. data)   RO Data    RW Data    ZI Data      Debug   Library Member Name

         0          0          0          0          0          0   entry.o
         0          0          0          0          0          0   entry10a.o
         0          0          0          0          0          0   entry11a.o
         8          4          0          0          0          0   entry2.o
         4          0          0          0          0          0   entry5.o
         0          0          0          0          0          0   entry7b.o
         0          0          0          0          0          0   entry8b.o
         8          4          0          0          0          0   entry9a.o
        30          0          0          0          0          0   handlers.o
        36          8          0          0          0         68   init.o
        50          8          0          0          0        144   printfb.o
         0          0          0          4          0          0   stdout.o
        44          0          0          0          0         72   uidiv.o

    ----------------------------------------------------------------------
       182         24          0          4          0        284   Library Totals
         2          0          0          0          0          0   (incl. Padding)

    ----------------------------------------------------------------------

      Code (inc. data)   RO Data    RW Data    ZI Data      Debug   Library Name

       180         24          0          4          0        284   mc_p.l

    ----------------------------------------------------------------------
       182         24          0          4          0        284   Library Totals

    ----------------------------------------------------------------------

==============================================================================


      Code (inc. data)   RO Data    RW Data    ZI Data      Debug   

      3388        352        208         12       1316     147360   Grand Totals
      3388        352        208         12       1316     147360   ELF Image Totals
      3388        352        208         12          0          0   ROM Totals

==============================================================================

    Total RO  Size (Code + RO Data)                 3596 (   3.51kB)
    Total RW  Size (RW Data + ZI Data)              1328 (   1.30kB)
    Total ROM Size (Code + RO Data + RW Data)       3608 (   3.52kB)

==============================================================================

